{
  "_format": "hh-sol-artifact-1",
  "contractName": "Summon",
  "sourceName": "contracts/Summon.sol",
  "abi": [
    {
      "inputs": [
        {
          "internalType": "address",
          "name": "_owner",
          "type": "address"
        }
      ],
      "stateMutability": "nonpayable",
      "type": "constructor"
    },
    {
      "inputs": [],
      "name": "NAME",
      "outputs": [
        {
          "internalType": "string",
          "name": "",
          "type": "string"
        }
      ],
      "stateMutability": "view",
      "type": "function"
    },
    {
      "inputs": [],
      "name": "VERSION",
      "outputs": [
        {
          "internalType": "string",
          "name": "",
          "type": "string"
        }
      ],
      "stateMutability": "view",
      "type": "function"
    },
    {
      "inputs": [
        {
          "internalType": "address",
          "name": "tokenAddress",
          "type": "address"
        },
        {
          "internalType": "uint256",
          "name": "tokenId",
          "type": "uint256"
        }
      ],
      "name": "depositToken",
      "outputs": [
        {
          "internalType": "bool",
          "name": "success",
          "type": "bool"
        },
        {
          "internalType": "bytes",
          "name": "data",
          "type": "bytes"
        }
      ],
      "stateMutability": "nonpayable",
      "type": "function"
    },
    {
      "inputs": [
        {
          "internalType": "bytes32",
          "name": "_hash",
          "type": "bytes32"
        },
        {
          "internalType": "bytes",
          "name": "_signature",
          "type": "bytes"
        }
      ],
      "name": "isValidSignature",
      "outputs": [
        {
          "internalType": "bytes4",
          "name": "",
          "type": "bytes4"
        }
      ],
      "stateMutability": "view",
      "type": "function"
    },
    {
      "inputs": [
        {
          "internalType": "address",
          "name": "",
          "type": "address"
        },
        {
          "internalType": "address",
          "name": "",
          "type": "address"
        },
        {
          "internalType": "uint256[]",
          "name": "",
          "type": "uint256[]"
        },
        {
          "internalType": "uint256[]",
          "name": "",
          "type": "uint256[]"
        },
        {
          "internalType": "bytes",
          "name": "",
          "type": "bytes"
        }
      ],
      "name": "onERC1155BatchReceived",
      "outputs": [
        {
          "internalType": "bytes4",
          "name": "",
          "type": "bytes4"
        }
      ],
      "stateMutability": "pure",
      "type": "function"
    },
    {
      "inputs": [
        {
          "internalType": "address",
          "name": "",
          "type": "address"
        },
        {
          "internalType": "address",
          "name": "",
          "type": "address"
        },
        {
          "internalType": "uint256",
          "name": "",
          "type": "uint256"
        },
        {
          "internalType": "uint256",
          "name": "",
          "type": "uint256"
        },
        {
          "internalType": "bytes",
          "name": "",
          "type": "bytes"
        }
      ],
      "name": "onERC1155Received",
      "outputs": [
        {
          "internalType": "bytes4",
          "name": "",
          "type": "bytes4"
        }
      ],
      "stateMutability": "pure",
      "type": "function"
    },
    {
      "inputs": [
        {
          "internalType": "address",
          "name": "",
          "type": "address"
        },
        {
          "internalType": "address",
          "name": "",
          "type": "address"
        },
        {
          "internalType": "uint256",
          "name": "",
          "type": "uint256"
        },
        {
          "internalType": "bytes",
          "name": "",
          "type": "bytes"
        }
      ],
      "name": "onERC721Received",
      "outputs": [
        {
          "internalType": "bytes4",
          "name": "",
          "type": "bytes4"
        }
      ],
      "stateMutability": "pure",
      "type": "function"
    },
    {
      "inputs": [],
      "name": "owner",
      "outputs": [
        {
          "internalType": "address",
          "name": "",
          "type": "address"
        }
      ],
      "stateMutability": "view",
      "type": "function"
    },
    {
      "inputs": [
        {
          "internalType": "bytes32",
          "name": "_ethSignedMessageHash",
          "type": "bytes32"
        },
        {
          "internalType": "bytes",
          "name": "_signature",
          "type": "bytes"
        }
      ],
      "name": "recoverSigner",
      "outputs": [
        {
          "internalType": "address",
          "name": "",
          "type": "address"
        }
      ],
      "stateMutability": "pure",
      "type": "function"
    },
    {
      "inputs": [
        {
          "internalType": "bytes",
          "name": "sig",
          "type": "bytes"
        }
      ],
      "name": "splitSignature",
      "outputs": [
        {
          "internalType": "bytes32",
          "name": "r",
          "type": "bytes32"
        },
        {
          "internalType": "bytes32",
          "name": "s",
          "type": "bytes32"
        },
        {
          "internalType": "uint8",
          "name": "v",
          "type": "uint8"
        }
      ],
      "stateMutability": "pure",
      "type": "function"
    },
    {
      "inputs": [
        {
          "internalType": "bytes",
          "name": "",
          "type": "bytes"
        }
      ],
      "name": "storedTokens",
      "outputs": [
        {
          "internalType": "address",
          "name": "",
          "type": "address"
        }
      ],
      "stateMutability": "view",
      "type": "function"
    },
    {
      "inputs": [
        {
          "internalType": "bytes4",
          "name": "interfaceId",
          "type": "bytes4"
        }
      ],
      "name": "supportsInterface",
      "outputs": [
        {
          "internalType": "bool",
          "name": "",
          "type": "bool"
        }
      ],
      "stateMutability": "view",
      "type": "function"
    },
    {
      "inputs": [
        {
          "internalType": "address",
          "name": "",
          "type": "address"
        },
        {
          "internalType": "address",
          "name": "",
          "type": "address"
        },
        {
          "internalType": "address",
          "name": "",
          "type": "address"
        },
        {
          "internalType": "uint256",
          "name": "",
          "type": "uint256"
        },
        {
          "internalType": "bytes",
          "name": "",
          "type": "bytes"
        },
        {
          "internalType": "bytes",
          "name": "",
          "type": "bytes"
        }
      ],
      "name": "tokensReceived",
      "outputs": [],
      "stateMutability": "pure",
      "type": "function"
    },
    {
      "inputs": [
        {
          "internalType": "address",
          "name": "tokenAddress",
          "type": "address"
        },
        {
          "internalType": "uint256",
          "name": "tokenId",
          "type": "uint256"
        }
      ],
      "name": "withdrawToken",
      "outputs": [
        {
          "internalType": "bool",
          "name": "success",
          "type": "bool"
        },
        {
          "internalType": "bytes",
          "name": "data",
          "type": "bytes"
        }
      ],
      "stateMutability": "nonpayable",
      "type": "function"
    }
  ],
  "bytecode": "0x60a06040523480156200001157600080fd5b50604051620018533803806200185383398181016040528101906200003791906200008c565b8073ffffffffffffffffffffffffffffffffffffffff1660808173ffffffffffffffffffffffffffffffffffffffff1660601b815250505062000106565b6000815190506200008681620000ec565b92915050565b6000602082840312156200009f57600080fd5b6000620000af8482850162000075565b91505092915050565b6000620000c582620000cc565b9050919050565b600073ffffffffffffffffffffffffffffffffffffffff82169050919050565b620000f781620000b8565b81146200010357600080fd5b50565b60805160601c6117276200012c600039600081816104ee015261078001526117276000f3fe608060405234801561001057600080fd5b50600436106100e95760003560e01c806397aba7f91161008c578063a7bb580311610066578063a7bb580314610298578063bc197c81146102ca578063f23a6e61146102fa578063ffa1ad741461032a576100e9565b806397aba7f9146102195780639e281a9814610249578063a3f4df7e1461027a576100e9565b8063150b7a02116100c8578063150b7a021461016a5780631626ba7e1461019a578063338b5dea146101ca5780638da5cb5b146101fb576100e9565b806223de29146100ee57806301ffc9a71461010a57806311a639bb1461013a575b600080fd5b61010860048036038101906101039190610c88565b610348565b005b610124600480360381019061011f9190611011565b610352565b60405161013191906112a4565b60405180910390f35b610154600480360381019061014f919061103a565b61048c565b6040516101619190611252565b60405180910390f35b610184600480360381019061017f9190610e17565b6104d5565b604051610191919061136b565b60405180910390f35b6101b460048036038101906101af9190610f65565b6104ea565b6040516101c1919061136b565b60405180910390f35b6101e460048036038101906101df9190610f29565b6105ae565b6040516101f29291906112bf565b60405180910390f35b61020361077e565b6040516102109190611252565b60405180910390f35b610233600480360381019061022e9190610fbd565b6107a2565b6040516102409190611252565b60405180910390f35b610263600480360381019061025e9190610f29565b610811565b6040516102719291906112bf565b60405180910390f35b610282610a30565b60405161028f9190611386565b60405180910390f35b6102b260048036038101906102ad919061103a565b610a69565b6040516102c1939291906112ef565b60405180910390f35b6102e460048036038101906102df9190610d4b565b610ad1565b6040516102f1919061136b565b60405180910390f35b610314600480360381019061030f9190610e97565b610ae9565b604051610321919061136b565b60405180910390f35b610332610aff565b60405161033f9190611386565b60405180910390f35b5050505050505050565b60007f4e2312e0000000000000000000000000000000000000000000000000000000007bffffffffffffffffffffffffffffffffffffffffffffffffffffffff1916827bffffffffffffffffffffffffffffffffffffffffffffffffffffffff1916148061041d57507f150b7a02000000000000000000000000000000000000000000000000000000007bffffffffffffffffffffffffffffffffffffffffffffffffffffffff1916827bffffffffffffffffffffffffffffffffffffffffffffffffffffffff1916145b8061048557507f01ffc9a7000000000000000000000000000000000000000000000000000000007bffffffffffffffffffffffffffffffffffffffffffffffffffffffff1916827bffffffffffffffffffffffffffffffffffffffffffffffffffffffff1916145b9050919050565b6000818051602081018201805184825260208301602085012081835280955050505050506000915054906101000a900473ffffffffffffffffffffffffffffffffffffffff1681565b600063150b7a0260e01b905095945050505050565b60007f000000000000000000000000000000000000000000000000000000000000000073ffffffffffffffffffffffffffffffffffffffff166105718585858080601f016020809104026020016040519081016040528093929190818152602001838380828437600081840152601f19601f820116905080830192505050505050506107a2565b73ffffffffffffffffffffffffffffffffffffffff16141561059c57631626ba7e60e01b90506105a7565b63ffffffff60e01b90505b9392505050565b60006060600084846040516020016105c792919061120f565b6040516020818303038152906040529050336000826040516105e9919061123b565b908152602001604051809103902060006101000a81548173ffffffffffffffffffffffffffffffffffffffff021916908373ffffffffffffffffffffffffffffffffffffffff1602179055508473ffffffffffffffffffffffffffffffffffffffff163330866040516024016106619392919061126d565b6040516020818303038152906040527f23b872dd000000000000000000000000000000000000000000000000000000007bffffffffffffffffffffffffffffffffffffffffffffffffffffffff19166020820180517bffffffffffffffffffffffffffffffffffffffffffffffffffffffff83818316178352505050506040516106eb919061123b565b6000604051808303816000865af19150503d8060008114610728576040519150601f19603f3d011682016040523d82523d6000602084013e61072d565b606091505b50809350819450505082610776576040517f08c379a000000000000000000000000000000000000000000000000000000000815260040161076d906113c8565b60405180910390fd5b509250929050565b7f000000000000000000000000000000000000000000000000000000000000000081565b6000806000806107b185610a69565b925092509250600186828585604051600081526020016040526040516107da9493929190611326565b6020604051602081039080840390855afa1580156107fc573d6000803e3d6000fd5b50505060206040510351935050505092915050565b600060606000848460405160200161082a92919061120f565b60405160208183030381529060405290503373ffffffffffffffffffffffffffffffffffffffff16600082604051610862919061123b565b908152602001604051809103902060009054906101000a900473ffffffffffffffffffffffffffffffffffffffff1673ffffffffffffffffffffffffffffffffffffffff16146108e7576040517f08c379a00000000000000000000000000000000000000000000000000000000081526004016108de906113a8565b60405180910390fd5b8473ffffffffffffffffffffffffffffffffffffffff163033866040516024016109139392919061126d565b6040516020818303038152906040527f42842e0e000000000000000000000000000000000000000000000000000000007bffffffffffffffffffffffffffffffffffffffffffffffffffffffff19166020820180517bffffffffffffffffffffffffffffffffffffffffffffffffffffffff838183161783525050505060405161099d919061123b565b6000604051808303816000865af19150503d80600081146109da576040519150601f19603f3d011682016040523d82523d6000602084013e6109df565b606091505b50809350819450505082610a28576040517f08c379a0000000000000000000000000000000000000000000000000000000008152600401610a1f906113c8565b60405180910390fd5b509250929050565b6040518060400160405280601881526020017f44656661756c742043616c6c6261636b2048616e646c6572000000000000000081525081565b60008060006041845114610ab2576040517f08c379a0000000000000000000000000000000000000000000000000000000008152600401610aa9906113e8565b60405180910390fd5b6020840151925060408401519150606084015160001a90509193909250565b600063bc197c8160e01b905098975050505050505050565b600063f23a6e6160e01b90509695505050505050565b6040518060400160405280600581526020017f312e302e3000000000000000000000000000000000000000000000000000000081525081565b6000610b4b610b468461142d565b611408565b905082815260208101848484011115610b6357600080fd5b610b6e84828561152c565b509392505050565b600081359050610b8581611695565b92915050565b60008083601f840112610b9d57600080fd5b8235905067ffffffffffffffff811115610bb657600080fd5b602083019150836020820283011115610bce57600080fd5b9250929050565b600081359050610be4816116ac565b92915050565b600081359050610bf9816116c3565b92915050565b60008083601f840112610c1157600080fd5b8235905067ffffffffffffffff811115610c2a57600080fd5b602083019150836001820283011115610c4257600080fd5b9250929050565b600082601f830112610c5a57600080fd5b8135610c6a848260208601610b38565b91505092915050565b600081359050610c82816116da565b92915050565b60008060008060008060008060c0898b031215610ca457600080fd5b6000610cb28b828c01610b76565b9850506020610cc38b828c01610b76565b9750506040610cd48b828c01610b76565b9650506060610ce58b828c01610c73565b955050608089013567ffffffffffffffff811115610d0257600080fd5b610d0e8b828c01610bff565b945094505060a089013567ffffffffffffffff811115610d2d57600080fd5b610d398b828c01610bff565b92509250509295985092959890939650565b60008060008060008060008060a0898b031215610d6757600080fd5b6000610d758b828c01610b76565b9850506020610d868b828c01610b76565b975050604089013567ffffffffffffffff811115610da357600080fd5b610daf8b828c01610b8b565b9650965050606089013567ffffffffffffffff811115610dce57600080fd5b610dda8b828c01610b8b565b9450945050608089013567ffffffffffffffff811115610df957600080fd5b610e058b828c01610bff565b92509250509295985092959890939650565b600080600080600060808688031215610e2f57600080fd5b6000610e3d88828901610b76565b9550506020610e4e88828901610b76565b9450506040610e5f88828901610c73565b935050606086013567ffffffffffffffff811115610e7c57600080fd5b610e8888828901610bff565b92509250509295509295909350565b60008060008060008060a08789031215610eb057600080fd5b6000610ebe89828a01610b76565b9650506020610ecf89828a01610b76565b9550506040610ee089828a01610c73565b9450506060610ef189828a01610c73565b935050608087013567ffffffffffffffff811115610f0e57600080fd5b610f1a89828a01610bff565b92509250509295509295509295565b60008060408385031215610f3c57600080fd5b6000610f4a85828601610b76565b9250506020610f5b85828601610c73565b9150509250929050565b600080600060408486031215610f7a57600080fd5b6000610f8886828701610bd5565b935050602084013567ffffffffffffffff811115610fa557600080fd5b610fb186828701610bff565b92509250509250925092565b60008060408385031215610fd057600080fd5b6000610fde85828601610bd5565b925050602083013567ffffffffffffffff811115610ffb57600080fd5b61100785828601610c49565b9150509250929050565b60006020828403121561102357600080fd5b600061103184828501610bea565b91505092915050565b60006020828403121561104c57600080fd5b600082013567ffffffffffffffff81111561106657600080fd5b61107284828501610c49565b91505092915050565b611084816114a1565b82525050565b61109b611096826114a1565b61159f565b82525050565b6110aa816114b3565b82525050565b6110b9816114bf565b82525050565b6110c8816114c9565b82525050565b60006110d98261145e565b6110e38185611474565b93506110f381856020860161153b565b6110fc816115fc565b840191505092915050565b60006111128261145e565b61111c8185611485565b935061112c81856020860161153b565b80840191505092915050565b600061114382611469565b61114d8185611490565b935061115d81856020860161153b565b611166816115fc565b840191505092915050565b600061117e601d83611490565b91506111898261161a565b602082019050919050565b60006111a1600b83611490565b91506111ac82611643565b602082019050919050565b60006111c4601883611490565b91506111cf8261166c565b602082019050919050565b6111e381611515565b82525050565b6111fa6111f582611515565b6115c3565b82525050565b6112098161151f565b82525050565b600061121b828561108a565b60148201915061122b82846111e9565b6020820191508190509392505050565b60006112478284611107565b915081905092915050565b6000602082019050611267600083018461107b565b92915050565b6000606082019050611282600083018661107b565b61128f602083018561107b565b61129c60408301846111da565b949350505050565b60006020820190506112b960008301846110a1565b92915050565b60006040820190506112d460008301856110a1565b81810360208301526112e681846110ce565b90509392505050565b600060608201905061130460008301866110b0565b61131160208301856110b0565b61131e6040830184611200565b949350505050565b600060808201905061133b60008301876110b0565b6113486020830186611200565b61135560408301856110b0565b61136260608301846110b0565b95945050505050565b600060208201905061138060008301846110bf565b92915050565b600060208201905081810360008301526113a08184611138565b905092915050565b600060208201905081810360008301526113c181611171565b9050919050565b600060208201905081810360008301526113e181611194565b9050919050565b60006020820190508181036000830152611401816111b7565b9050919050565b6000611412611423565b905061141e828261156e565b919050565b6000604051905090565b600067ffffffffffffffff821115611448576114476115cd565b5b611451826115fc565b9050602081019050919050565b600081519050919050565b600081519050919050565b600082825260208201905092915050565b600081905092915050565b600082825260208201905092915050565b60006114ac826114f5565b9050919050565b60008115159050919050565b6000819050919050565b60007fffffffff0000000000000000000000000000000000000000000000000000000082169050919050565b600073ffffffffffffffffffffffffffffffffffffffff82169050919050565b6000819050919050565b600060ff82169050919050565b82818337600083830152505050565b60005b8381101561155957808201518184015260208101905061153e565b83811115611568576000848401525b50505050565b611577826115fc565b810181811067ffffffffffffffff82111715611596576115956115cd565b5b80604052505050565b60006115aa826115b1565b9050919050565b60006115bc8261160d565b9050919050565b6000819050919050565b7f4e487b7100000000000000000000000000000000000000000000000000000000600052604160045260246000fd5b6000601f19601f8301169050919050565b60008160601b9050919050565b7f7769746864726177657220646f6573206e6f74206f776e20746f6b656e000000600082015250565b7f63616c6c206661696c6564000000000000000000000000000000000000000000600082015250565b7f696e76616c6964207369676e6174757265206c656e6774680000000000000000600082015250565b61169e816114a1565b81146116a957600080fd5b50565b6116b5816114bf565b81146116c057600080fd5b50565b6116cc816114c9565b81146116d757600080fd5b50565b6116e381611515565b81146116ee57600080fd5b5056fea264697066735822122030102906a5023b6d6f878633f6dfb10e891fec0f5649b69ce8373afcde492bd764736f6c63430008040033",
  "linkReferences": {},
  "deployedLinkReferences": {}
}