{
  "_format": "hh-sol-artifact-1",
  "contractName": "SummonV2Manager",
  "sourceName": "contracts/SummonV2Manager.sol",
  "abi": [
    {
      "inputs": [
        {
          "internalType": "address",
          "name": "_singleton",
          "type": "address"
        }
      ],
      "stateMutability": "nonpayable",
      "type": "constructor"
    },
    {
      "anonymous": false,
      "inputs": [
        {
          "indexed": true,
          "internalType": "address",
          "name": "owner",
          "type": "address"
        },
        {
          "indexed": true,
          "internalType": "address",
          "name": "summonAddress",
          "type": "address"
        }
      ],
      "name": "SummonCreated",
      "type": "event"
    },
    {
      "anonymous": false,
      "inputs": [
        {
          "indexed": true,
          "internalType": "address",
          "name": "lender",
          "type": "address"
        },
        {
          "indexed": true,
          "internalType": "address",
          "name": "summon",
          "type": "address"
        },
        {
          "indexed": false,
          "internalType": "address",
          "name": "tokenAddress",
          "type": "address"
        },
        {
          "indexed": false,
          "internalType": "uint256",
          "name": "tokenId",
          "type": "uint256"
        }
      ],
      "name": "TokenLendedFrom",
      "type": "event"
    },
    {
      "anonymous": false,
      "inputs": [
        {
          "indexed": true,
          "internalType": "address",
          "name": "lender",
          "type": "address"
        },
        {
          "indexed": true,
          "internalType": "address",
          "name": "summon",
          "type": "address"
        },
        {
          "indexed": false,
          "internalType": "address",
          "name": "tokenAddress",
          "type": "address"
        },
        {
          "indexed": false,
          "internalType": "uint256",
          "name": "tokenId",
          "type": "uint256"
        }
      ],
      "name": "TokenWithdrawnTo",
      "type": "event"
    },
    {
      "inputs": [
        {
          "internalType": "address",
          "name": "_owner",
          "type": "address"
        }
      ],
      "name": "CreateNewSummon",
      "outputs": [
        {
          "internalType": "address",
          "name": "",
          "type": "address"
        }
      ],
      "stateMutability": "nonpayable",
      "type": "function"
    },
    {
      "inputs": [
        {
          "internalType": "bytes",
          "name": "",
          "type": "bytes"
        }
      ],
      "name": "EncodedTokenToLender",
      "outputs": [
        {
          "internalType": "address",
          "name": "",
          "type": "address"
        }
      ],
      "stateMutability": "view",
      "type": "function"
    },
    {
      "inputs": [
        {
          "internalType": "bytes",
          "name": "",
          "type": "bytes"
        }
      ],
      "name": "EncodedTokenToSummon",
      "outputs": [
        {
          "internalType": "address",
          "name": "",
          "type": "address"
        }
      ],
      "stateMutability": "view",
      "type": "function"
    },
    {
      "inputs": [
        {
          "internalType": "address",
          "name": "",
          "type": "address"
        }
      ],
      "name": "OwnerToSummonAddress",
      "outputs": [
        {
          "internalType": "address",
          "name": "",
          "type": "address"
        }
      ],
      "stateMutability": "view",
      "type": "function"
    },
    {
      "inputs": [
        {
          "internalType": "address",
          "name": "",
          "type": "address"
        }
      ],
      "name": "SummonAddressToOwner",
      "outputs": [
        {
          "internalType": "address",
          "name": "",
          "type": "address"
        }
      ],
      "stateMutability": "view",
      "type": "function"
    },
    {
      "inputs": [
        {
          "internalType": "address",
          "name": "summon",
          "type": "address"
        },
        {
          "internalType": "address",
          "name": "tokenAddress",
          "type": "address"
        },
        {
          "internalType": "uint256",
          "name": "tokenId",
          "type": "uint256"
        }
      ],
      "name": "depositTokenToSummon",
      "outputs": [
        {
          "internalType": "bool",
          "name": "success",
          "type": "bool"
        },
        {
          "internalType": "bytes",
          "name": "data",
          "type": "bytes"
        }
      ],
      "stateMutability": "nonpayable",
      "type": "function"
    },
    {
      "inputs": [
        {
          "internalType": "bytes",
          "name": "_encodedToken",
          "type": "bytes"
        }
      ],
      "name": "getDecodedToken",
      "outputs": [
        {
          "internalType": "address",
          "name": "tokenAddress",
          "type": "address"
        },
        {
          "internalType": "uint256",
          "name": "tokenId",
          "type": "uint256"
        }
      ],
      "stateMutability": "pure",
      "type": "function"
    },
    {
      "inputs": [
        {
          "internalType": "address",
          "name": "tokenAddress",
          "type": "address"
        },
        {
          "internalType": "uint256",
          "name": "tokenId",
          "type": "uint256"
        }
      ],
      "name": "getEncodedToken",
      "outputs": [
        {
          "internalType": "bytes",
          "name": "encodedToken",
          "type": "bytes"
        }
      ],
      "stateMutability": "pure",
      "type": "function"
    },
    {
      "inputs": [],
      "name": "singleton",
      "outputs": [
        {
          "internalType": "address",
          "name": "",
          "type": "address"
        }
      ],
      "stateMutability": "view",
      "type": "function"
    },
    {
      "inputs": [
        {
          "internalType": "address",
          "name": "tokenAddress",
          "type": "address"
        },
        {
          "internalType": "uint256",
          "name": "tokenId",
          "type": "uint256"
        }
      ],
      "name": "withdrawTokenFromSummon",
      "outputs": [
        {
          "internalType": "bool",
          "name": "success",
          "type": "bool"
        },
        {
          "internalType": "bytes",
          "name": "data",
          "type": "bytes"
        }
      ],
      "stateMutability": "nonpayable",
      "type": "function"
    }
  ],
  "bytecode": "0x60a06040523480156200001157600080fd5b50604051620018c6380380620018c683398181016040528101906200003791906200008c565b8073ffffffffffffffffffffffffffffffffffffffff1660808173ffffffffffffffffffffffffffffffffffffffff1660601b815250505062000106565b6000815190506200008681620000ec565b92915050565b6000602082840312156200009f57600080fd5b6000620000af8482850162000075565b91505092915050565b6000620000c582620000cc565b9050919050565b600073ffffffffffffffffffffffffffffffffffffffff82169050919050565b620000f781620000b8565b81146200010357600080fd5b50565b60805160601c61179a6200012c6000396000818161044501526109e3015261179a6000f3fe608060405234801561001057600080fd5b506004361061009e5760003560e01c806372aea5701161006657806372aea570146101945780637409b9ec146101c45780638a17aec9146101f5578063b62654fb14610225578063c9ceea76146102435761009e565b80631974f845146100a35780631e87f20e146100d35780632c157d19146101035780632f83ff0c146101335780634457a39f14610164575b600080fd5b6100bd60048036038101906100b89190610f69565b610274565b6040516100ca91906112b3565b60405180910390f35b6100ed60048036038101906100e891906110f2565b6102a7565b6040516100fa91906112b3565b60405180910390f35b61011d60048036038101906101189190610f69565b6102f0565b60405161012a91906112b3565b60405180910390f35b61014d600480360381019061014891906110ad565b610323565b60405161015b929190611305565b60405180910390f35b61017e6004803603810190610179919061101d565b610344565b60405161018b9190611395565b60405180910390f35b6101ae60048036038101906101a99190610f69565b610370565b6040516101bb91906112b3565b60405180910390f35b6101de60048036038101906101d99190610fce565b610634565b6040516101ec929190611365565b60405180910390f35b61020f600480360381019061020a91906110f2565b610998565b60405161021c91906112b3565b60405180910390f35b61022d6109e1565b60405161023a91906112b3565b60405180910390f35b61025d6004803603810190610258919061101d565b610a05565b60405161026b929190611365565b60405180910390f35b60016020528060005260406000206000915054906101000a900473ffffffffffffffffffffffffffffffffffffffff1681565b6003818051602081018201805184825260208301602085012081835280955050505050506000915054906101000a900473ffffffffffffffffffffffffffffffffffffffff1681565b60006020528060005260406000206000915054906101000a900473ffffffffffffffffffffffffffffffffffffffff1681565b60008083838101906103359190610f92565b80925081935050509250929050565b60608282604051602001610359929190611305565b604051602081830303815290604052905092915050565b60008073ffffffffffffffffffffffffffffffffffffffff166000808473ffffffffffffffffffffffffffffffffffffffff1673ffffffffffffffffffffffffffffffffffffffff16815260200190815260200160002060009054906101000a900473ffffffffffffffffffffffffffffffffffffffff1673ffffffffffffffffffffffffffffffffffffffff161461043e576040517f08c379a000000000000000000000000000000000000000000000000000000000815260040161043590611457565b60405180910390fd5b60006104697f0000000000000000000000000000000000000000000000000000000000000000610d26565b90508073ffffffffffffffffffffffffffffffffffffffff166319ab453c846040518263ffffffff1660e01b81526004016104a491906112b3565b600060405180830381600087803b1580156104be57600080fd5b505af11580156104d2573d6000803e3d6000fd5b50505050806000808573ffffffffffffffffffffffffffffffffffffffff1673ffffffffffffffffffffffffffffffffffffffff16815260200190815260200160002060006101000a81548173ffffffffffffffffffffffffffffffffffffffff021916908373ffffffffffffffffffffffffffffffffffffffff16021790555082600160008373ffffffffffffffffffffffffffffffffffffffff1673ffffffffffffffffffffffffffffffffffffffff16815260200190815260200160002060006101000a81548173ffffffffffffffffffffffffffffffffffffffff021916908373ffffffffffffffffffffffffffffffffffffffff1602179055508073ffffffffffffffffffffffffffffffffffffffff168373ffffffffffffffffffffffffffffffffffffffff167fc9c1da85374d40f21fe6aa2c3d2a15674a15de248a7713deaa981df3452eddcf60405160405180910390a380915050919050565b60006060600073ffffffffffffffffffffffffffffffffffffffff16600160008773ffffffffffffffffffffffffffffffffffffffff1673ffffffffffffffffffffffffffffffffffffffff16815260200190815260200160002060009054906101000a900473ffffffffffffffffffffffffffffffffffffffff1673ffffffffffffffffffffffffffffffffffffffff161415610707576040517f08c379a00000000000000000000000000000000000000000000000000000000081526004016106fe90611417565b60405180910390fd5b6000848460405160200161071c929190611305565b60405160208183030381529060405290508560028260405161073e919061129c565b908152602001604051809103902060006101000a81548173ffffffffffffffffffffffffffffffffffffffff021916908373ffffffffffffffffffffffffffffffffffffffff1602179055503360038260405161079b919061129c565b908152602001604051809103902060006101000a81548173ffffffffffffffffffffffffffffffffffffffff021916908373ffffffffffffffffffffffffffffffffffffffff1602179055508473ffffffffffffffffffffffffffffffffffffffff16338786604051602401610813939291906112ce565b6040516020818303038152906040527f42842e0e000000000000000000000000000000000000000000000000000000007bffffffffffffffffffffffffffffffffffffffffffffffffffffffff19166020820180517bffffffffffffffffffffffffffffffffffffffffffffffffffffffff838183161783525050505060405161089d919061129c565b6000604051808303816000865af19150503d80600081146108da576040519150601f19603f3d011682016040523d82523d6000602084013e6108df565b606091505b5080935081945050508573ffffffffffffffffffffffffffffffffffffffff163373ffffffffffffffffffffffffffffffffffffffff167fa4af90483af2c59d24693408535825150914db88c20221d618cf8ae503326f6f8787604051610947929190611305565b60405180910390a38261098f576040517f08c379a000000000000000000000000000000000000000000000000000000000815260040161098690611437565b60405180910390fd5b50935093915050565b6002818051602081018201805184825260208301602085012081835280955050505050506000915054906101000a900473ffffffffffffffffffffffffffffffffffffffff1681565b7f000000000000000000000000000000000000000000000000000000000000000081565b6000606060008484604051602001610a1e929190611305565b60405160208183030381529060405290506000600282604051610a41919061129c565b908152602001604051809103902060009054906101000a900473ffffffffffffffffffffffffffffffffffffffff1690503373ffffffffffffffffffffffffffffffffffffffff16600383604051610a99919061129c565b908152602001604051809103902060009054906101000a900473ffffffffffffffffffffffffffffffffffffffff1673ffffffffffffffffffffffffffffffffffffffff1614610b1e576040517f08c379a0000000000000000000000000000000000000000000000000000000008152600401610b15906113f7565b60405180910390fd5b6000600283604051610b30919061129c565b908152602001604051809103902060006101000a81548173ffffffffffffffffffffffffffffffffffffffff021916908373ffffffffffffffffffffffffffffffffffffffff1602179055506000600383604051610b8e919061129c565b908152602001604051809103902060006101000a81548173ffffffffffffffffffffffffffffffffffffffff021916908373ffffffffffffffffffffffffffffffffffffffff1602179055508073ffffffffffffffffffffffffffffffffffffffff1663aef6e2678787336040518463ffffffff1660e01b8152600401610c179392919061132e565b600060405180830381600087803b158015610c3157600080fd5b505af1158015610c45573d6000803e3d6000fd5b505050506040513d6000823e3d601f19601f82011682018060405250810190610c6e9190611059565b80945081955050508073ffffffffffffffffffffffffffffffffffffffff163373ffffffffffffffffffffffffffffffffffffffff167f02984d72263e55f9e6ae5957433f6623d0e094eb8dc7e90621042c089b9b71a48888604051610cd5929190611305565b60405180910390a383610d1d576040517f08c379a0000000000000000000000000000000000000000000000000000000008152600401610d14906113d7565b60405180910390fd5b50509250929050565b60006040517f3d602d80600a3d3981f3363d3d373d3d3d363d7300000000000000000000000081528260601b60148201527f5af43d82803e903d91602b57fd5bf3000000000000000000000000000000000060288201526037816000f0915050600073ffffffffffffffffffffffffffffffffffffffff168173ffffffffffffffffffffffffffffffffffffffff161415610df6576040517f08c379a0000000000000000000000000000000000000000000000000000000008152600401610ded906113b7565b60405180910390fd5b919050565b6000610e0e610e098461149c565b611477565b905082815260208101848484011115610e2657600080fd5b610e3184828561155f565b509392505050565b6000610e4c610e478461149c565b611477565b905082815260208101848484011115610e6457600080fd5b610e6f84828561156e565b509392505050565b600081359050610e8681611708565b92915050565b600081359050610e9b8161171f565b92915050565b600081519050610eb081611736565b92915050565b60008083601f840112610ec857600080fd5b8235905067ffffffffffffffff811115610ee157600080fd5b602083019150836001820283011115610ef957600080fd5b9250929050565b600082601f830112610f1157600080fd5b8135610f21848260208601610dfb565b91505092915050565b600082601f830112610f3b57600080fd5b8151610f4b848260208601610e39565b91505092915050565b600081359050610f638161174d565b92915050565b600060208284031215610f7b57600080fd5b6000610f8984828501610e77565b91505092915050565b60008060408385031215610fa557600080fd5b6000610fb385828601610e8c565b9250506020610fc485828601610f54565b9150509250929050565b600080600060608486031215610fe357600080fd5b6000610ff186828701610e77565b935050602061100286828701610e77565b925050604061101386828701610f54565b9150509250925092565b6000806040838503121561103057600080fd5b600061103e85828601610e77565b925050602061104f85828601610f54565b9150509250929050565b6000806040838503121561106c57600080fd5b600061107a85828601610ea1565b925050602083015167ffffffffffffffff81111561109757600080fd5b6110a385828601610f2a565b9150509250929050565b600080602083850312156110c057600080fd5b600083013567ffffffffffffffff8111156110da57600080fd5b6110e685828601610eb6565b92509250509250929050565b60006020828403121561110457600080fd5b600082013567ffffffffffffffff81111561111e57600080fd5b61112a84828501610f00565b91505092915050565b61113c81611505565b82525050565b61114b81611529565b82525050565b600061115c826114cd565b61116681856114d8565b935061117681856020860161156e565b61117f81611601565b840191505092915050565b6000611195826114cd565b61119f81856114e9565b93506111af81856020860161156e565b80840191505092915050565b60006111c86016836114f4565b91506111d382611612565b602082019050919050565b60006111eb6011836114f4565b91506111f68261163b565b602082019050919050565b600061120e6015836114f4565b915061121982611664565b602082019050919050565b6000611231600f836114f4565b915061123c8261168d565b602082019050919050565b6000611254600b836114f4565b915061125f826116b6565b602082019050919050565b6000611277601c836114f4565b9150611282826116df565b602082019050919050565b61129681611555565b82525050565b60006112a8828461118a565b915081905092915050565b60006020820190506112c86000830184611133565b92915050565b60006060820190506112e36000830186611133565b6112f06020830185611133565b6112fd604083018461128d565b949350505050565b600060408201905061131a6000830185611133565b611327602083018461128d565b9392505050565b60006060820190506113436000830186611133565b611350602083018561128d565b61135d6040830184611133565b949350505050565b600060408201905061137a6000830185611142565b818103602083015261138c8184611151565b90509392505050565b600060208201905081810360008301526113af8184611151565b905092915050565b600060208201905081810360008301526113d0816111bb565b9050919050565b600060208201905081810360008301526113f0816111de565b9050919050565b6000602082019050818103600083015261141081611201565b9050919050565b6000602082019050818103600083015261143081611224565b9050919050565b6000602082019050818103600083015261145081611247565b9050919050565b600060208201905081810360008301526114708161126a565b9050919050565b6000611481611492565b905061148d82826115a1565b919050565b6000604051905090565b600067ffffffffffffffff8211156114b7576114b66115d2565b5b6114c082611601565b9050602081019050919050565b600081519050919050565b600082825260208201905092915050565b600081905092915050565b600082825260208201905092915050565b600061151082611535565b9050919050565b600061152282611535565b9050919050565b60008115159050919050565b600073ffffffffffffffffffffffffffffffffffffffff82169050919050565b6000819050919050565b82818337600083830152505050565b60005b8381101561158c578082015181840152602081019050611571565b8381111561159b576000848401525b50505050565b6115aa82611601565b810181811067ffffffffffffffff821117156115c9576115c86115d2565b5b80604052505050565b7f4e487b7100000000000000000000000000000000000000000000000000000000600052604160045260246000fd5b6000601f19601f8301169050919050565b7f455243313136373a20637265617465206661696c656400000000000000000000600082015250565b7f63616c6c732063616c6c206661696c6564000000000000000000000000000000600082015250565b7f63616c6c6572206d757374206265206c656e6465720000000000000000000000600082015250565b7f6e6f2073756d6d6f6e20666f756e640000000000000000000000000000000000600082015250565b7f63616c6c206661696c6564000000000000000000000000000000000000000000600082015250565b7f6164647265737320616c72656164792068617320612053756d6d6f6e00000000600082015250565b61171181611505565b811461171c57600080fd5b50565b61172881611517565b811461173357600080fd5b50565b61173f81611529565b811461174a57600080fd5b50565b61175681611555565b811461176157600080fd5b5056fea264697066735822122031aa8afd41161ce6f5598aad3d0038a85f707535001c454747a18dd047512f4464736f6c63430008040033",
  "linkReferences": {},
  "deployedLinkReferences": {}
}