{
  "_format": "hh-sol-artifact-1",
  "contractName": "SummonManager",
  "sourceName": "contracts/SummonMoonBirds/SummonBirdsManager.sol",
  "abi": [
    {
      "inputs": [
        {
          "internalType": "address",
          "name": "_singleton",
          "type": "address"
        },
        {
          "internalType": "address",
          "name": "_MOONBIRDS_ADDRESS",
          "type": "address"
        }
      ],
      "stateMutability": "nonpayable",
      "type": "constructor"
    },
    {
      "anonymous": false,
      "inputs": [
        {
          "indexed": true,
          "internalType": "address",
          "name": "owner",
          "type": "address"
        },
        {
          "indexed": true,
          "internalType": "address",
          "name": "summonAddress",
          "type": "address"
        }
      ],
      "name": "SummonCreated",
      "type": "event"
    },
    {
      "anonymous": false,
      "inputs": [
        {
          "indexed": true,
          "internalType": "address",
          "name": "lender",
          "type": "address"
        },
        {
          "indexed": true,
          "internalType": "address",
          "name": "summon",
          "type": "address"
        },
        {
          "indexed": false,
          "internalType": "address",
          "name": "tokenAddress",
          "type": "address"
        },
        {
          "indexed": false,
          "internalType": "uint256",
          "name": "tokenId",
          "type": "uint256"
        }
      ],
      "name": "TokenLendedFrom",
      "type": "event"
    },
    {
      "anonymous": false,
      "inputs": [
        {
          "indexed": true,
          "internalType": "address",
          "name": "lender",
          "type": "address"
        },
        {
          "indexed": true,
          "internalType": "address",
          "name": "summon",
          "type": "address"
        },
        {
          "indexed": false,
          "internalType": "address",
          "name": "tokenAddress",
          "type": "address"
        },
        {
          "indexed": false,
          "internalType": "uint256",
          "name": "tokenId",
          "type": "uint256"
        }
      ],
      "name": "TokenWithdrawnTo",
      "type": "event"
    },
    {
      "inputs": [
        {
          "internalType": "address",
          "name": "_owner",
          "type": "address"
        }
      ],
      "name": "CreateNewSummon",
      "outputs": [
        {
          "internalType": "address",
          "name": "",
          "type": "address"
        }
      ],
      "stateMutability": "nonpayable",
      "type": "function"
    },
    {
      "inputs": [
        {
          "internalType": "bytes",
          "name": "",
          "type": "bytes"
        }
      ],
      "name": "EncodedTokenToLender",
      "outputs": [
        {
          "internalType": "address",
          "name": "",
          "type": "address"
        }
      ],
      "stateMutability": "view",
      "type": "function"
    },
    {
      "inputs": [
        {
          "internalType": "bytes",
          "name": "",
          "type": "bytes"
        }
      ],
      "name": "EncodedTokenToSummon",
      "outputs": [
        {
          "internalType": "address",
          "name": "",
          "type": "address"
        }
      ],
      "stateMutability": "view",
      "type": "function"
    },
    {
      "inputs": [],
      "name": "MOONBIRDS_ADDRESS",
      "outputs": [
        {
          "internalType": "address",
          "name": "",
          "type": "address"
        }
      ],
      "stateMutability": "view",
      "type": "function"
    },
    {
      "inputs": [],
      "name": "NAME",
      "outputs": [
        {
          "internalType": "string",
          "name": "",
          "type": "string"
        }
      ],
      "stateMutability": "view",
      "type": "function"
    },
    {
      "inputs": [
        {
          "internalType": "address",
          "name": "",
          "type": "address"
        }
      ],
      "name": "OwnerToSummonAddress",
      "outputs": [
        {
          "internalType": "address",
          "name": "",
          "type": "address"
        }
      ],
      "stateMutability": "view",
      "type": "function"
    },
    {
      "inputs": [
        {
          "internalType": "address",
          "name": "",
          "type": "address"
        }
      ],
      "name": "SummonAddressToOwner",
      "outputs": [
        {
          "internalType": "address",
          "name": "",
          "type": "address"
        }
      ],
      "stateMutability": "view",
      "type": "function"
    },
    {
      "inputs": [],
      "name": "VERSION",
      "outputs": [
        {
          "internalType": "string",
          "name": "",
          "type": "string"
        }
      ],
      "stateMutability": "view",
      "type": "function"
    },
    {
      "inputs": [
        {
          "internalType": "bytes",
          "name": "_encodedToken",
          "type": "bytes"
        }
      ],
      "name": "getDecodedToken",
      "outputs": [
        {
          "internalType": "address",
          "name": "tokenAddress",
          "type": "address"
        },
        {
          "internalType": "uint256",
          "name": "tokenId",
          "type": "uint256"
        }
      ],
      "stateMutability": "pure",
      "type": "function"
    },
    {
      "inputs": [
        {
          "internalType": "address",
          "name": "tokenAddress",
          "type": "address"
        },
        {
          "internalType": "uint256",
          "name": "tokenId",
          "type": "uint256"
        }
      ],
      "name": "getEncodedToken",
      "outputs": [
        {
          "internalType": "bytes",
          "name": "encodedToken",
          "type": "bytes"
        }
      ],
      "stateMutability": "pure",
      "type": "function"
    },
    {
      "inputs": [
        {
          "internalType": "address",
          "name": "borrower",
          "type": "address"
        },
        {
          "internalType": "address",
          "name": "tokenAddress",
          "type": "address"
        },
        {
          "internalType": "uint256",
          "name": "tokenId",
          "type": "uint256"
        }
      ],
      "name": "lendTokenToBorrower",
      "outputs": [
        {
          "internalType": "bool",
          "name": "success",
          "type": "bool"
        },
        {
          "internalType": "bytes",
          "name": "data",
          "type": "bytes"
        }
      ],
      "stateMutability": "nonpayable",
      "type": "function"
    },
    {
      "inputs": [
        {
          "internalType": "address",
          "name": "",
          "type": "address"
        },
        {
          "internalType": "address",
          "name": "",
          "type": "address"
        },
        {
          "internalType": "uint256[]",
          "name": "",
          "type": "uint256[]"
        },
        {
          "internalType": "uint256[]",
          "name": "",
          "type": "uint256[]"
        },
        {
          "internalType": "bytes",
          "name": "",
          "type": "bytes"
        }
      ],
      "name": "onERC1155BatchReceived",
      "outputs": [
        {
          "internalType": "bytes4",
          "name": "",
          "type": "bytes4"
        }
      ],
      "stateMutability": "pure",
      "type": "function"
    },
    {
      "inputs": [
        {
          "internalType": "address",
          "name": "",
          "type": "address"
        },
        {
          "internalType": "address",
          "name": "",
          "type": "address"
        },
        {
          "internalType": "uint256",
          "name": "",
          "type": "uint256"
        },
        {
          "internalType": "uint256",
          "name": "",
          "type": "uint256"
        },
        {
          "internalType": "bytes",
          "name": "",
          "type": "bytes"
        }
      ],
      "name": "onERC1155Received",
      "outputs": [
        {
          "internalType": "bytes4",
          "name": "",
          "type": "bytes4"
        }
      ],
      "stateMutability": "pure",
      "type": "function"
    },
    {
      "inputs": [
        {
          "internalType": "address",
          "name": "",
          "type": "address"
        },
        {
          "internalType": "address",
          "name": "",
          "type": "address"
        },
        {
          "internalType": "uint256",
          "name": "",
          "type": "uint256"
        },
        {
          "internalType": "bytes",
          "name": "",
          "type": "bytes"
        }
      ],
      "name": "onERC721Received",
      "outputs": [
        {
          "internalType": "bytes4",
          "name": "",
          "type": "bytes4"
        }
      ],
      "stateMutability": "pure",
      "type": "function"
    },
    {
      "inputs": [
        {
          "internalType": "bytes32",
          "name": "_ethSignedMessageHash",
          "type": "bytes32"
        },
        {
          "internalType": "bytes",
          "name": "_signature",
          "type": "bytes"
        }
      ],
      "name": "recoverSigner",
      "outputs": [
        {
          "internalType": "address",
          "name": "",
          "type": "address"
        }
      ],
      "stateMutability": "pure",
      "type": "function"
    },
    {
      "inputs": [],
      "name": "singleton",
      "outputs": [
        {
          "internalType": "address",
          "name": "",
          "type": "address"
        }
      ],
      "stateMutability": "view",
      "type": "function"
    },
    {
      "inputs": [
        {
          "internalType": "bytes",
          "name": "sig",
          "type": "bytes"
        }
      ],
      "name": "splitSignature",
      "outputs": [
        {
          "internalType": "bytes32",
          "name": "r",
          "type": "bytes32"
        },
        {
          "internalType": "bytes32",
          "name": "s",
          "type": "bytes32"
        },
        {
          "internalType": "uint8",
          "name": "v",
          "type": "uint8"
        }
      ],
      "stateMutability": "pure",
      "type": "function"
    },
    {
      "inputs": [
        {
          "internalType": "bytes4",
          "name": "interfaceId",
          "type": "bytes4"
        }
      ],
      "name": "supportsInterface",
      "outputs": [
        {
          "internalType": "bool",
          "name": "",
          "type": "bool"
        }
      ],
      "stateMutability": "view",
      "type": "function"
    },
    {
      "inputs": [
        {
          "internalType": "address",
          "name": "",
          "type": "address"
        },
        {
          "internalType": "address",
          "name": "",
          "type": "address"
        },
        {
          "internalType": "address",
          "name": "",
          "type": "address"
        },
        {
          "internalType": "uint256",
          "name": "",
          "type": "uint256"
        },
        {
          "internalType": "bytes",
          "name": "",
          "type": "bytes"
        },
        {
          "internalType": "bytes",
          "name": "",
          "type": "bytes"
        }
      ],
      "name": "tokensReceived",
      "outputs": [],
      "stateMutability": "pure",
      "type": "function"
    },
    {
      "inputs": [
        {
          "internalType": "address",
          "name": "tokenAddress",
          "type": "address"
        },
        {
          "internalType": "uint256",
          "name": "tokenId",
          "type": "uint256"
        }
      ],
      "name": "withdrawTokenFromSummon",
      "outputs": [
        {
          "internalType": "bool",
          "name": "success",
          "type": "bool"
        },
        {
          "internalType": "bytes",
          "name": "data",
          "type": "bytes"
        }
      ],
      "stateMutability": "nonpayable",
      "type": "function"
    }
  ],
  "bytecode": "0x60c06040523480156200001157600080fd5b50604051620026ea380380620026ea8339818101604052810190620000379190620000c4565b8173ffffffffffffffffffffffffffffffffffffffff1660808173ffffffffffffffffffffffffffffffffffffffff1660601b815250508073ffffffffffffffffffffffffffffffffffffffff1660a08173ffffffffffffffffffffffffffffffffffffffff1660601b81525050505062000153565b600081519050620000be8162000139565b92915050565b60008060408385031215620000d857600080fd5b6000620000e885828601620000ad565b9250506020620000fb85828601620000ad565b9150509250929050565b6000620001128262000119565b9050919050565b600073ffffffffffffffffffffffffffffffffffffffff82169050919050565b620001448162000105565b81146200015057600080fd5b50565b60805160601c60a05160601c61255d6200018d60003960008181610d1e0152611437015260008181610cd90152611045015261255d6000f3fe608060405234801561001057600080fd5b506004361061012a5760003560e01c80638a17aec9116100ad578063bc197c8111610071578063bc197c81146103cb578063c9ceea76146103fb578063e6e744981461042c578063f23a6e611461044a578063ffa1ad741461047a5761012a565b80638a17aec9146102fd57806397aba7f91461032d578063a3f4df7e1461035d578063a7bb58031461037b578063b62654fb146103ad5761012a565b80631e87f20e116100f45780631e87f20e1461020c5780632c157d191461023c5780632f83ff0c1461026c5780634457a39f1461029d57806372aea570146102cd5761012a565b80620145961461012f57806223de291461016057806301ffc9a71461017c578063150b7a02146101ac5780631974f845146101dc575b600080fd5b61014960048036038101906101449190611991565b610498565b604051610157929190611f84565b60405180910390f35b61017a60048036038101906101759190611802565b6109af565b005b61019660048036038101906101919190611bd6565b6109b9565b6040516101a39190611f69565b60405180910390f35b6101c660048036038101906101c191906119e0565b610af3565b6040516101d39190612030565b60405180910390f35b6101f660048036038101906101f19190611774565b610b08565b6040516102039190611e8e565b60405180910390f35b61022660048036038101906102219190611c44565b610b3b565b6040516102339190611e8e565b60405180910390f35b61025660048036038101906102519190611774565b610b84565b6040516102639190611e8e565b60405180910390f35b61028660048036038101906102819190611bff565b610bb7565b604051610294929190611f09565b60405180910390f35b6102b760048036038101906102b29190611af2565b610bd8565b6040516102c4919061204b565b60405180910390f35b6102e760048036038101906102e29190611774565b610c04565b6040516102f49190611e8e565b60405180910390f35b61031760048036038101906103129190611c44565b610eea565b6040516103249190611e8e565b60405180910390f35b61034760048036038101906103429190611b82565b610f33565b6040516103549190611e8e565b60405180910390f35b610365610fa2565b604051610372919061206d565b60405180910390f35b61039560048036038101906103909190611c44565b610fdb565b6040516103a493929190611fb4565b60405180910390f35b6103b5611043565b6040516103c29190611e8e565b60405180910390f35b6103e560048036038101906103e091906118c5565b611067565b6040516103f29190612030565b60405180910390f35b61041560048036038101906104109190611af2565b61107f565b604051610423929190611f84565b60405180910390f35b610434611435565b6040516104419190611e8e565b60405180910390f35b610464600480360381019061045f9190611a60565b611459565b6040516104719190612030565b60405180910390f35b61048261146f565b60405161048f919061206d565b60405180910390f35b60006060600073ffffffffffffffffffffffffffffffffffffffff166000808773ffffffffffffffffffffffffffffffffffffffff1673ffffffffffffffffffffffffffffffffffffffff16815260200190815260200160002060009054906101000a900473ffffffffffffffffffffffffffffffffffffffff1673ffffffffffffffffffffffffffffffffffffffff1614801561064957503073ffffffffffffffffffffffffffffffffffffffff166372aea570866040518263ffffffff1660e01b815260040161056a9190611e8e565b602060405180830381600087803b15801561058457600080fd5b505af1158015610598573d6000803e3d6000fd5b505050506040513d601f19601f820116820180604052508101906105bc919061179d565b73ffffffffffffffffffffffffffffffffffffffff166000808773ffffffffffffffffffffffffffffffffffffffff1673ffffffffffffffffffffffffffffffffffffffff16815260200190815260200160002060009054906101000a900473ffffffffffffffffffffffffffffffffffffffff1673ffffffffffffffffffffffffffffffffffffffff16145b5060008060008773ffffffffffffffffffffffffffffffffffffffff1673ffffffffffffffffffffffffffffffffffffffff16815260200190815260200160002060009054906101000a900473ffffffffffffffffffffffffffffffffffffffff169050600073ffffffffffffffffffffffffffffffffffffffff168173ffffffffffffffffffffffffffffffffffffffff16141561071d576040517f08c379a00000000000000000000000000000000000000000000000000000000081526004016107149061214f565b60405180910390fd5b60008585604051602001610732929190611f09565b6040516020818303038152906040529050816002826040516107549190611e77565b908152602001604051809103902060006101000a81548173ffffffffffffffffffffffffffffffffffffffff021916908373ffffffffffffffffffffffffffffffffffffffff160217905550336003826040516107b19190611e77565b908152602001604051809103902060006101000a81548173ffffffffffffffffffffffffffffffffffffffff021916908373ffffffffffffffffffffffffffffffffffffffff1602179055508573ffffffffffffffffffffffffffffffffffffffff1633838760405160240161082993929190611ed2565b6040516020818303038152906040527f42842e0e000000000000000000000000000000000000000000000000000000007bffffffffffffffffffffffffffffffffffffffffffffffffffffffff19166020820180517bffffffffffffffffffffffffffffffffffffffffffffffffffffffff83818316178352505050506040516108b39190611e77565b6000604051808303816000865af19150503d80600081146108f0576040519150601f19603f3d011682016040523d82523d6000602084013e6108f5565b606091505b5080945081955050508173ffffffffffffffffffffffffffffffffffffffff163373ffffffffffffffffffffffffffffffffffffffff167fa4af90483af2c59d24693408535825150914db88c20221d618cf8ae503326f6f888860405161095d929190611f09565b60405180910390a3836109a5576040517f08c379a000000000000000000000000000000000000000000000000000000000815260040161099c906120ef565b60405180910390fd5b5050935093915050565b5050505050505050565b60007f4e2312e0000000000000000000000000000000000000000000000000000000007bffffffffffffffffffffffffffffffffffffffffffffffffffffffff1916827bffffffffffffffffffffffffffffffffffffffffffffffffffffffff19161480610a8457507f150b7a02000000000000000000000000000000000000000000000000000000007bffffffffffffffffffffffffffffffffffffffffffffffffffffffff1916827bffffffffffffffffffffffffffffffffffffffffffffffffffffffff1916145b80610aec57507f01ffc9a7000000000000000000000000000000000000000000000000000000007bffffffffffffffffffffffffffffffffffffffffffffffffffffffff1916827bffffffffffffffffffffffffffffffffffffffffffffffffffffffff1916145b9050919050565b600063150b7a0260e01b905095945050505050565b60016020528060005260406000206000915054906101000a900473ffffffffffffffffffffffffffffffffffffffff1681565b6003818051602081018201805184825260208301602085012081835280955050505050506000915054906101000a900473ffffffffffffffffffffffffffffffffffffffff1681565b60006020528060005260406000206000915054906101000a900473ffffffffffffffffffffffffffffffffffffffff1681565b6000808383810190610bc991906117c6565b80925081935050509250929050565b60608282604051602001610bed929190611f09565b604051602081830303815290604052905092915050565b60008073ffffffffffffffffffffffffffffffffffffffff166000808473ffffffffffffffffffffffffffffffffffffffff1673ffffffffffffffffffffffffffffffffffffffff16815260200190815260200160002060009054906101000a900473ffffffffffffffffffffffffffffffffffffffff1673ffffffffffffffffffffffffffffffffffffffff1614610cd2576040517f08c379a0000000000000000000000000000000000000000000000000000000008152600401610cc99061210f565b60405180910390fd5b6000610cfd7f00000000000000000000000000000000000000000000000000000000000000006114a8565b90508073ffffffffffffffffffffffffffffffffffffffff1663f09a4016847f00000000000000000000000000000000000000000000000000000000000000006040518363ffffffff1660e01b8152600401610d5a929190611ea9565b600060405180830381600087803b158015610d7457600080fd5b505af1158015610d88573d6000803e3d6000fd5b50505050806000808573ffffffffffffffffffffffffffffffffffffffff1673ffffffffffffffffffffffffffffffffffffffff16815260200190815260200160002060006101000a81548173ffffffffffffffffffffffffffffffffffffffff021916908373ffffffffffffffffffffffffffffffffffffffff16021790555082600160008373ffffffffffffffffffffffffffffffffffffffff1673ffffffffffffffffffffffffffffffffffffffff16815260200190815260200160002060006101000a81548173ffffffffffffffffffffffffffffffffffffffff021916908373ffffffffffffffffffffffffffffffffffffffff1602179055508073ffffffffffffffffffffffffffffffffffffffff168373ffffffffffffffffffffffffffffffffffffffff167fc9c1da85374d40f21fe6aa2c3d2a15674a15de248a7713deaa981df3452eddcf60405160405180910390a380915050919050565b6002818051602081018201805184825260208301602085012081835280955050505050506000915054906101000a900473ffffffffffffffffffffffffffffffffffffffff1681565b600080600080610f4285610fdb565b92509250925060018682858560405160008152602001604052604051610f6b9493929190611feb565b6020604051602081039080840390855afa158015610f8d573d6000803e3d6000fd5b50505060206040510351935050505092915050565b6040518060400160405280601881526020017f44656661756c742043616c6c6261636b2048616e646c6572000000000000000081525081565b60008060006041845114611024576040517f08c379a000000000000000000000000000000000000000000000000000000000815260040161101b9061212f565b60405180910390fd5b6020840151925060408401519150606084015160001a90509193909250565b7f000000000000000000000000000000000000000000000000000000000000000081565b600063bc197c8160e01b905098975050505050505050565b6000606060008484604051602001611098929190611f09565b604051602081830303815290604052905060006002826040516110bb9190611e77565b908152602001604051809103902060009054906101000a900473ffffffffffffffffffffffffffffffffffffffff1690503373ffffffffffffffffffffffffffffffffffffffff166003836040516111139190611e77565b908152602001604051809103902060009054906101000a900473ffffffffffffffffffffffffffffffffffffffff1673ffffffffffffffffffffffffffffffffffffffff1614806111ee57503373ffffffffffffffffffffffffffffffffffffffff16600160008373ffffffffffffffffffffffffffffffffffffffff1673ffffffffffffffffffffffffffffffffffffffff16815260200190815260200160002060009054906101000a900473ffffffffffffffffffffffffffffffffffffffff1673ffffffffffffffffffffffffffffffffffffffff16145b61122d576040517f08c379a0000000000000000000000000000000000000000000000000000000008152600401611224906120cf565b60405180910390fd5b600060028360405161123f9190611e77565b908152602001604051809103902060006101000a81548173ffffffffffffffffffffffffffffffffffffffff021916908373ffffffffffffffffffffffffffffffffffffffff160217905550600060038360405161129d9190611e77565b908152602001604051809103902060006101000a81548173ffffffffffffffffffffffffffffffffffffffff021916908373ffffffffffffffffffffffffffffffffffffffff1602179055508073ffffffffffffffffffffffffffffffffffffffff1663aef6e2678787336040518463ffffffff1660e01b815260040161132693929190611f32565b600060405180830381600087803b15801561134057600080fd5b505af1158015611354573d6000803e3d6000fd5b505050506040513d6000823e3d601f19601f8201168201806040525081019061137d9190611b2e565b80945081955050508073ffffffffffffffffffffffffffffffffffffffff163373ffffffffffffffffffffffffffffffffffffffff167f02984d72263e55f9e6ae5957433f6623d0e094eb8dc7e90621042c089b9b71a488886040516113e4929190611f09565b60405180910390a38361142c576040517f08c379a0000000000000000000000000000000000000000000000000000000008152600401611423906120af565b60405180910390fd5b50509250929050565b7f000000000000000000000000000000000000000000000000000000000000000081565b600063f23a6e6160e01b90509695505050505050565b6040518060400160405280600581526020017f312e302e3000000000000000000000000000000000000000000000000000000081525081565b60006040517f3d602d80600a3d3981f3363d3d373d3d3d363d7300000000000000000000000081528260601b60148201527f5af43d82803e903d91602b57fd5bf3000000000000000000000000000000000060288201526037816000f0915050600073ffffffffffffffffffffffffffffffffffffffff168173ffffffffffffffffffffffffffffffffffffffff161415611578576040517f08c379a000000000000000000000000000000000000000000000000000000000815260040161156f9061208f565b60405180910390fd5b919050565b600061159061158b84612194565b61216f565b9050828152602081018484840111156115a857600080fd5b6115b38482856122a5565b509392505050565b60006115ce6115c984612194565b61216f565b9050828152602081018484840111156115e657600080fd5b6115f18482856122b4565b509392505050565b6000813590506116088161249d565b92915050565b60008151905061161d8161249d565b92915050565b600081359050611632816124b4565b92915050565b60008083601f84011261164a57600080fd5b8235905067ffffffffffffffff81111561166357600080fd5b60208301915083602082028301111561167b57600080fd5b9250929050565b600081519050611691816124cb565b92915050565b6000813590506116a6816124e2565b92915050565b6000813590506116bb816124f9565b92915050565b60008083601f8401126116d357600080fd5b8235905067ffffffffffffffff8111156116ec57600080fd5b60208301915083600182028301111561170457600080fd5b9250929050565b600082601f83011261171c57600080fd5b813561172c84826020860161157d565b91505092915050565b600082601f83011261174657600080fd5b81516117568482602086016115bb565b91505092915050565b60008135905061176e81612510565b92915050565b60006020828403121561178657600080fd5b6000611794848285016115f9565b91505092915050565b6000602082840312156117af57600080fd5b60006117bd8482850161160e565b91505092915050565b600080604083850312156117d957600080fd5b60006117e785828601611623565b92505060206117f88582860161175f565b9150509250929050565b60008060008060008060008060c0898b03121561181e57600080fd5b600061182c8b828c016115f9565b985050602061183d8b828c016115f9565b975050604061184e8b828c016115f9565b965050606061185f8b828c0161175f565b955050608089013567ffffffffffffffff81111561187c57600080fd5b6118888b828c016116c1565b945094505060a089013567ffffffffffffffff8111156118a757600080fd5b6118b38b828c016116c1565b92509250509295985092959890939650565b60008060008060008060008060a0898b0312156118e157600080fd5b60006118ef8b828c016115f9565b98505060206119008b828c016115f9565b975050604089013567ffffffffffffffff81111561191d57600080fd5b6119298b828c01611638565b9650965050606089013567ffffffffffffffff81111561194857600080fd5b6119548b828c01611638565b9450945050608089013567ffffffffffffffff81111561197357600080fd5b61197f8b828c016116c1565b92509250509295985092959890939650565b6000806000606084860312156119a657600080fd5b60006119b4868287016115f9565b93505060206119c5868287016115f9565b92505060406119d68682870161175f565b9150509250925092565b6000806000806000608086880312156119f857600080fd5b6000611a06888289016115f9565b9550506020611a17888289016115f9565b9450506040611a288882890161175f565b935050606086013567ffffffffffffffff811115611a4557600080fd5b611a51888289016116c1565b92509250509295509295909350565b60008060008060008060a08789031215611a7957600080fd5b6000611a8789828a016115f9565b9650506020611a9889828a016115f9565b9550506040611aa989828a0161175f565b9450506060611aba89828a0161175f565b935050608087013567ffffffffffffffff811115611ad757600080fd5b611ae389828a016116c1565b92509250509295509295509295565b60008060408385031215611b0557600080fd5b6000611b13858286016115f9565b9250506020611b248582860161175f565b9150509250929050565b60008060408385031215611b4157600080fd5b6000611b4f85828601611682565b925050602083015167ffffffffffffffff811115611b6c57600080fd5b611b7885828601611735565b9150509250929050565b60008060408385031215611b9557600080fd5b6000611ba385828601611697565b925050602083013567ffffffffffffffff811115611bc057600080fd5b611bcc8582860161170b565b9150509250929050565b600060208284031215611be857600080fd5b6000611bf6848285016116ac565b91505092915050565b60008060208385031215611c1257600080fd5b600083013567ffffffffffffffff811115611c2c57600080fd5b611c38858286016116c1565b92509250509250929050565b600060208284031215611c5657600080fd5b600082013567ffffffffffffffff811115611c7057600080fd5b611c7c8482850161170b565b91505092915050565b611c8e81612208565b82525050565b611c9d8161222c565b82525050565b611cac81612238565b82525050565b611cbb81612242565b82525050565b6000611ccc826121c5565b611cd681856121db565b9350611ce68185602086016122b4565b611cef81612347565b840191505092915050565b6000611d05826121c5565b611d0f81856121ec565b9350611d1f8185602086016122b4565b80840191505092915050565b6000611d36826121d0565b611d4081856121f7565b9350611d508185602086016122b4565b611d5981612347565b840191505092915050565b6000611d716016836121f7565b9150611d7c82612358565b602082019050919050565b6000611d946011836121f7565b9150611d9f82612381565b602082019050919050565b6000611db76025836121f7565b9150611dc2826123aa565b604082019050919050565b6000611dda600b836121f7565b9150611de5826123f9565b602082019050919050565b6000611dfd601c836121f7565b9150611e0882612422565b602082019050919050565b6000611e206018836121f7565b9150611e2b8261244b565b602082019050919050565b6000611e436014836121f7565b9150611e4e82612474565b602082019050919050565b611e628161228e565b82525050565b611e7181612298565b82525050565b6000611e838284611cfa565b915081905092915050565b6000602082019050611ea36000830184611c85565b92915050565b6000604082019050611ebe6000830185611c85565b611ecb6020830184611c85565b9392505050565b6000606082019050611ee76000830186611c85565b611ef46020830185611c85565b611f016040830184611e59565b949350505050565b6000604082019050611f1e6000830185611c85565b611f2b6020830184611e59565b9392505050565b6000606082019050611f476000830186611c85565b611f546020830185611e59565b611f616040830184611c85565b949350505050565b6000602082019050611f7e6000830184611c94565b92915050565b6000604082019050611f996000830185611c94565b8181036020830152611fab8184611cc1565b90509392505050565b6000606082019050611fc96000830186611ca3565b611fd66020830185611ca3565b611fe36040830184611e68565b949350505050565b60006080820190506120006000830187611ca3565b61200d6020830186611e68565b61201a6040830185611ca3565b6120276060830184611ca3565b95945050505050565b60006020820190506120456000830184611cb2565b92915050565b600060208201905081810360008301526120658184611cc1565b905092915050565b600060208201905081810360008301526120878184611d2b565b905092915050565b600060208201905081810360008301526120a881611d64565b9050919050565b600060208201905081810360008301526120c881611d87565b9050919050565b600060208201905081810360008301526120e881611daa565b9050919050565b6000602082019050818103600083015261210881611dcd565b9050919050565b6000602082019050818103600083015261212881611df0565b9050919050565b6000602082019050818103600083015261214881611e13565b9050919050565b6000602082019050818103600083015261216881611e36565b9050919050565b600061217961218a565b905061218582826122e7565b919050565b6000604051905090565b600067ffffffffffffffff8211156121af576121ae612318565b5b6121b882612347565b9050602081019050919050565b600081519050919050565b600081519050919050565b600082825260208201905092915050565b600081905092915050565b600082825260208201905092915050565b60006122138261226e565b9050919050565b60006122258261226e565b9050919050565b60008115159050919050565b6000819050919050565b60007fffffffff0000000000000000000000000000000000000000000000000000000082169050919050565b600073ffffffffffffffffffffffffffffffffffffffff82169050919050565b6000819050919050565b600060ff82169050919050565b82818337600083830152505050565b60005b838110156122d25780820151818401526020810190506122b7565b838111156122e1576000848401525b50505050565b6122f082612347565b810181811067ffffffffffffffff8211171561230f5761230e612318565b5b80604052505050565b7f4e487b7100000000000000000000000000000000000000000000000000000000600052604160045260246000fd5b6000601f19601f8301169050919050565b7f455243313136373a20637265617465206661696c656400000000000000000000600082015250565b7f63616c6c732063616c6c206661696c6564000000000000000000000000000000600082015250565b7f63616c6c6572206d757374206265206c656e646572206f722073756d6d6f6e2060008201527f6f776e6572000000000000000000000000000000000000000000000000000000602082015250565b7f63616c6c206661696c6564000000000000000000000000000000000000000000600082015250565b7f6164647265737320616c72656164792068617320612053756d6d6f6e00000000600082015250565b7f696e76616c6964207369676e6174757265206c656e6774680000000000000000600082015250565b7f736f6d657468696e672077656e742077726f6e67000000000000000000000000600082015250565b6124a681612208565b81146124b157600080fd5b50565b6124bd8161221a565b81146124c857600080fd5b50565b6124d48161222c565b81146124df57600080fd5b50565b6124eb81612238565b81146124f657600080fd5b50565b61250281612242565b811461250d57600080fd5b50565b6125198161228e565b811461252457600080fd5b5056fea264697066735822122020533636e490a9d451a45572716e42d8d5f362f8b6f7254a85a9b496a84b6f2964736f6c63430008040033",
  "linkReferences": {},
  "deployedLinkReferences": {}
}