{
  "_format": "hh-sol-artifact-1",
  "contractName": "SummonV2Manager",
  "sourceName": "contracts/SummonV2Manager.sol",
  "abi": [
    {
      "inputs": [
        {
          "internalType": "address",
          "name": "_singleton",
          "type": "address"
        }
      ],
      "stateMutability": "nonpayable",
      "type": "constructor"
    },
    {
      "anonymous": false,
      "inputs": [
        {
          "indexed": true,
          "internalType": "address",
          "name": "owner",
          "type": "address"
        },
        {
          "indexed": true,
          "internalType": "address",
          "name": "summonAddress",
          "type": "address"
        }
      ],
      "name": "SummonCreated",
      "type": "event"
    },
    {
      "anonymous": false,
      "inputs": [
        {
          "indexed": true,
          "internalType": "address",
          "name": "lender",
          "type": "address"
        },
        {
          "indexed": true,
          "internalType": "address",
          "name": "summon",
          "type": "address"
        },
        {
          "indexed": false,
          "internalType": "address",
          "name": "tokenAddress",
          "type": "address"
        },
        {
          "indexed": false,
          "internalType": "uint256",
          "name": "tokenId",
          "type": "uint256"
        }
      ],
      "name": "TokenLendedFrom",
      "type": "event"
    },
    {
      "anonymous": false,
      "inputs": [
        {
          "indexed": true,
          "internalType": "address",
          "name": "lender",
          "type": "address"
        },
        {
          "indexed": true,
          "internalType": "address",
          "name": "summon",
          "type": "address"
        },
        {
          "indexed": false,
          "internalType": "address",
          "name": "tokenAddress",
          "type": "address"
        },
        {
          "indexed": false,
          "internalType": "uint256",
          "name": "tokenId",
          "type": "uint256"
        }
      ],
      "name": "TokenWithdrawnTo",
      "type": "event"
    },
    {
      "inputs": [
        {
          "internalType": "address",
          "name": "_owner",
          "type": "address"
        }
      ],
      "name": "CreateNewSummon",
      "outputs": [
        {
          "internalType": "address",
          "name": "",
          "type": "address"
        }
      ],
      "stateMutability": "nonpayable",
      "type": "function"
    },
    {
      "inputs": [
        {
          "internalType": "bytes",
          "name": "",
          "type": "bytes"
        }
      ],
      "name": "EncodedTokenToLender",
      "outputs": [
        {
          "internalType": "address",
          "name": "",
          "type": "address"
        }
      ],
      "stateMutability": "view",
      "type": "function"
    },
    {
      "inputs": [
        {
          "internalType": "bytes",
          "name": "",
          "type": "bytes"
        }
      ],
      "name": "EncodedTokenToSummon",
      "outputs": [
        {
          "internalType": "address",
          "name": "",
          "type": "address"
        }
      ],
      "stateMutability": "view",
      "type": "function"
    },
    {
      "inputs": [
        {
          "internalType": "address",
          "name": "",
          "type": "address"
        }
      ],
      "name": "OwnerToSummonAddress",
      "outputs": [
        {
          "internalType": "address",
          "name": "",
          "type": "address"
        }
      ],
      "stateMutability": "view",
      "type": "function"
    },
    {
      "inputs": [
        {
          "internalType": "address",
          "name": "",
          "type": "address"
        }
      ],
      "name": "SummonAddressToOwner",
      "outputs": [
        {
          "internalType": "address",
          "name": "",
          "type": "address"
        }
      ],
      "stateMutability": "view",
      "type": "function"
    },
    {
      "inputs": [
        {
          "internalType": "bytes",
          "name": "_encodedToken",
          "type": "bytes"
        }
      ],
      "name": "getDecodedToken",
      "outputs": [
        {
          "internalType": "address",
          "name": "tokenAddress",
          "type": "address"
        },
        {
          "internalType": "uint256",
          "name": "tokenId",
          "type": "uint256"
        }
      ],
      "stateMutability": "pure",
      "type": "function"
    },
    {
      "inputs": [
        {
          "internalType": "address",
          "name": "tokenAddress",
          "type": "address"
        },
        {
          "internalType": "uint256",
          "name": "tokenId",
          "type": "uint256"
        }
      ],
      "name": "getEncodedToken",
      "outputs": [
        {
          "internalType": "bytes",
          "name": "encodedToken",
          "type": "bytes"
        }
      ],
      "stateMutability": "pure",
      "type": "function"
    },
    {
      "inputs": [
        {
          "internalType": "address",
          "name": "borrower",
          "type": "address"
        },
        {
          "internalType": "address",
          "name": "tokenAddress",
          "type": "address"
        },
        {
          "internalType": "uint256",
          "name": "tokenId",
          "type": "uint256"
        }
      ],
      "name": "lendTokenToBorrower",
      "outputs": [
        {
          "internalType": "bool",
          "name": "success",
          "type": "bool"
        },
        {
          "internalType": "bytes",
          "name": "data",
          "type": "bytes"
        }
      ],
      "stateMutability": "nonpayable",
      "type": "function"
    },
    {
      "inputs": [],
      "name": "singleton",
      "outputs": [
        {
          "internalType": "address",
          "name": "",
          "type": "address"
        }
      ],
      "stateMutability": "view",
      "type": "function"
    },
    {
      "inputs": [
        {
          "internalType": "address",
          "name": "tokenAddress",
          "type": "address"
        },
        {
          "internalType": "uint256",
          "name": "tokenId",
          "type": "uint256"
        }
      ],
      "name": "withdrawTokenFromSummon",
      "outputs": [
        {
          "internalType": "bool",
          "name": "success",
          "type": "bool"
        },
        {
          "internalType": "bytes",
          "name": "data",
          "type": "bytes"
        }
      ],
      "stateMutability": "nonpayable",
      "type": "function"
    }
  ],
  "bytecode": "0x60a06040523480156200001157600080fd5b5060405162001b7738038062001b7783398181016040528101906200003791906200008c565b8073ffffffffffffffffffffffffffffffffffffffff1660808173ffffffffffffffffffffffffffffffffffffffff1660601b815250505062000106565b6000815190506200008681620000ec565b92915050565b6000602082840312156200009f57600080fd5b6000620000af8482850162000075565b91505092915050565b6000620000c582620000cc565b9050919050565b600073ffffffffffffffffffffffffffffffffffffffff82169050919050565b620000f781620000b8565b81146200010357600080fd5b50565b60805160601c611a4b6200012c6000396000818161095b0152610b950152611a4b6000f3fe608060405234801561001057600080fd5b506004361061009d5760003560e01c80634457a39f116100665780634457a39f1461019457806372aea570146101c45780638a17aec9146101f4578063b62654fb14610224578063c9ceea76146102425761009d565b8062014596146100a25780631974f845146100d35780631e87f20e146101035780632c157d19146101335780632f83ff0c14610163575b600080fd5b6100bc60048036038101906100b79190611259565b610273565b6040516100ca9291906115f0565b60405180910390f35b6100ed60048036038101906100e891906111cb565b61078a565b6040516100fa919061153e565b60405180910390f35b61011d6004803603810190610118919061137d565b6107bd565b60405161012a919061153e565b60405180910390f35b61014d600480360381019061014891906111cb565b610806565b60405161015a919061153e565b60405180910390f35b61017d60048036038101906101789190611338565b610839565b60405161018b929190611590565b60405180910390f35b6101ae60048036038101906101a991906112a8565b61085a565b6040516101bb9190611620565b60405180910390f35b6101de60048036038101906101d991906111cb565b610886565b6040516101eb919061153e565b60405180910390f35b61020e6004803603810190610209919061137d565b610b4a565b60405161021b919061153e565b60405180910390f35b61022c610b93565b604051610239919061153e565b60405180910390f35b61025c600480360381019061025791906112a8565b610bb7565b60405161026a9291906115f0565b60405180910390f35b60006060600073ffffffffffffffffffffffffffffffffffffffff166000808773ffffffffffffffffffffffffffffffffffffffff1673ffffffffffffffffffffffffffffffffffffffff16815260200190815260200160002060009054906101000a900473ffffffffffffffffffffffffffffffffffffffff1673ffffffffffffffffffffffffffffffffffffffff1614801561042457503073ffffffffffffffffffffffffffffffffffffffff166372aea570866040518263ffffffff1660e01b8152600401610345919061153e565b602060405180830381600087803b15801561035f57600080fd5b505af1158015610373573d6000803e3d6000fd5b505050506040513d601f19601f8201168201806040525081019061039791906111f4565b73ffffffffffffffffffffffffffffffffffffffff166000808773ffffffffffffffffffffffffffffffffffffffff1673ffffffffffffffffffffffffffffffffffffffff16815260200190815260200160002060009054906101000a900473ffffffffffffffffffffffffffffffffffffffff1673ffffffffffffffffffffffffffffffffffffffff16145b5060008060008773ffffffffffffffffffffffffffffffffffffffff1673ffffffffffffffffffffffffffffffffffffffff16815260200190815260200160002060009054906101000a900473ffffffffffffffffffffffffffffffffffffffff169050600073ffffffffffffffffffffffffffffffffffffffff168173ffffffffffffffffffffffffffffffffffffffff1614156104f8576040517f08c379a00000000000000000000000000000000000000000000000000000000081526004016104ef906116e2565b60405180910390fd5b6000858560405160200161050d929190611590565b60405160208183030381529060405290508160028260405161052f9190611527565b908152602001604051809103902060006101000a81548173ffffffffffffffffffffffffffffffffffffffff021916908373ffffffffffffffffffffffffffffffffffffffff1602179055503360038260405161058c9190611527565b908152602001604051809103902060006101000a81548173ffffffffffffffffffffffffffffffffffffffff021916908373ffffffffffffffffffffffffffffffffffffffff1602179055508573ffffffffffffffffffffffffffffffffffffffff1633838760405160240161060493929190611559565b6040516020818303038152906040527f42842e0e000000000000000000000000000000000000000000000000000000007bffffffffffffffffffffffffffffffffffffffffffffffffffffffff19166020820180517bffffffffffffffffffffffffffffffffffffffffffffffffffffffff838183161783525050505060405161068e9190611527565b6000604051808303816000865af19150503d80600081146106cb576040519150601f19603f3d011682016040523d82523d6000602084013e6106d0565b606091505b5080945081955050508173ffffffffffffffffffffffffffffffffffffffff163373ffffffffffffffffffffffffffffffffffffffff167fa4af90483af2c59d24693408535825150914db88c20221d618cf8ae503326f6f8888604051610738929190611590565b60405180910390a383610780576040517f08c379a0000000000000000000000000000000000000000000000000000000008152600401610777906116a2565b60405180910390fd5b5050935093915050565b60016020528060005260406000206000915054906101000a900473ffffffffffffffffffffffffffffffffffffffff1681565b6003818051602081018201805184825260208301602085012081835280955050505050506000915054906101000a900473ffffffffffffffffffffffffffffffffffffffff1681565b60006020528060005260406000206000915054906101000a900473ffffffffffffffffffffffffffffffffffffffff1681565b600080838381019061084b919061121d565b80925081935050509250929050565b6060828260405160200161086f929190611590565b604051602081830303815290604052905092915050565b60008073ffffffffffffffffffffffffffffffffffffffff166000808473ffffffffffffffffffffffffffffffffffffffff1673ffffffffffffffffffffffffffffffffffffffff16815260200190815260200160002060009054906101000a900473ffffffffffffffffffffffffffffffffffffffff1673ffffffffffffffffffffffffffffffffffffffff1614610954576040517f08c379a000000000000000000000000000000000000000000000000000000000815260040161094b906116c2565b60405180910390fd5b600061097f7f0000000000000000000000000000000000000000000000000000000000000000610f73565b90508073ffffffffffffffffffffffffffffffffffffffff166319ab453c846040518263ffffffff1660e01b81526004016109ba919061153e565b600060405180830381600087803b1580156109d457600080fd5b505af11580156109e8573d6000803e3d6000fd5b50505050806000808573ffffffffffffffffffffffffffffffffffffffff1673ffffffffffffffffffffffffffffffffffffffff16815260200190815260200160002060006101000a81548173ffffffffffffffffffffffffffffffffffffffff021916908373ffffffffffffffffffffffffffffffffffffffff16021790555082600160008373ffffffffffffffffffffffffffffffffffffffff1673ffffffffffffffffffffffffffffffffffffffff16815260200190815260200160002060006101000a81548173ffffffffffffffffffffffffffffffffffffffff021916908373ffffffffffffffffffffffffffffffffffffffff1602179055508073ffffffffffffffffffffffffffffffffffffffff168373ffffffffffffffffffffffffffffffffffffffff167fc9c1da85374d40f21fe6aa2c3d2a15674a15de248a7713deaa981df3452eddcf60405160405180910390a380915050919050565b6002818051602081018201805184825260208301602085012081835280955050505050506000915054906101000a900473ffffffffffffffffffffffffffffffffffffffff1681565b7f000000000000000000000000000000000000000000000000000000000000000081565b6000606060008484604051602001610bd0929190611590565b60405160208183030381529060405290506000600282604051610bf39190611527565b908152602001604051809103902060009054906101000a900473ffffffffffffffffffffffffffffffffffffffff1690506000600383604051610c369190611527565b908152602001604051809103902060009054906101000a900473ffffffffffffffffffffffffffffffffffffffff1690503373ffffffffffffffffffffffffffffffffffffffff168173ffffffffffffffffffffffffffffffffffffffff161480610d2b57503373ffffffffffffffffffffffffffffffffffffffff16600160008473ffffffffffffffffffffffffffffffffffffffff1673ffffffffffffffffffffffffffffffffffffffff16815260200190815260200160002060009054906101000a900473ffffffffffffffffffffffffffffffffffffffff1673ffffffffffffffffffffffffffffffffffffffff16145b610d6a576040517f08c379a0000000000000000000000000000000000000000000000000000000008152600401610d6190611682565b60405180910390fd5b6000600284604051610d7c9190611527565b908152602001604051809103902060006101000a81548173ffffffffffffffffffffffffffffffffffffffff021916908373ffffffffffffffffffffffffffffffffffffffff1602179055506000600384604051610dda9190611527565b908152602001604051809103902060006101000a81548173ffffffffffffffffffffffffffffffffffffffff021916908373ffffffffffffffffffffffffffffffffffffffff1602179055508173ffffffffffffffffffffffffffffffffffffffff1663aef6e2678888846040518463ffffffff1660e01b8152600401610e63939291906115b9565b600060405180830381600087803b158015610e7d57600080fd5b505af1158015610e91573d6000803e3d6000fd5b505050506040513d6000823e3d601f19601f82011682018060405250810190610eba91906112e4565b80955081965050508173ffffffffffffffffffffffffffffffffffffffff168173ffffffffffffffffffffffffffffffffffffffff167f02984d72263e55f9e6ae5957433f6623d0e094eb8dc7e90621042c089b9b71a48989604051610f21929190611590565b60405180910390a384610f69576040517f08c379a0000000000000000000000000000000000000000000000000000000008152600401610f6090611662565b60405180910390fd5b5050509250929050565b60006040517f3d602d80600a3d3981f3363d3d373d3d3d363d7300000000000000000000000081528260601b60148201527f5af43d82803e903d91602b57fd5bf3000000000000000000000000000000000060288201526037816000f0915050600073ffffffffffffffffffffffffffffffffffffffff168173ffffffffffffffffffffffffffffffffffffffff161415611043576040517f08c379a000000000000000000000000000000000000000000000000000000000815260040161103a90611642565b60405180910390fd5b919050565b600061105b61105684611727565b611702565b90508281526020810184848401111561107357600080fd5b61107e8482856117ea565b509392505050565b600061109961109484611727565b611702565b9050828152602081018484840111156110b157600080fd5b6110bc8482856117f9565b509392505050565b6000813590506110d3816119b9565b92915050565b6000815190506110e8816119b9565b92915050565b6000813590506110fd816119d0565b92915050565b600081519050611112816119e7565b92915050565b60008083601f84011261112a57600080fd5b8235905067ffffffffffffffff81111561114357600080fd5b60208301915083600182028301111561115b57600080fd5b9250929050565b600082601f83011261117357600080fd5b8135611183848260208601611048565b91505092915050565b600082601f83011261119d57600080fd5b81516111ad848260208601611086565b91505092915050565b6000813590506111c5816119fe565b92915050565b6000602082840312156111dd57600080fd5b60006111eb848285016110c4565b91505092915050565b60006020828403121561120657600080fd5b6000611214848285016110d9565b91505092915050565b6000806040838503121561123057600080fd5b600061123e858286016110ee565b925050602061124f858286016111b6565b9150509250929050565b60008060006060848603121561126e57600080fd5b600061127c868287016110c4565b935050602061128d868287016110c4565b925050604061129e868287016111b6565b9150509250925092565b600080604083850312156112bb57600080fd5b60006112c9858286016110c4565b92505060206112da858286016111b6565b9150509250929050565b600080604083850312156112f757600080fd5b600061130585828601611103565b925050602083015167ffffffffffffffff81111561132257600080fd5b61132e8582860161118c565b9150509250929050565b6000806020838503121561134b57600080fd5b600083013567ffffffffffffffff81111561136557600080fd5b61137185828601611118565b92509250509250929050565b60006020828403121561138f57600080fd5b600082013567ffffffffffffffff8111156113a957600080fd5b6113b584828501611162565b91505092915050565b6113c781611790565b82525050565b6113d6816117b4565b82525050565b60006113e782611758565b6113f18185611763565b93506114018185602086016117f9565b61140a8161188c565b840191505092915050565b600061142082611758565b61142a8185611774565b935061143a8185602086016117f9565b80840191505092915050565b600061145360168361177f565b915061145e8261189d565b602082019050919050565b600061147660118361177f565b9150611481826118c6565b602082019050919050565b600061149960258361177f565b91506114a4826118ef565b604082019050919050565b60006114bc600b8361177f565b91506114c78261193e565b602082019050919050565b60006114df601c8361177f565b91506114ea82611967565b602082019050919050565b600061150260148361177f565b915061150d82611990565b602082019050919050565b611521816117e0565b82525050565b60006115338284611415565b915081905092915050565b600060208201905061155360008301846113be565b92915050565b600060608201905061156e60008301866113be565b61157b60208301856113be565b6115886040830184611518565b949350505050565b60006040820190506115a560008301856113be565b6115b26020830184611518565b9392505050565b60006060820190506115ce60008301866113be565b6115db6020830185611518565b6115e860408301846113be565b949350505050565b600060408201905061160560008301856113cd565b818103602083015261161781846113dc565b90509392505050565b6000602082019050818103600083015261163a81846113dc565b905092915050565b6000602082019050818103600083015261165b81611446565b9050919050565b6000602082019050818103600083015261167b81611469565b9050919050565b6000602082019050818103600083015261169b8161148c565b9050919050565b600060208201905081810360008301526116bb816114af565b9050919050565b600060208201905081810360008301526116db816114d2565b9050919050565b600060208201905081810360008301526116fb816114f5565b9050919050565b600061170c61171d565b9050611718828261182c565b919050565b6000604051905090565b600067ffffffffffffffff8211156117425761174161185d565b5b61174b8261188c565b9050602081019050919050565b600081519050919050565b600082825260208201905092915050565b600081905092915050565b600082825260208201905092915050565b600061179b826117c0565b9050919050565b60006117ad826117c0565b9050919050565b60008115159050919050565b600073ffffffffffffffffffffffffffffffffffffffff82169050919050565b6000819050919050565b82818337600083830152505050565b60005b838110156118175780820151818401526020810190506117fc565b83811115611826576000848401525b50505050565b6118358261188c565b810181811067ffffffffffffffff821117156118545761185361185d565b5b80604052505050565b7f4e487b7100000000000000000000000000000000000000000000000000000000600052604160045260246000fd5b6000601f19601f8301169050919050565b7f455243313136373a20637265617465206661696c656400000000000000000000600082015250565b7f63616c6c732063616c6c206661696c6564000000000000000000000000000000600082015250565b7f63616c6c6572206d757374206265206c656e646572206f722073756d6d6f6e2060008201527f6f776e6572000000000000000000000000000000000000000000000000000000602082015250565b7f63616c6c206661696c6564000000000000000000000000000000000000000000600082015250565b7f6164647265737320616c72656164792068617320612053756d6d6f6e00000000600082015250565b7f736f6d657468696e672077656e742077726f6e67000000000000000000000000600082015250565b6119c281611790565b81146119cd57600080fd5b50565b6119d9816117a2565b81146119e457600080fd5b50565b6119f0816117b4565b81146119fb57600080fd5b50565b611a07816117e0565b8114611a1257600080fd5b5056fea26469706673582212202584ed84a516c68d0a64243b972826a9997f3641a114f3854b5240497142478c64736f6c63430008040033",
  "linkReferences": {},
  "deployedLinkReferences": {}
}