{
  "_format": "hh-sol-artifact-1",
  "contractName": "Summon",
  "sourceName": "contracts/SummonV2.sol",
  "abi": [
    {
      "inputs": [
        {
          "internalType": "address",
          "name": "_owner",
          "type": "address"
        }
      ],
      "stateMutability": "nonpayable",
      "type": "constructor"
    },
    {
      "inputs": [],
      "name": "NAME",
      "outputs": [
        {
          "internalType": "string",
          "name": "",
          "type": "string"
        }
      ],
      "stateMutability": "view",
      "type": "function"
    },
    {
      "inputs": [],
      "name": "SummonFactory",
      "outputs": [
        {
          "internalType": "address",
          "name": "",
          "type": "address"
        }
      ],
      "stateMutability": "view",
      "type": "function"
    },
    {
      "inputs": [],
      "name": "VERSION",
      "outputs": [
        {
          "internalType": "string",
          "name": "",
          "type": "string"
        }
      ],
      "stateMutability": "view",
      "type": "function"
    },
    {
      "inputs": [
        {
          "internalType": "bytes32",
          "name": "_hash",
          "type": "bytes32"
        },
        {
          "internalType": "bytes",
          "name": "_signature",
          "type": "bytes"
        }
      ],
      "name": "isValidSignature",
      "outputs": [
        {
          "internalType": "bytes4",
          "name": "",
          "type": "bytes4"
        }
      ],
      "stateMutability": "view",
      "type": "function"
    },
    {
      "inputs": [
        {
          "internalType": "address",
          "name": "",
          "type": "address"
        },
        {
          "internalType": "address",
          "name": "",
          "type": "address"
        },
        {
          "internalType": "uint256[]",
          "name": "",
          "type": "uint256[]"
        },
        {
          "internalType": "uint256[]",
          "name": "",
          "type": "uint256[]"
        },
        {
          "internalType": "bytes",
          "name": "",
          "type": "bytes"
        }
      ],
      "name": "onERC1155BatchReceived",
      "outputs": [
        {
          "internalType": "bytes4",
          "name": "",
          "type": "bytes4"
        }
      ],
      "stateMutability": "pure",
      "type": "function"
    },
    {
      "inputs": [
        {
          "internalType": "address",
          "name": "",
          "type": "address"
        },
        {
          "internalType": "address",
          "name": "",
          "type": "address"
        },
        {
          "internalType": "uint256",
          "name": "",
          "type": "uint256"
        },
        {
          "internalType": "uint256",
          "name": "",
          "type": "uint256"
        },
        {
          "internalType": "bytes",
          "name": "",
          "type": "bytes"
        }
      ],
      "name": "onERC1155Received",
      "outputs": [
        {
          "internalType": "bytes4",
          "name": "",
          "type": "bytes4"
        }
      ],
      "stateMutability": "pure",
      "type": "function"
    },
    {
      "inputs": [
        {
          "internalType": "address",
          "name": "",
          "type": "address"
        },
        {
          "internalType": "address",
          "name": "",
          "type": "address"
        },
        {
          "internalType": "uint256",
          "name": "",
          "type": "uint256"
        },
        {
          "internalType": "bytes",
          "name": "",
          "type": "bytes"
        }
      ],
      "name": "onERC721Received",
      "outputs": [
        {
          "internalType": "bytes4",
          "name": "",
          "type": "bytes4"
        }
      ],
      "stateMutability": "pure",
      "type": "function"
    },
    {
      "inputs": [],
      "name": "owner",
      "outputs": [
        {
          "internalType": "address",
          "name": "",
          "type": "address"
        }
      ],
      "stateMutability": "view",
      "type": "function"
    },
    {
      "inputs": [
        {
          "internalType": "bytes32",
          "name": "_ethSignedMessageHash",
          "type": "bytes32"
        },
        {
          "internalType": "bytes",
          "name": "_signature",
          "type": "bytes"
        }
      ],
      "name": "recoverSigner",
      "outputs": [
        {
          "internalType": "address",
          "name": "",
          "type": "address"
        }
      ],
      "stateMutability": "pure",
      "type": "function"
    },
    {
      "inputs": [
        {
          "internalType": "address",
          "name": "tokenAddress",
          "type": "address"
        },
        {
          "internalType": "uint256",
          "name": "tokenId",
          "type": "uint256"
        },
        {
          "internalType": "address",
          "name": "lender",
          "type": "address"
        }
      ],
      "name": "safeWithdraw",
      "outputs": [
        {
          "internalType": "bool",
          "name": "success",
          "type": "bool"
        },
        {
          "internalType": "bytes",
          "name": "data",
          "type": "bytes"
        }
      ],
      "stateMutability": "nonpayable",
      "type": "function"
    },
    {
      "inputs": [
        {
          "internalType": "bytes",
          "name": "sig",
          "type": "bytes"
        }
      ],
      "name": "splitSignature",
      "outputs": [
        {
          "internalType": "bytes32",
          "name": "r",
          "type": "bytes32"
        },
        {
          "internalType": "bytes32",
          "name": "s",
          "type": "bytes32"
        },
        {
          "internalType": "uint8",
          "name": "v",
          "type": "uint8"
        }
      ],
      "stateMutability": "pure",
      "type": "function"
    },
    {
      "inputs": [
        {
          "internalType": "bytes4",
          "name": "interfaceId",
          "type": "bytes4"
        }
      ],
      "name": "supportsInterface",
      "outputs": [
        {
          "internalType": "bool",
          "name": "",
          "type": "bool"
        }
      ],
      "stateMutability": "view",
      "type": "function"
    },
    {
      "inputs": [
        {
          "internalType": "address",
          "name": "",
          "type": "address"
        },
        {
          "internalType": "address",
          "name": "",
          "type": "address"
        },
        {
          "internalType": "address",
          "name": "",
          "type": "address"
        },
        {
          "internalType": "uint256",
          "name": "",
          "type": "uint256"
        },
        {
          "internalType": "bytes",
          "name": "",
          "type": "bytes"
        },
        {
          "internalType": "bytes",
          "name": "",
          "type": "bytes"
        }
      ],
      "name": "tokensReceived",
      "outputs": [],
      "stateMutability": "pure",
      "type": "function"
    }
  ],
  "bytecode": "0x60c06040523480156200001157600080fd5b5060405162001484380380620014848339818101604052810190620000379190620000c3565b8073ffffffffffffffffffffffffffffffffffffffff1660808173ffffffffffffffffffffffffffffffffffffffff1660601b815250503373ffffffffffffffffffffffffffffffffffffffff1660a08173ffffffffffffffffffffffffffffffffffffffff1660601b81525050506200013d565b600081519050620000bd8162000123565b92915050565b600060208284031215620000d657600080fd5b6000620000e684828501620000ac565b91505092915050565b6000620000fc8262000103565b9050919050565b600073ffffffffffffffffffffffffffffffffffffffff82169050919050565b6200012e81620000ef565b81146200013a57600080fd5b50565b60805160601c60a05160601c6113146200017060003960006107a2015260008181610447015261050901526113146000f3fe608060405234801561001057600080fd5b50600436106100ce5760003560e01c8063a3f4df7e1161008c578063bc197c8111610066578063bc197c811461024e578063dd8741451461027e578063f23a6e611461029c578063ffa1ad74146102cc576100ce565b8063a3f4df7e146101cd578063a7bb5803146101eb578063aef6e2671461021d576100ce565b806223de29146100d357806301ffc9a7146100ef578063150b7a021461011f5780631626ba7e1461014f5780638da5cb5b1461017f57806397aba7f91461019d575b600080fd5b6100ed60048036038101906100e89190610963565b6102ea565b005b61010960048036038101906101049190610cff565b6102f4565b6040516101169190610f15565b60405180910390f35b61013960048036038101906101349190610af2565b61042e565b6040516101469190610fdc565b60405180910390f35b61016960048036038101906101649190610c53565b610443565b6040516101769190610fdc565b60405180910390f35b610187610507565b6040516101949190610ec3565b60405180910390f35b6101b760048036038101906101b29190610cab565b61052b565b6040516101c49190610ec3565b60405180910390f35b6101d561059a565b6040516101e29190610ff7565b60405180910390f35b61020560048036038101906102009190610d28565b6105d3565b60405161021493929190610f60565b60405180910390f35b61023760048036038101906102329190610c04565b61063b565b604051610245929190610f30565b60405180910390f35b61026860048036038101906102639190610a26565b610788565b6040516102759190610fdc565b60405180910390f35b6102866107a0565b6040516102939190610ec3565b60405180910390f35b6102b660048036038101906102b19190610b72565b6107c4565b6040516102c39190610fdc565b60405180910390f35b6102d46107da565b6040516102e19190610ff7565b60405180910390f35b5050505050505050565b60007f4e2312e0000000000000000000000000000000000000000000000000000000007bffffffffffffffffffffffffffffffffffffffffffffffffffffffff1916827bffffffffffffffffffffffffffffffffffffffffffffffffffffffff191614806103bf57507f150b7a02000000000000000000000000000000000000000000000000000000007bffffffffffffffffffffffffffffffffffffffffffffffffffffffff1916827bffffffffffffffffffffffffffffffffffffffffffffffffffffffff1916145b8061042757507f01ffc9a7000000000000000000000000000000000000000000000000000000007bffffffffffffffffffffffffffffffffffffffffffffffffffffffff1916827bffffffffffffffffffffffffffffffffffffffffffffffffffffffff1916145b9050919050565b600063150b7a0260e01b905095945050505050565b60007f000000000000000000000000000000000000000000000000000000000000000073ffffffffffffffffffffffffffffffffffffffff166104ca8585858080601f016020809104026020016040519081016040528093929190818152602001838380828437600081840152601f19601f8201169050808301925050505050505061052b565b73ffffffffffffffffffffffffffffffffffffffff1614156104f557631626ba7e60e01b9050610500565b63ffffffff60e01b90505b9392505050565b7f000000000000000000000000000000000000000000000000000000000000000081565b60008060008061053a856105d3565b925092509250600186828585604051600081526020016040526040516105639493929190610f97565b6020604051602081039080840390855afa158015610585573d6000803e3d6000fd5b50505060206040510351935050505092915050565b6040518060400160405280601881526020017f44656661756c742043616c6c6261636b2048616e646c6572000000000000000081525081565b6000806000604184511461061c576040517f08c379a000000000000000000000000000000000000000000000000000000000815260040161061390611039565b60405180910390fd5b6020840151925060408401519150606084015160001a90509193909250565b600060608473ffffffffffffffffffffffffffffffffffffffff1630848660405160240161066b93929190610ede565b6040516020818303038152906040527f42842e0e000000000000000000000000000000000000000000000000000000007bffffffffffffffffffffffffffffffffffffffffffffffffffffffff19166020820180517bffffffffffffffffffffffffffffffffffffffffffffffffffffffff83818316178352505050506040516106f59190610eac565b6000604051808303816000865af19150503d8060008114610732576040519150601f19603f3d011682016040523d82523d6000602084013e610737565b606091505b50809250819350505081610780576040517f08c379a000000000000000000000000000000000000000000000000000000000815260040161077790611019565b60405180910390fd5b935093915050565b600063bc197c8160e01b905098975050505050505050565b7f000000000000000000000000000000000000000000000000000000000000000081565b600063f23a6e6160e01b90509695505050505050565b6040518060400160405280600581526020017f312e302e3000000000000000000000000000000000000000000000000000000081525081565b60006108266108218461107e565b611059565b90508281526020810184848401111561083e57600080fd5b61084984828561117d565b509392505050565b60008135905061086081611282565b92915050565b60008083601f84011261087857600080fd5b8235905067ffffffffffffffff81111561089157600080fd5b6020830191508360208202830111156108a957600080fd5b9250929050565b6000813590506108bf81611299565b92915050565b6000813590506108d4816112b0565b92915050565b60008083601f8401126108ec57600080fd5b8235905067ffffffffffffffff81111561090557600080fd5b60208301915083600182028301111561091d57600080fd5b9250929050565b600082601f83011261093557600080fd5b8135610945848260208601610813565b91505092915050565b60008135905061095d816112c7565b92915050565b60008060008060008060008060c0898b03121561097f57600080fd5b600061098d8b828c01610851565b985050602061099e8b828c01610851565b97505060406109af8b828c01610851565b96505060606109c08b828c0161094e565b955050608089013567ffffffffffffffff8111156109dd57600080fd5b6109e98b828c016108da565b945094505060a089013567ffffffffffffffff811115610a0857600080fd5b610a148b828c016108da565b92509250509295985092959890939650565b60008060008060008060008060a0898b031215610a4257600080fd5b6000610a508b828c01610851565b9850506020610a618b828c01610851565b975050604089013567ffffffffffffffff811115610a7e57600080fd5b610a8a8b828c01610866565b9650965050606089013567ffffffffffffffff811115610aa957600080fd5b610ab58b828c01610866565b9450945050608089013567ffffffffffffffff811115610ad457600080fd5b610ae08b828c016108da565b92509250509295985092959890939650565b600080600080600060808688031215610b0a57600080fd5b6000610b1888828901610851565b9550506020610b2988828901610851565b9450506040610b3a8882890161094e565b935050606086013567ffffffffffffffff811115610b5757600080fd5b610b63888289016108da565b92509250509295509295909350565b60008060008060008060a08789031215610b8b57600080fd5b6000610b9989828a01610851565b9650506020610baa89828a01610851565b9550506040610bbb89828a0161094e565b9450506060610bcc89828a0161094e565b935050608087013567ffffffffffffffff811115610be957600080fd5b610bf589828a016108da565b92509250509295509295509295565b600080600060608486031215610c1957600080fd5b6000610c2786828701610851565b9350506020610c388682870161094e565b9250506040610c4986828701610851565b9150509250925092565b600080600060408486031215610c6857600080fd5b6000610c76868287016108b0565b935050602084013567ffffffffffffffff811115610c9357600080fd5b610c9f868287016108da565b92509250509250925092565b60008060408385031215610cbe57600080fd5b6000610ccc858286016108b0565b925050602083013567ffffffffffffffff811115610ce957600080fd5b610cf585828601610924565b9150509250929050565b600060208284031215610d1157600080fd5b6000610d1f848285016108c5565b91505092915050565b600060208284031215610d3a57600080fd5b600082013567ffffffffffffffff811115610d5457600080fd5b610d6084828501610924565b91505092915050565b610d72816110f2565b82525050565b610d8181611104565b82525050565b610d9081611110565b82525050565b610d9f8161111a565b82525050565b6000610db0826110af565b610dba81856110c5565b9350610dca81856020860161118c565b610dd38161121f565b840191505092915050565b6000610de9826110af565b610df381856110d6565b9350610e0381856020860161118c565b80840191505092915050565b6000610e1a826110ba565b610e2481856110e1565b9350610e3481856020860161118c565b610e3d8161121f565b840191505092915050565b6000610e55600b836110e1565b9150610e6082611230565b602082019050919050565b6000610e786018836110e1565b9150610e8382611259565b602082019050919050565b610e9781611166565b82525050565b610ea681611170565b82525050565b6000610eb88284610dde565b915081905092915050565b6000602082019050610ed86000830184610d69565b92915050565b6000606082019050610ef36000830186610d69565b610f006020830185610d69565b610f0d6040830184610e8e565b949350505050565b6000602082019050610f2a6000830184610d78565b92915050565b6000604082019050610f456000830185610d78565b8181036020830152610f578184610da5565b90509392505050565b6000606082019050610f756000830186610d87565b610f826020830185610d87565b610f8f6040830184610e9d565b949350505050565b6000608082019050610fac6000830187610d87565b610fb96020830186610e9d565b610fc66040830185610d87565b610fd36060830184610d87565b95945050505050565b6000602082019050610ff16000830184610d96565b92915050565b600060208201905081810360008301526110118184610e0f565b905092915050565b6000602082019050818103600083015261103281610e48565b9050919050565b6000602082019050818103600083015261105281610e6b565b9050919050565b6000611063611074565b905061106f82826111bf565b919050565b6000604051905090565b600067ffffffffffffffff821115611099576110986111f0565b5b6110a28261121f565b9050602081019050919050565b600081519050919050565b600081519050919050565b600082825260208201905092915050565b600081905092915050565b600082825260208201905092915050565b60006110fd82611146565b9050919050565b60008115159050919050565b6000819050919050565b60007fffffffff0000000000000000000000000000000000000000000000000000000082169050919050565b600073ffffffffffffffffffffffffffffffffffffffff82169050919050565b6000819050919050565b600060ff82169050919050565b82818337600083830152505050565b60005b838110156111aa57808201518184015260208101905061118f565b838111156111b9576000848401525b50505050565b6111c88261121f565b810181811067ffffffffffffffff821117156111e7576111e66111f0565b5b80604052505050565b7f4e487b7100000000000000000000000000000000000000000000000000000000600052604160045260246000fd5b6000601f19601f8301169050919050565b7f63616c6c206661696c6564000000000000000000000000000000000000000000600082015250565b7f696e76616c6964207369676e6174757265206c656e6774680000000000000000600082015250565b61128b816110f2565b811461129657600080fd5b50565b6112a281611110565b81146112ad57600080fd5b50565b6112b98161111a565b81146112c457600080fd5b50565b6112d081611166565b81146112db57600080fd5b5056fea2646970667358221220e5471c60c24e9a8f34025125a36edca58f140afc6440566fbca4f4963cf218b864736f6c63430008040033",
  "linkReferences": {},
  "deployedLinkReferences": {}
}