{
  "_format": "hh-sol-artifact-1",
  "contractName": "SummonManager",
  "sourceName": "contracts/SummonMoonBirds/SummonBirdsManager.sol",
  "abi": [
    {
      "inputs": [
        {
          "internalType": "address",
          "name": "_singleton",
          "type": "address"
        },
        {
          "internalType": "address",
          "name": "_MOONBIRDS_ADDRESS",
          "type": "address"
        }
      ],
      "stateMutability": "nonpayable",
      "type": "constructor"
    },
    {
      "anonymous": false,
      "inputs": [
        {
          "indexed": true,
          "internalType": "address",
          "name": "owner",
          "type": "address"
        },
        {
          "indexed": true,
          "internalType": "address",
          "name": "summonAddress",
          "type": "address"
        }
      ],
      "name": "SummonCreated",
      "type": "event"
    },
    {
      "anonymous": false,
      "inputs": [
        {
          "indexed": true,
          "internalType": "address",
          "name": "lender",
          "type": "address"
        },
        {
          "indexed": true,
          "internalType": "address",
          "name": "summon",
          "type": "address"
        },
        {
          "indexed": false,
          "internalType": "address",
          "name": "tokenAddress",
          "type": "address"
        },
        {
          "indexed": false,
          "internalType": "uint256",
          "name": "tokenId",
          "type": "uint256"
        }
      ],
      "name": "TokenLendedFrom",
      "type": "event"
    },
    {
      "anonymous": false,
      "inputs": [
        {
          "indexed": true,
          "internalType": "address",
          "name": "lender",
          "type": "address"
        },
        {
          "indexed": true,
          "internalType": "address",
          "name": "summon",
          "type": "address"
        },
        {
          "indexed": false,
          "internalType": "address",
          "name": "tokenAddress",
          "type": "address"
        },
        {
          "indexed": false,
          "internalType": "uint256",
          "name": "tokenId",
          "type": "uint256"
        }
      ],
      "name": "TokenWithdrawnTo",
      "type": "event"
    },
    {
      "inputs": [
        {
          "internalType": "address",
          "name": "_owner",
          "type": "address"
        }
      ],
      "name": "CreateNewSummon",
      "outputs": [
        {
          "internalType": "address",
          "name": "",
          "type": "address"
        }
      ],
      "stateMutability": "nonpayable",
      "type": "function"
    },
    {
      "inputs": [
        {
          "internalType": "bytes",
          "name": "",
          "type": "bytes"
        }
      ],
      "name": "EncodedTokenToLender",
      "outputs": [
        {
          "internalType": "address",
          "name": "",
          "type": "address"
        }
      ],
      "stateMutability": "view",
      "type": "function"
    },
    {
      "inputs": [
        {
          "internalType": "bytes",
          "name": "",
          "type": "bytes"
        }
      ],
      "name": "EncodedTokenToSummon",
      "outputs": [
        {
          "internalType": "address",
          "name": "",
          "type": "address"
        }
      ],
      "stateMutability": "view",
      "type": "function"
    },
    {
      "inputs": [],
      "name": "MOONBIRDS_ADDRESS",
      "outputs": [
        {
          "internalType": "address",
          "name": "",
          "type": "address"
        }
      ],
      "stateMutability": "view",
      "type": "function"
    },
    {
      "inputs": [],
      "name": "NAME",
      "outputs": [
        {
          "internalType": "string",
          "name": "",
          "type": "string"
        }
      ],
      "stateMutability": "view",
      "type": "function"
    },
    {
      "inputs": [
        {
          "internalType": "address",
          "name": "",
          "type": "address"
        }
      ],
      "name": "OwnerToSummonAddress",
      "outputs": [
        {
          "internalType": "address",
          "name": "",
          "type": "address"
        }
      ],
      "stateMutability": "view",
      "type": "function"
    },
    {
      "inputs": [
        {
          "internalType": "address",
          "name": "",
          "type": "address"
        }
      ],
      "name": "SummonAddressToOwner",
      "outputs": [
        {
          "internalType": "address",
          "name": "",
          "type": "address"
        }
      ],
      "stateMutability": "view",
      "type": "function"
    },
    {
      "inputs": [],
      "name": "VERSION",
      "outputs": [
        {
          "internalType": "string",
          "name": "",
          "type": "string"
        }
      ],
      "stateMutability": "view",
      "type": "function"
    },
    {
      "inputs": [
        {
          "internalType": "bytes",
          "name": "_encodedToken",
          "type": "bytes"
        }
      ],
      "name": "getDecodedToken",
      "outputs": [
        {
          "internalType": "address",
          "name": "tokenAddress",
          "type": "address"
        },
        {
          "internalType": "uint256",
          "name": "tokenId",
          "type": "uint256"
        }
      ],
      "stateMutability": "pure",
      "type": "function"
    },
    {
      "inputs": [
        {
          "internalType": "address",
          "name": "tokenAddress",
          "type": "address"
        },
        {
          "internalType": "uint256",
          "name": "tokenId",
          "type": "uint256"
        }
      ],
      "name": "getEncodedToken",
      "outputs": [
        {
          "internalType": "bytes",
          "name": "encodedToken",
          "type": "bytes"
        }
      ],
      "stateMutability": "pure",
      "type": "function"
    },
    {
      "inputs": [
        {
          "internalType": "address",
          "name": "",
          "type": "address"
        },
        {
          "internalType": "address",
          "name": "",
          "type": "address"
        },
        {
          "internalType": "uint256[]",
          "name": "",
          "type": "uint256[]"
        },
        {
          "internalType": "uint256[]",
          "name": "",
          "type": "uint256[]"
        },
        {
          "internalType": "bytes",
          "name": "",
          "type": "bytes"
        }
      ],
      "name": "onERC1155BatchReceived",
      "outputs": [
        {
          "internalType": "bytes4",
          "name": "",
          "type": "bytes4"
        }
      ],
      "stateMutability": "pure",
      "type": "function"
    },
    {
      "inputs": [
        {
          "internalType": "address",
          "name": "",
          "type": "address"
        },
        {
          "internalType": "address",
          "name": "",
          "type": "address"
        },
        {
          "internalType": "uint256",
          "name": "",
          "type": "uint256"
        },
        {
          "internalType": "uint256",
          "name": "",
          "type": "uint256"
        },
        {
          "internalType": "bytes",
          "name": "",
          "type": "bytes"
        }
      ],
      "name": "onERC1155Received",
      "outputs": [
        {
          "internalType": "bytes4",
          "name": "",
          "type": "bytes4"
        }
      ],
      "stateMutability": "pure",
      "type": "function"
    },
    {
      "inputs": [
        {
          "internalType": "address",
          "name": "",
          "type": "address"
        },
        {
          "internalType": "address",
          "name": "",
          "type": "address"
        },
        {
          "internalType": "uint256",
          "name": "",
          "type": "uint256"
        },
        {
          "internalType": "bytes",
          "name": "",
          "type": "bytes"
        }
      ],
      "name": "onERC721Received",
      "outputs": [
        {
          "internalType": "bytes4",
          "name": "",
          "type": "bytes4"
        }
      ],
      "stateMutability": "pure",
      "type": "function"
    },
    {
      "inputs": [
        {
          "internalType": "bytes32",
          "name": "_ethSignedMessageHash",
          "type": "bytes32"
        },
        {
          "internalType": "bytes",
          "name": "_signature",
          "type": "bytes"
        }
      ],
      "name": "recoverSigner",
      "outputs": [
        {
          "internalType": "address",
          "name": "",
          "type": "address"
        }
      ],
      "stateMutability": "pure",
      "type": "function"
    },
    {
      "inputs": [],
      "name": "singleton",
      "outputs": [
        {
          "internalType": "address",
          "name": "",
          "type": "address"
        }
      ],
      "stateMutability": "view",
      "type": "function"
    },
    {
      "inputs": [
        {
          "internalType": "bytes",
          "name": "sig",
          "type": "bytes"
        }
      ],
      "name": "splitSignature",
      "outputs": [
        {
          "internalType": "bytes32",
          "name": "r",
          "type": "bytes32"
        },
        {
          "internalType": "bytes32",
          "name": "s",
          "type": "bytes32"
        },
        {
          "internalType": "uint8",
          "name": "v",
          "type": "uint8"
        }
      ],
      "stateMutability": "pure",
      "type": "function"
    },
    {
      "inputs": [
        {
          "internalType": "bytes4",
          "name": "interfaceId",
          "type": "bytes4"
        }
      ],
      "name": "supportsInterface",
      "outputs": [
        {
          "internalType": "bool",
          "name": "",
          "type": "bool"
        }
      ],
      "stateMutability": "view",
      "type": "function"
    },
    {
      "inputs": [
        {
          "internalType": "address",
          "name": "",
          "type": "address"
        },
        {
          "internalType": "address",
          "name": "",
          "type": "address"
        },
        {
          "internalType": "address",
          "name": "",
          "type": "address"
        },
        {
          "internalType": "uint256",
          "name": "",
          "type": "uint256"
        },
        {
          "internalType": "bytes",
          "name": "",
          "type": "bytes"
        },
        {
          "internalType": "bytes",
          "name": "",
          "type": "bytes"
        }
      ],
      "name": "tokensReceived",
      "outputs": [],
      "stateMutability": "pure",
      "type": "function"
    }
  ],
  "bytecode": "0x60c06040523480156200001157600080fd5b506040516200196a3803806200196a8339818101604052810190620000379190620000c4565b8173ffffffffffffffffffffffffffffffffffffffff1660808173ffffffffffffffffffffffffffffffffffffffff1660601b815250508073ffffffffffffffffffffffffffffffffffffffff1660a08173ffffffffffffffffffffffffffffffffffffffff1660601b81525050505062000153565b600081519050620000be8162000139565b92915050565b60008060408385031215620000d857600080fd5b6000620000e885828601620000ad565b9250506020620000fb85828601620000ad565b9150509250929050565b6000620001128262000119565b9050919050565b600073ffffffffffffffffffffffffffffffffffffffff82169050919050565b620001448162000105565b81146200015057600080fd5b50565b60805160601c60a05160601c6117dd6200018d600039600081816107900152610af301526000818161074b0152610ab701526117dd6000f3fe608060405234801561001057600080fd5b50600436106101155760003560e01c80638a17aec9116100a2578063b62654fb11610071578063b62654fb14610367578063bc197c8114610385578063e6e74498146103b5578063f23a6e61146103d3578063ffa1ad741461040357610115565b80638a17aec9146102b757806397aba7f9146102e7578063a3f4df7e14610317578063a7bb58031461033557610115565b80631e87f20e116100e95780631e87f20e146101c65780632c157d19146101f65780632f83ff0c146102265780634457a39f1461025757806372aea5701461028757610115565b806223de291461011a57806301ffc9a714610136578063150b7a02146101665780631974f84514610196575b600080fd5b610134600480360381019061012f9190610e03565b610421565b005b610150600480360381019061014b9190611134565b61042b565b60405161015d9190611385565b60405180910390f35b610180600480360381019061017b9190610f92565b610565565b60405161018d919061141c565b60405180910390f35b6101b060048036038101906101ab9190610d9e565b61057a565b6040516101bd9190611318565b60405180910390f35b6101e060048036038101906101db91906111a2565b6105ad565b6040516101ed9190611318565b60405180910390f35b610210600480360381019061020b9190610d9e565b6105f6565b60405161021d9190611318565b60405180910390f35b610240600480360381019061023b919061115d565b610629565b60405161024e92919061135c565b60405180910390f35b610271600480360381019061026c91906110a4565b61064a565b60405161027e9190611437565b60405180910390f35b6102a1600480360381019061029c9190610d9e565b610676565b6040516102ae9190611318565b60405180910390f35b6102d160048036038101906102cc91906111a2565b61095c565b6040516102de9190611318565b60405180910390f35b61030160048036038101906102fc91906110e0565b6109a5565b60405161030e9190611318565b60405180910390f35b61031f610a14565b60405161032c9190611459565b60405180910390f35b61034f600480360381019061034a91906111a2565b610a4d565b60405161035e939291906113a0565b60405180910390f35b61036f610ab5565b60405161037c9190611318565b60405180910390f35b61039f600480360381019061039a9190610ec6565b610ad9565b6040516103ac919061141c565b60405180910390f35b6103bd610af1565b6040516103ca9190611318565b60405180910390f35b6103ed60048036038101906103e89190611012565b610b15565b6040516103fa919061141c565b60405180910390f35b61040b610b2b565b6040516104189190611459565b60405180910390f35b5050505050505050565b60007f4e2312e0000000000000000000000000000000000000000000000000000000007bffffffffffffffffffffffffffffffffffffffffffffffffffffffff1916827bffffffffffffffffffffffffffffffffffffffffffffffffffffffff191614806104f657507f150b7a02000000000000000000000000000000000000000000000000000000007bffffffffffffffffffffffffffffffffffffffffffffffffffffffff1916827bffffffffffffffffffffffffffffffffffffffffffffffffffffffff1916145b8061055e57507f01ffc9a7000000000000000000000000000000000000000000000000000000007bffffffffffffffffffffffffffffffffffffffffffffffffffffffff1916827bffffffffffffffffffffffffffffffffffffffffffffffffffffffff1916145b9050919050565b600063150b7a0260e01b905095945050505050565b60016020528060005260406000206000915054906101000a900473ffffffffffffffffffffffffffffffffffffffff1681565b6003818051602081018201805184825260208301602085012081835280955050505050506000915054906101000a900473ffffffffffffffffffffffffffffffffffffffff1681565b60006020528060005260406000206000915054906101000a900473ffffffffffffffffffffffffffffffffffffffff1681565b600080838381019061063b9190610dc7565b80925081935050509250929050565b6060828260405160200161065f92919061135c565b604051602081830303815290604052905092915050565b60008073ffffffffffffffffffffffffffffffffffffffff166000808473ffffffffffffffffffffffffffffffffffffffff1673ffffffffffffffffffffffffffffffffffffffff16815260200190815260200160002060009054906101000a900473ffffffffffffffffffffffffffffffffffffffff1673ffffffffffffffffffffffffffffffffffffffff1614610744576040517f08c379a000000000000000000000000000000000000000000000000000000000815260040161073b9061149b565b60405180910390fd5b600061076f7f0000000000000000000000000000000000000000000000000000000000000000610b64565b90508073ffffffffffffffffffffffffffffffffffffffff1663f09a4016847f00000000000000000000000000000000000000000000000000000000000000006040518363ffffffff1660e01b81526004016107cc929190611333565b600060405180830381600087803b1580156107e657600080fd5b505af11580156107fa573d6000803e3d6000fd5b50505050806000808573ffffffffffffffffffffffffffffffffffffffff1673ffffffffffffffffffffffffffffffffffffffff16815260200190815260200160002060006101000a81548173ffffffffffffffffffffffffffffffffffffffff021916908373ffffffffffffffffffffffffffffffffffffffff16021790555082600160008373ffffffffffffffffffffffffffffffffffffffff1673ffffffffffffffffffffffffffffffffffffffff16815260200190815260200160002060006101000a81548173ffffffffffffffffffffffffffffffffffffffff021916908373ffffffffffffffffffffffffffffffffffffffff1602179055508073ffffffffffffffffffffffffffffffffffffffff168373ffffffffffffffffffffffffffffffffffffffff167fc9c1da85374d40f21fe6aa2c3d2a15674a15de248a7713deaa981df3452eddcf60405160405180910390a380915050919050565b6002818051602081018201805184825260208301602085012081835280955050505050506000915054906101000a900473ffffffffffffffffffffffffffffffffffffffff1681565b6000806000806109b485610a4d565b925092509250600186828585604051600081526020016040526040516109dd94939291906113d7565b6020604051602081039080840390855afa1580156109ff573d6000803e3d6000fd5b50505060206040510351935050505092915050565b6040518060400160405280601881526020017f44656661756c742043616c6c6261636b2048616e646c6572000000000000000081525081565b60008060006041845114610a96576040517f08c379a0000000000000000000000000000000000000000000000000000000008152600401610a8d906114bb565b60405180910390fd5b6020840151925060408401519150606084015160001a90509193909250565b7f000000000000000000000000000000000000000000000000000000000000000081565b600063bc197c8160e01b905098975050505050505050565b7f000000000000000000000000000000000000000000000000000000000000000081565b600063f23a6e6160e01b90509695505050505050565b6040518060400160405280600581526020017f312e302e3000000000000000000000000000000000000000000000000000000081525081565b60006040517f3d602d80600a3d3981f3363d3d373d3d3d363d7300000000000000000000000081528260601b60148201527f5af43d82803e903d91602b57fd5bf3000000000000000000000000000000000060288201526037816000f0915050600073ffffffffffffffffffffffffffffffffffffffff168173ffffffffffffffffffffffffffffffffffffffff161415610c34576040517f08c379a0000000000000000000000000000000000000000000000000000000008152600401610c2b9061147b565b60405180910390fd5b919050565b6000610c4c610c4784611500565b6114db565b905082815260208101848484011115610c6457600080fd5b610c6f848285611606565b509392505050565b600081359050610c8681611734565b92915050565b600081359050610c9b8161174b565b92915050565b60008083601f840112610cb357600080fd5b8235905067ffffffffffffffff811115610ccc57600080fd5b602083019150836020820283011115610ce457600080fd5b9250929050565b600081359050610cfa81611762565b92915050565b600081359050610d0f81611779565b92915050565b60008083601f840112610d2757600080fd5b8235905067ffffffffffffffff811115610d4057600080fd5b602083019150836001820283011115610d5857600080fd5b9250929050565b600082601f830112610d7057600080fd5b8135610d80848260208601610c39565b91505092915050565b600081359050610d9881611790565b92915050565b600060208284031215610db057600080fd5b6000610dbe84828501610c77565b91505092915050565b60008060408385031215610dda57600080fd5b6000610de885828601610c8c565b9250506020610df985828601610d89565b9150509250929050565b60008060008060008060008060c0898b031215610e1f57600080fd5b6000610e2d8b828c01610c77565b9850506020610e3e8b828c01610c77565b9750506040610e4f8b828c01610c77565b9650506060610e608b828c01610d89565b955050608089013567ffffffffffffffff811115610e7d57600080fd5b610e898b828c01610d15565b945094505060a089013567ffffffffffffffff811115610ea857600080fd5b610eb48b828c01610d15565b92509250509295985092959890939650565b60008060008060008060008060a0898b031215610ee257600080fd5b6000610ef08b828c01610c77565b9850506020610f018b828c01610c77565b975050604089013567ffffffffffffffff811115610f1e57600080fd5b610f2a8b828c01610ca1565b9650965050606089013567ffffffffffffffff811115610f4957600080fd5b610f558b828c01610ca1565b9450945050608089013567ffffffffffffffff811115610f7457600080fd5b610f808b828c01610d15565b92509250509295985092959890939650565b600080600080600060808688031215610faa57600080fd5b6000610fb888828901610c77565b9550506020610fc988828901610c77565b9450506040610fda88828901610d89565b935050606086013567ffffffffffffffff811115610ff757600080fd5b61100388828901610d15565b92509250509295509295909350565b60008060008060008060a0878903121561102b57600080fd5b600061103989828a01610c77565b965050602061104a89828a01610c77565b955050604061105b89828a01610d89565b945050606061106c89828a01610d89565b935050608087013567ffffffffffffffff81111561108957600080fd5b61109589828a01610d15565b92509250509295509295509295565b600080604083850312156110b757600080fd5b60006110c585828601610c77565b92505060206110d685828601610d89565b9150509250929050565b600080604083850312156110f357600080fd5b600061110185828601610ceb565b925050602083013567ffffffffffffffff81111561111e57600080fd5b61112a85828601610d5f565b9150509250929050565b60006020828403121561114657600080fd5b600061115484828501610d00565b91505092915050565b6000806020838503121561117057600080fd5b600083013567ffffffffffffffff81111561118a57600080fd5b61119685828601610d15565b92509250509250929050565b6000602082840312156111b457600080fd5b600082013567ffffffffffffffff8111156111ce57600080fd5b6111da84828501610d5f565b91505092915050565b6111ec81611569565b82525050565b6111fb8161158d565b82525050565b61120a81611599565b82525050565b611219816115a3565b82525050565b600061122a82611531565b6112348185611547565b9350611244818560208601611615565b61124d816116a8565b840191505092915050565b60006112638261153c565b61126d8185611558565b935061127d818560208601611615565b611286816116a8565b840191505092915050565b600061129e601683611558565b91506112a9826116b9565b602082019050919050565b60006112c1601c83611558565b91506112cc826116e2565b602082019050919050565b60006112e4601883611558565b91506112ef8261170b565b602082019050919050565b611303816115ef565b82525050565b611312816115f9565b82525050565b600060208201905061132d60008301846111e3565b92915050565b600060408201905061134860008301856111e3565b61135560208301846111e3565b9392505050565b600060408201905061137160008301856111e3565b61137e60208301846112fa565b9392505050565b600060208201905061139a60008301846111f2565b92915050565b60006060820190506113b56000830186611201565b6113c26020830185611201565b6113cf6040830184611309565b949350505050565b60006080820190506113ec6000830187611201565b6113f96020830186611309565b6114066040830185611201565b6114136060830184611201565b95945050505050565b60006020820190506114316000830184611210565b92915050565b60006020820190508181036000830152611451818461121f565b905092915050565b600060208201905081810360008301526114738184611258565b905092915050565b6000602082019050818103600083015261149481611291565b9050919050565b600060208201905081810360008301526114b4816112b4565b9050919050565b600060208201905081810360008301526114d4816112d7565b9050919050565b60006114e56114f6565b90506114f18282611648565b919050565b6000604051905090565b600067ffffffffffffffff82111561151b5761151a611679565b5b611524826116a8565b9050602081019050919050565b600081519050919050565b600081519050919050565b600082825260208201905092915050565b600082825260208201905092915050565b6000611574826115cf565b9050919050565b6000611586826115cf565b9050919050565b60008115159050919050565b6000819050919050565b60007fffffffff0000000000000000000000000000000000000000000000000000000082169050919050565b600073ffffffffffffffffffffffffffffffffffffffff82169050919050565b6000819050919050565b600060ff82169050919050565b82818337600083830152505050565b60005b83811015611633578082015181840152602081019050611618565b83811115611642576000848401525b50505050565b611651826116a8565b810181811067ffffffffffffffff821117156116705761166f611679565b5b80604052505050565b7f4e487b7100000000000000000000000000000000000000000000000000000000600052604160045260246000fd5b6000601f19601f8301169050919050565b7f455243313136373a20637265617465206661696c656400000000000000000000600082015250565b7f6164647265737320616c72656164792068617320612053756d6d6f6e00000000600082015250565b7f696e76616c6964207369676e6174757265206c656e6774680000000000000000600082015250565b61173d81611569565b811461174857600080fd5b50565b6117548161157b565b811461175f57600080fd5b50565b61176b81611599565b811461177657600080fd5b50565b611782816115a3565b811461178d57600080fd5b50565b611799816115ef565b81146117a457600080fd5b5056fea2646970667358221220f01fe02a13f384d1067e426dae5c30776a1379efc95d4321471c9bb7e7e0133064736f6c63430008040033",
  "linkReferences": {},
  "deployedLinkReferences": {}
}