{
  "_format": "hh-sol-artifact-1",
  "contractName": "SummonV2Manager",
  "sourceName": "contracts/SummonV2Manager.sol",
  "abi": [
    {
      "inputs": [
        {
          "internalType": "address",
          "name": "_singleton",
          "type": "address"
        }
      ],
      "stateMutability": "nonpayable",
      "type": "constructor"
    },
    {
      "anonymous": false,
      "inputs": [
        {
          "indexed": true,
          "internalType": "address",
          "name": "owner",
          "type": "address"
        },
        {
          "indexed": true,
          "internalType": "address",
          "name": "summonAddress",
          "type": "address"
        }
      ],
      "name": "SummonCreated",
      "type": "event"
    },
    {
      "anonymous": false,
      "inputs": [
        {
          "indexed": true,
          "internalType": "address",
          "name": "lender",
          "type": "address"
        },
        {
          "indexed": false,
          "internalType": "address",
          "name": "summon",
          "type": "address"
        },
        {
          "indexed": true,
          "internalType": "address",
          "name": "tokenAddress",
          "type": "address"
        },
        {
          "indexed": true,
          "internalType": "uint256",
          "name": "tokenId",
          "type": "uint256"
        }
      ],
      "name": "TokenLendedFrom",
      "type": "event"
    },
    {
      "anonymous": false,
      "inputs": [
        {
          "indexed": true,
          "internalType": "address",
          "name": "lender",
          "type": "address"
        },
        {
          "indexed": false,
          "internalType": "address",
          "name": "summon",
          "type": "address"
        },
        {
          "indexed": true,
          "internalType": "address",
          "name": "tokenAddress",
          "type": "address"
        },
        {
          "indexed": true,
          "internalType": "uint256",
          "name": "tokenId",
          "type": "uint256"
        }
      ],
      "name": "TokenWithdrawnTo",
      "type": "event"
    },
    {
      "inputs": [
        {
          "internalType": "address",
          "name": "_owner",
          "type": "address"
        }
      ],
      "name": "CreateNewSummon",
      "outputs": [
        {
          "internalType": "address",
          "name": "",
          "type": "address"
        }
      ],
      "stateMutability": "nonpayable",
      "type": "function"
    },
    {
      "inputs": [
        {
          "internalType": "bytes",
          "name": "",
          "type": "bytes"
        }
      ],
      "name": "EncodedTokenToLender",
      "outputs": [
        {
          "internalType": "address",
          "name": "",
          "type": "address"
        }
      ],
      "stateMutability": "view",
      "type": "function"
    },
    {
      "inputs": [
        {
          "internalType": "bytes",
          "name": "",
          "type": "bytes"
        }
      ],
      "name": "EncodedTokenToSummon",
      "outputs": [
        {
          "internalType": "address",
          "name": "",
          "type": "address"
        }
      ],
      "stateMutability": "view",
      "type": "function"
    },
    {
      "inputs": [
        {
          "internalType": "address",
          "name": "",
          "type": "address"
        }
      ],
      "name": "OwnerToSummonAddress",
      "outputs": [
        {
          "internalType": "address",
          "name": "",
          "type": "address"
        }
      ],
      "stateMutability": "view",
      "type": "function"
    },
    {
      "inputs": [
        {
          "internalType": "address",
          "name": "",
          "type": "address"
        }
      ],
      "name": "SummonAddressToOwner",
      "outputs": [
        {
          "internalType": "address",
          "name": "",
          "type": "address"
        }
      ],
      "stateMutability": "view",
      "type": "function"
    },
    {
      "inputs": [
        {
          "internalType": "address",
          "name": "summon",
          "type": "address"
        },
        {
          "internalType": "address",
          "name": "tokenAddress",
          "type": "address"
        },
        {
          "internalType": "uint256",
          "name": "tokenId",
          "type": "uint256"
        }
      ],
      "name": "depositTokenToSummon",
      "outputs": [
        {
          "internalType": "bool",
          "name": "success",
          "type": "bool"
        },
        {
          "internalType": "bytes",
          "name": "data",
          "type": "bytes"
        }
      ],
      "stateMutability": "nonpayable",
      "type": "function"
    },
    {
      "inputs": [
        {
          "internalType": "address",
          "name": "tokenAddress",
          "type": "address"
        },
        {
          "internalType": "uint256",
          "name": "tokenId",
          "type": "uint256"
        }
      ],
      "name": "getEncodedToken",
      "outputs": [
        {
          "internalType": "bytes",
          "name": "encodedToken",
          "type": "bytes"
        }
      ],
      "stateMutability": "pure",
      "type": "function"
    },
    {
      "inputs": [],
      "name": "singleton",
      "outputs": [
        {
          "internalType": "address",
          "name": "",
          "type": "address"
        }
      ],
      "stateMutability": "view",
      "type": "function"
    },
    {
      "inputs": [
        {
          "internalType": "address",
          "name": "tokenAddress",
          "type": "address"
        },
        {
          "internalType": "uint256",
          "name": "tokenId",
          "type": "uint256"
        }
      ],
      "name": "withdrawTokenFromSummon",
      "outputs": [
        {
          "internalType": "bool",
          "name": "success",
          "type": "bool"
        },
        {
          "internalType": "bytes",
          "name": "data",
          "type": "bytes"
        }
      ],
      "stateMutability": "nonpayable",
      "type": "function"
    }
  ],
  "bytecode": "0x60a06040523480156200001157600080fd5b50604051620017ca380380620017ca83398181016040528101906200003791906200008c565b8073ffffffffffffffffffffffffffffffffffffffff1660808173ffffffffffffffffffffffffffffffffffffffff1660601b815250505062000106565b6000815190506200008681620000ec565b92915050565b6000602082840312156200009f57600080fd5b6000620000af8482850162000075565b91505092915050565b6000620000c582620000cc565b9050919050565b600073ffffffffffffffffffffffffffffffffffffffff82169050919050565b620000f781620000b8565b81146200010357600080fd5b50565b60805160601c61169e6200012c600039600081816103e80152610985015261169e6000f3fe608060405234801561001057600080fd5b50600436106100935760003560e01c806372aea5701161006657806372aea570146101585780637409b9ec146101885780638a17aec9146101b9578063b62654fb146101e9578063c9ceea761461020757610093565b80631974f845146100985780631e87f20e146100c85780632c157d19146100f85780634457a39f14610128575b600080fd5b6100b260048036038101906100ad9190610eab565b610238565b6040516100bf91906111ce565b60405180910390f35b6100e260048036038101906100dd9190610fb3565b61026b565b6040516100ef91906111ce565b60405180910390f35b610112600480360381019061010d9190610eab565b6102b4565b60405161011f91906111ce565b60405180910390f35b610142600480360381019061013d9190610f23565b6102e7565b60405161014f9190611287565b60405180910390f35b610172600480360381019061016d9190610eab565b610313565b60405161017f91906111ce565b60405180910390f35b6101a2600480360381019061019d9190610ed4565b6105d7565b6040516101b0929190611257565b60405180910390f35b6101d360048036038101906101ce9190610fb3565b61093a565b6040516101e091906111ce565b60405180910390f35b6101f1610983565b6040516101fe91906111ce565b60405180910390f35b610221600480360381019061021c9190610f23565b6109a7565b60405161022f929190611257565b60405180910390f35b60016020528060005260406000206000915054906101000a900473ffffffffffffffffffffffffffffffffffffffff1681565b6003818051602081018201805184825260208301602085012081835280955050505050506000915054906101000a900473ffffffffffffffffffffffffffffffffffffffff1681565b60006020528060005260406000206000915054906101000a900473ffffffffffffffffffffffffffffffffffffffff1681565b606082826040516020016102fc92919061118b565b604051602081830303815290604052905092915050565b60008073ffffffffffffffffffffffffffffffffffffffff166000808473ffffffffffffffffffffffffffffffffffffffff1673ffffffffffffffffffffffffffffffffffffffff16815260200190815260200160002060009054906101000a900473ffffffffffffffffffffffffffffffffffffffff1673ffffffffffffffffffffffffffffffffffffffff16146103e1576040517f08c379a00000000000000000000000000000000000000000000000000000000081526004016103d890611349565b60405180910390fd5b600061040c7f0000000000000000000000000000000000000000000000000000000000000000610cc7565b90508073ffffffffffffffffffffffffffffffffffffffff166319ab453c846040518263ffffffff1660e01b815260040161044791906111ce565b600060405180830381600087803b15801561046157600080fd5b505af1158015610475573d6000803e3d6000fd5b50505050806000808573ffffffffffffffffffffffffffffffffffffffff1673ffffffffffffffffffffffffffffffffffffffff16815260200190815260200160002060006101000a81548173ffffffffffffffffffffffffffffffffffffffff021916908373ffffffffffffffffffffffffffffffffffffffff16021790555082600160008373ffffffffffffffffffffffffffffffffffffffff1673ffffffffffffffffffffffffffffffffffffffff16815260200190815260200160002060006101000a81548173ffffffffffffffffffffffffffffffffffffffff021916908373ffffffffffffffffffffffffffffffffffffffff1602179055508073ffffffffffffffffffffffffffffffffffffffff168373ffffffffffffffffffffffffffffffffffffffff167fc9c1da85374d40f21fe6aa2c3d2a15674a15de248a7713deaa981df3452eddcf60405160405180910390a380915050919050565b60006060600073ffffffffffffffffffffffffffffffffffffffff16600160008773ffffffffffffffffffffffffffffffffffffffff1673ffffffffffffffffffffffffffffffffffffffff16815260200190815260200160002060009054906101000a900473ffffffffffffffffffffffffffffffffffffffff1673ffffffffffffffffffffffffffffffffffffffff1614156106aa576040517f08c379a00000000000000000000000000000000000000000000000000000000081526004016106a190611309565b60405180910390fd5b600084846040516020016106bf92919061118b565b6040516020818303038152906040529050856002826040516106e191906111b7565b908152602001604051809103902060006101000a81548173ffffffffffffffffffffffffffffffffffffffff021916908373ffffffffffffffffffffffffffffffffffffffff1602179055503360038260405161073e91906111b7565b908152602001604051809103902060006101000a81548173ffffffffffffffffffffffffffffffffffffffff021916908373ffffffffffffffffffffffffffffffffffffffff1602179055508473ffffffffffffffffffffffffffffffffffffffff163387866040516024016107b6939291906111e9565b6040516020818303038152906040527f42842e0e000000000000000000000000000000000000000000000000000000007bffffffffffffffffffffffffffffffffffffffffffffffffffffffff19166020820180517bffffffffffffffffffffffffffffffffffffffffffffffffffffffff838183161783525050505060405161084091906111b7565b6000604051808303816000865af19150503d806000811461087d576040519150601f19603f3d011682016040523d82523d6000602084013e610882565b606091505b508093508194505050838573ffffffffffffffffffffffffffffffffffffffff163373ffffffffffffffffffffffffffffffffffffffff167fa4af90483af2c59d24693408535825150914db88c20221d618cf8ae503326f6f896040516108e991906111ce565b60405180910390a482610931576040517f08c379a000000000000000000000000000000000000000000000000000000000815260040161092890611329565b60405180910390fd5b50935093915050565b6002818051602081018201805184825260208301602085012081835280955050505050506000915054906101000a900473ffffffffffffffffffffffffffffffffffffffff1681565b7f000000000000000000000000000000000000000000000000000000000000000081565b60006060600084846040516020016109c092919061118b565b604051602081830303815290604052905060006002826040516109e391906111b7565b908152602001604051809103902060009054906101000a900473ffffffffffffffffffffffffffffffffffffffff1690503373ffffffffffffffffffffffffffffffffffffffff16600383604051610a3b91906111b7565b908152602001604051809103902060009054906101000a900473ffffffffffffffffffffffffffffffffffffffff1673ffffffffffffffffffffffffffffffffffffffff1614610ac0576040517f08c379a0000000000000000000000000000000000000000000000000000000008152600401610ab7906112e9565b60405180910390fd5b6000600283604051610ad291906111b7565b908152602001604051809103902060006101000a81548173ffffffffffffffffffffffffffffffffffffffff021916908373ffffffffffffffffffffffffffffffffffffffff1602179055506000600383604051610b3091906111b7565b908152602001604051809103902060006101000a81548173ffffffffffffffffffffffffffffffffffffffff021916908373ffffffffffffffffffffffffffffffffffffffff1602179055508073ffffffffffffffffffffffffffffffffffffffff1663aef6e2678787336040518463ffffffff1660e01b8152600401610bb993929190611220565b600060405180830381600087803b158015610bd357600080fd5b505af1158015610be7573d6000803e3d6000fd5b505050506040513d6000823e3d601f19601f82011682018060405250810190610c109190610f5f565b8094508195505050848673ffffffffffffffffffffffffffffffffffffffff163373ffffffffffffffffffffffffffffffffffffffff167f02984d72263e55f9e6ae5957433f6623d0e094eb8dc7e90621042c089b9b71a484604051610c7691906111ce565b60405180910390a483610cbe576040517f08c379a0000000000000000000000000000000000000000000000000000000008152600401610cb5906112c9565b60405180910390fd5b50509250929050565b60006040517f3d602d80600a3d3981f3363d3d373d3d3d363d7300000000000000000000000081528260601b60148201527f5af43d82803e903d91602b57fd5bf3000000000000000000000000000000000060288201526037816000f0915050600073ffffffffffffffffffffffffffffffffffffffff168173ffffffffffffffffffffffffffffffffffffffff161415610d97576040517f08c379a0000000000000000000000000000000000000000000000000000000008152600401610d8e906112a9565b60405180910390fd5b919050565b6000610daf610daa8461138e565b611369565b905082815260208101848484011115610dc757600080fd5b610dd284828561143f565b509392505050565b6000610ded610de88461138e565b611369565b905082815260208101848484011115610e0557600080fd5b610e1084828561144e565b509392505050565b600081359050610e2781611623565b92915050565b600081519050610e3c8161163a565b92915050565b600082601f830112610e5357600080fd5b8135610e63848260208601610d9c565b91505092915050565b600082601f830112610e7d57600080fd5b8151610e8d848260208601610dda565b91505092915050565b600081359050610ea581611651565b92915050565b600060208284031215610ebd57600080fd5b6000610ecb84828501610e18565b91505092915050565b600080600060608486031215610ee957600080fd5b6000610ef786828701610e18565b9350506020610f0886828701610e18565b9250506040610f1986828701610e96565b9150509250925092565b60008060408385031215610f3657600080fd5b6000610f4485828601610e18565b9250506020610f5585828601610e96565b9150509250929050565b60008060408385031215610f7257600080fd5b6000610f8085828601610e2d565b925050602083015167ffffffffffffffff811115610f9d57600080fd5b610fa985828601610e6c565b9150509250929050565b600060208284031215610fc557600080fd5b600082013567ffffffffffffffff811115610fdf57600080fd5b610feb84828501610e42565b91505092915050565b610ffd816113f7565b82525050565b61101461100f826113f7565b6114b2565b82525050565b61102381611409565b82525050565b6000611034826113bf565b61103e81856113ca565b935061104e81856020860161144e565b6110578161150f565b840191505092915050565b600061106d826113bf565b61107781856113db565b935061108781856020860161144e565b80840191505092915050565b60006110a06016836113e6565b91506110ab8261152d565b602082019050919050565b60006110c36011836113e6565b91506110ce82611556565b602082019050919050565b60006110e66015836113e6565b91506110f18261157f565b602082019050919050565b6000611109600f836113e6565b9150611114826115a8565b602082019050919050565b600061112c600b836113e6565b9150611137826115d1565b602082019050919050565b600061114f601c836113e6565b915061115a826115fa565b602082019050919050565b61116e81611435565b82525050565b61118561118082611435565b6114d6565b82525050565b60006111978285611003565b6014820191506111a78284611174565b6020820191508190509392505050565b60006111c38284611062565b915081905092915050565b60006020820190506111e36000830184610ff4565b92915050565b60006060820190506111fe6000830186610ff4565b61120b6020830185610ff4565b6112186040830184611165565b949350505050565b60006060820190506112356000830186610ff4565b6112426020830185611165565b61124f6040830184610ff4565b949350505050565b600060408201905061126c600083018561101a565b818103602083015261127e8184611029565b90509392505050565b600060208201905081810360008301526112a18184611029565b905092915050565b600060208201905081810360008301526112c281611093565b9050919050565b600060208201905081810360008301526112e2816110b6565b9050919050565b60006020820190508181036000830152611302816110d9565b9050919050565b60006020820190508181036000830152611322816110fc565b9050919050565b600060208201905081810360008301526113428161111f565b9050919050565b6000602082019050818103600083015261136281611142565b9050919050565b6000611373611384565b905061137f8282611481565b919050565b6000604051905090565b600067ffffffffffffffff8211156113a9576113a86114e0565b5b6113b28261150f565b9050602081019050919050565b600081519050919050565b600082825260208201905092915050565b600081905092915050565b600082825260208201905092915050565b600061140282611415565b9050919050565b60008115159050919050565b600073ffffffffffffffffffffffffffffffffffffffff82169050919050565b6000819050919050565b82818337600083830152505050565b60005b8381101561146c578082015181840152602081019050611451565b8381111561147b576000848401525b50505050565b61148a8261150f565b810181811067ffffffffffffffff821117156114a9576114a86114e0565b5b80604052505050565b60006114bd826114c4565b9050919050565b60006114cf82611520565b9050919050565b6000819050919050565b7f4e487b7100000000000000000000000000000000000000000000000000000000600052604160045260246000fd5b6000601f19601f8301169050919050565b60008160601b9050919050565b7f455243313136373a20637265617465206661696c656400000000000000000000600082015250565b7f63616c6c732063616c6c206661696c6564000000000000000000000000000000600082015250565b7f63616c6c6572206d757374206265206c656e6465720000000000000000000000600082015250565b7f6e6f2073756d6d6f6e20666f756e640000000000000000000000000000000000600082015250565b7f63616c6c206661696c6564000000000000000000000000000000000000000000600082015250565b7f6164647265737320616c72656164792068617320612053756d6d6f6e00000000600082015250565b61162c816113f7565b811461163757600080fd5b50565b61164381611409565b811461164e57600080fd5b50565b61165a81611435565b811461166557600080fd5b5056fea264697066735822122055d1a58f75de61a97b858c0acac3218508650703b73de0aa391816ba4e89afe664736f6c63430008040033",
  "linkReferences": {},
  "deployedLinkReferences": {}
}