{
  "_format": "hh-sol-artifact-1",
  "contractName": "SummonV2Manager",
  "sourceName": "contracts/SummonV2Manager.sol",
  "abi": [
    {
      "inputs": [
        {
          "internalType": "address",
          "name": "_singleton",
          "type": "address"
        }
      ],
      "stateMutability": "nonpayable",
      "type": "constructor"
    },
    {
      "anonymous": false,
      "inputs": [
        {
          "indexed": true,
          "internalType": "address",
          "name": "owner",
          "type": "address"
        },
        {
          "indexed": true,
          "internalType": "address",
          "name": "summonAddress",
          "type": "address"
        }
      ],
      "name": "SummonCreated",
      "type": "event"
    },
    {
      "anonymous": false,
      "inputs": [
        {
          "indexed": true,
          "internalType": "address",
          "name": "lender",
          "type": "address"
        },
        {
          "indexed": false,
          "internalType": "address",
          "name": "summon",
          "type": "address"
        },
        {
          "indexed": true,
          "internalType": "address",
          "name": "tokenAddress",
          "type": "address"
        },
        {
          "indexed": true,
          "internalType": "uint256",
          "name": "tokenId",
          "type": "uint256"
        }
      ],
      "name": "TokenLendedFrom",
      "type": "event"
    },
    {
      "anonymous": false,
      "inputs": [
        {
          "indexed": true,
          "internalType": "address",
          "name": "lender",
          "type": "address"
        },
        {
          "indexed": false,
          "internalType": "address",
          "name": "summon",
          "type": "address"
        },
        {
          "indexed": true,
          "internalType": "address",
          "name": "tokenAddress",
          "type": "address"
        },
        {
          "indexed": true,
          "internalType": "uint256",
          "name": "tokenId",
          "type": "uint256"
        }
      ],
      "name": "TokenWithdrawnTo",
      "type": "event"
    },
    {
      "inputs": [
        {
          "internalType": "address",
          "name": "_owner",
          "type": "address"
        }
      ],
      "name": "CreateNewSummon",
      "outputs": [
        {
          "internalType": "address",
          "name": "",
          "type": "address"
        }
      ],
      "stateMutability": "nonpayable",
      "type": "function"
    },
    {
      "inputs": [
        {
          "internalType": "bytes",
          "name": "",
          "type": "bytes"
        }
      ],
      "name": "EncodedTokenToLender",
      "outputs": [
        {
          "internalType": "address",
          "name": "",
          "type": "address"
        }
      ],
      "stateMutability": "view",
      "type": "function"
    },
    {
      "inputs": [
        {
          "internalType": "bytes",
          "name": "",
          "type": "bytes"
        }
      ],
      "name": "EncodedTokenToSummon",
      "outputs": [
        {
          "internalType": "address",
          "name": "",
          "type": "address"
        }
      ],
      "stateMutability": "view",
      "type": "function"
    },
    {
      "inputs": [
        {
          "internalType": "address",
          "name": "",
          "type": "address"
        }
      ],
      "name": "OwnerToSummonAddress",
      "outputs": [
        {
          "internalType": "address",
          "name": "",
          "type": "address"
        }
      ],
      "stateMutability": "view",
      "type": "function"
    },
    {
      "inputs": [
        {
          "internalType": "address",
          "name": "",
          "type": "address"
        }
      ],
      "name": "SummonAddressToOwner",
      "outputs": [
        {
          "internalType": "address",
          "name": "",
          "type": "address"
        }
      ],
      "stateMutability": "view",
      "type": "function"
    },
    {
      "inputs": [
        {
          "internalType": "address",
          "name": "summon",
          "type": "address"
        },
        {
          "internalType": "address",
          "name": "tokenAddress",
          "type": "address"
        },
        {
          "internalType": "uint256",
          "name": "tokenId",
          "type": "uint256"
        }
      ],
      "name": "depositTokenToSummon",
      "outputs": [
        {
          "internalType": "bool",
          "name": "success",
          "type": "bool"
        },
        {
          "internalType": "bytes",
          "name": "data",
          "type": "bytes"
        }
      ],
      "stateMutability": "nonpayable",
      "type": "function"
    },
    {
      "inputs": [
        {
          "internalType": "address",
          "name": "tokenAddress",
          "type": "address"
        },
        {
          "internalType": "uint256",
          "name": "tokenId",
          "type": "uint256"
        }
      ],
      "name": "getEncodedToken",
      "outputs": [
        {
          "internalType": "bytes",
          "name": "encodedToken",
          "type": "bytes"
        }
      ],
      "stateMutability": "pure",
      "type": "function"
    },
    {
      "inputs": [],
      "name": "singleton",
      "outputs": [
        {
          "internalType": "address",
          "name": "",
          "type": "address"
        }
      ],
      "stateMutability": "view",
      "type": "function"
    },
    {
      "inputs": [
        {
          "internalType": "address",
          "name": "tokenAddress",
          "type": "address"
        },
        {
          "internalType": "uint256",
          "name": "tokenId",
          "type": "uint256"
        }
      ],
      "name": "withdrawTokenFromSummon",
      "outputs": [
        {
          "internalType": "bool",
          "name": "success",
          "type": "bool"
        },
        {
          "internalType": "bytes",
          "name": "data",
          "type": "bytes"
        }
      ],
      "stateMutability": "nonpayable",
      "type": "function"
    }
  ],
  "bytecode": "0x60a06040523480156200001157600080fd5b506040516200167e3803806200167e83398181016040528101906200003791906200008c565b8073ffffffffffffffffffffffffffffffffffffffff1660808173ffffffffffffffffffffffffffffffffffffffff1660601b815250505062000106565b6000815190506200008681620000ec565b92915050565b6000602082840312156200009f57600080fd5b6000620000af8482850162000075565b91505092915050565b6000620000c582620000cc565b9050919050565b600073ffffffffffffffffffffffffffffffffffffffff82169050919050565b620000f781620000b8565b81146200010357600080fd5b50565b60805160601c6115526200012c600039600081816103e8015261098501526115526000f3fe608060405234801561001057600080fd5b50600436106100935760003560e01c806372aea5701161006657806372aea570146101585780637409b9ec146101885780638a17aec9146101b9578063b62654fb146101e9578063c9ceea761461020757610093565b80631974f845146100985780631e87f20e146100c85780632c157d19146100f85780634457a39f14610128575b600080fd5b6100b260048036038101906100ad9190610e37565b610238565b6040516100bf9190611114565b60405180910390f35b6100e260048036038101906100dd9190610f3f565b61026b565b6040516100ef9190611114565b60405180910390f35b610112600480360381019061010d9190610e37565b6102b4565b60405161011f9190611114565b60405180910390f35b610142600480360381019061013d9190610eaf565b6102e7565b60405161014f91906111cd565b60405180910390f35b610172600480360381019061016d9190610e37565b610313565b60405161017f9190611114565b60405180910390f35b6101a2600480360381019061019d9190610e60565b6105d7565b6040516101b092919061119d565b60405180910390f35b6101d360048036038101906101ce9190610f3f565b61093a565b6040516101e09190611114565b60405180910390f35b6101f1610983565b6040516101fe9190611114565b60405180910390f35b610221600480360381019061021c9190610eaf565b6109a7565b60405161022f92919061119d565b60405180910390f35b60016020528060005260406000206000915054906101000a900473ffffffffffffffffffffffffffffffffffffffff1681565b6003818051602081018201805184825260208301602085012081835280955050505050506000915054906101000a900473ffffffffffffffffffffffffffffffffffffffff1681565b60006020528060005260406000206000915054906101000a900473ffffffffffffffffffffffffffffffffffffffff1681565b606082826040516020016102fc9291906110d1565b604051602081830303815290604052905092915050565b60008073ffffffffffffffffffffffffffffffffffffffff166000808473ffffffffffffffffffffffffffffffffffffffff1673ffffffffffffffffffffffffffffffffffffffff16815260200190815260200160002060009054906101000a900473ffffffffffffffffffffffffffffffffffffffff1673ffffffffffffffffffffffffffffffffffffffff16146103e1576040517f08c379a00000000000000000000000000000000000000000000000000000000081526004016103d89061124f565b60405180910390fd5b600061040c7f0000000000000000000000000000000000000000000000000000000000000000610c53565b90508073ffffffffffffffffffffffffffffffffffffffff166319ab453c846040518263ffffffff1660e01b81526004016104479190611114565b600060405180830381600087803b15801561046157600080fd5b505af1158015610475573d6000803e3d6000fd5b50505050806000808573ffffffffffffffffffffffffffffffffffffffff1673ffffffffffffffffffffffffffffffffffffffff16815260200190815260200160002060006101000a81548173ffffffffffffffffffffffffffffffffffffffff021916908373ffffffffffffffffffffffffffffffffffffffff16021790555082600160008373ffffffffffffffffffffffffffffffffffffffff1673ffffffffffffffffffffffffffffffffffffffff16815260200190815260200160002060006101000a81548173ffffffffffffffffffffffffffffffffffffffff021916908373ffffffffffffffffffffffffffffffffffffffff1602179055508073ffffffffffffffffffffffffffffffffffffffff168373ffffffffffffffffffffffffffffffffffffffff167fc9c1da85374d40f21fe6aa2c3d2a15674a15de248a7713deaa981df3452eddcf60405160405180910390a380915050919050565b60006060600073ffffffffffffffffffffffffffffffffffffffff16600160008773ffffffffffffffffffffffffffffffffffffffff1673ffffffffffffffffffffffffffffffffffffffff16815260200190815260200160002060009054906101000a900473ffffffffffffffffffffffffffffffffffffffff1673ffffffffffffffffffffffffffffffffffffffff1614156106aa576040517f08c379a00000000000000000000000000000000000000000000000000000000081526004016106a19061120f565b60405180910390fd5b600084846040516020016106bf9291906110d1565b6040516020818303038152906040529050856002826040516106e191906110fd565b908152602001604051809103902060006101000a81548173ffffffffffffffffffffffffffffffffffffffff021916908373ffffffffffffffffffffffffffffffffffffffff1602179055503360038260405161073e91906110fd565b908152602001604051809103902060006101000a81548173ffffffffffffffffffffffffffffffffffffffff021916908373ffffffffffffffffffffffffffffffffffffffff1602179055508473ffffffffffffffffffffffffffffffffffffffff163387866040516024016107b69392919061112f565b6040516020818303038152906040527f42842e0e000000000000000000000000000000000000000000000000000000007bffffffffffffffffffffffffffffffffffffffffffffffffffffffff19166020820180517bffffffffffffffffffffffffffffffffffffffffffffffffffffffff838183161783525050505060405161084091906110fd565b6000604051808303816000865af19150503d806000811461087d576040519150601f19603f3d011682016040523d82523d6000602084013e610882565b606091505b508093508194505050838573ffffffffffffffffffffffffffffffffffffffff163373ffffffffffffffffffffffffffffffffffffffff167fa4af90483af2c59d24693408535825150914db88c20221d618cf8ae503326f6f896040516108e99190611114565b60405180910390a482610931576040517f08c379a00000000000000000000000000000000000000000000000000000000081526004016109289061122f565b60405180910390fd5b50935093915050565b6002818051602081018201805184825260208301602085012081835280955050505050506000915054906101000a900473ffffffffffffffffffffffffffffffffffffffff1681565b7f000000000000000000000000000000000000000000000000000000000000000081565b60006060600084846040516020016109c09291906110d1565b604051602081830303815290604052905060006002826040516109e391906110fd565b908152602001604051809103902060006101000a81548173ffffffffffffffffffffffffffffffffffffffff021916908373ffffffffffffffffffffffffffffffffffffffff1602179055506000600382604051610a4191906110fd565b908152602001604051809103902060006101000a81548173ffffffffffffffffffffffffffffffffffffffff021916908373ffffffffffffffffffffffffffffffffffffffff160217905550600281604051610a9d91906110fd565b908152602001604051809103902060009054906101000a900473ffffffffffffffffffffffffffffffffffffffff1673ffffffffffffffffffffffffffffffffffffffff1663aef6e2678686336040518463ffffffff1660e01b8152600401610b0893929190611166565b600060405180830381600087803b158015610b2257600080fd5b505af1158015610b36573d6000803e3d6000fd5b505050506040513d6000823e3d601f19601f82011682018060405250810190610b5f9190610eeb565b8093508194505050838573ffffffffffffffffffffffffffffffffffffffff163373ffffffffffffffffffffffffffffffffffffffff167f02984d72263e55f9e6ae5957433f6623d0e094eb8dc7e90621042c089b9b71a4600285604051610bc791906110fd565b908152602001604051809103902060009054906101000a900473ffffffffffffffffffffffffffffffffffffffff16604051610c039190611114565b60405180910390a482610c4b576040517f08c379a0000000000000000000000000000000000000000000000000000000008152600401610c429061122f565b60405180910390fd5b509250929050565b60006040517f3d602d80600a3d3981f3363d3d373d3d3d363d7300000000000000000000000081528260601b60148201527f5af43d82803e903d91602b57fd5bf3000000000000000000000000000000000060288201526037816000f0915050600073ffffffffffffffffffffffffffffffffffffffff168173ffffffffffffffffffffffffffffffffffffffff161415610d23576040517f08c379a0000000000000000000000000000000000000000000000000000000008152600401610d1a906111ef565b60405180910390fd5b919050565b6000610d3b610d3684611294565b61126f565b905082815260208101848484011115610d5357600080fd5b610d5e848285611345565b509392505050565b6000610d79610d7484611294565b61126f565b905082815260208101848484011115610d9157600080fd5b610d9c848285611354565b509392505050565b600081359050610db3816114d7565b92915050565b600081519050610dc8816114ee565b92915050565b600082601f830112610ddf57600080fd5b8135610def848260208601610d28565b91505092915050565b600082601f830112610e0957600080fd5b8151610e19848260208601610d66565b91505092915050565b600081359050610e3181611505565b92915050565b600060208284031215610e4957600080fd5b6000610e5784828501610da4565b91505092915050565b600080600060608486031215610e7557600080fd5b6000610e8386828701610da4565b9350506020610e9486828701610da4565b9250506040610ea586828701610e22565b9150509250925092565b60008060408385031215610ec257600080fd5b6000610ed085828601610da4565b9250506020610ee185828601610e22565b9150509250929050565b60008060408385031215610efe57600080fd5b6000610f0c85828601610db9565b925050602083015167ffffffffffffffff811115610f2957600080fd5b610f3585828601610df8565b9150509250929050565b600060208284031215610f5157600080fd5b600082013567ffffffffffffffff811115610f6b57600080fd5b610f7784828501610dce565b91505092915050565b610f89816112fd565b82525050565b610fa0610f9b826112fd565b6113b8565b82525050565b610faf8161130f565b82525050565b6000610fc0826112c5565b610fca81856112d0565b9350610fda818560208601611354565b610fe381611415565b840191505092915050565b6000610ff9826112c5565b61100381856112e1565b9350611013818560208601611354565b80840191505092915050565b600061102c6016836112ec565b915061103782611433565b602082019050919050565b600061104f600f836112ec565b915061105a8261145c565b602082019050919050565b6000611072600b836112ec565b915061107d82611485565b602082019050919050565b6000611095601c836112ec565b91506110a0826114ae565b602082019050919050565b6110b48161133b565b82525050565b6110cb6110c68261133b565b6113dc565b82525050565b60006110dd8285610f8f565b6014820191506110ed82846110ba565b6020820191508190509392505050565b60006111098284610fee565b915081905092915050565b60006020820190506111296000830184610f80565b92915050565b60006060820190506111446000830186610f80565b6111516020830185610f80565b61115e60408301846110ab565b949350505050565b600060608201905061117b6000830186610f80565b61118860208301856110ab565b6111956040830184610f80565b949350505050565b60006040820190506111b26000830185610fa6565b81810360208301526111c48184610fb5565b90509392505050565b600060208201905081810360008301526111e78184610fb5565b905092915050565b600060208201905081810360008301526112088161101f565b9050919050565b6000602082019050818103600083015261122881611042565b9050919050565b6000602082019050818103600083015261124881611065565b9050919050565b6000602082019050818103600083015261126881611088565b9050919050565b600061127961128a565b90506112858282611387565b919050565b6000604051905090565b600067ffffffffffffffff8211156112af576112ae6113e6565b5b6112b882611415565b9050602081019050919050565b600081519050919050565b600082825260208201905092915050565b600081905092915050565b600082825260208201905092915050565b60006113088261131b565b9050919050565b60008115159050919050565b600073ffffffffffffffffffffffffffffffffffffffff82169050919050565b6000819050919050565b82818337600083830152505050565b60005b83811015611372578082015181840152602081019050611357565b83811115611381576000848401525b50505050565b61139082611415565b810181811067ffffffffffffffff821117156113af576113ae6113e6565b5b80604052505050565b60006113c3826113ca565b9050919050565b60006113d582611426565b9050919050565b6000819050919050565b7f4e487b7100000000000000000000000000000000000000000000000000000000600052604160045260246000fd5b6000601f19601f8301169050919050565b60008160601b9050919050565b7f455243313136373a20637265617465206661696c656400000000000000000000600082015250565b7f6e6f2073756d6d6f6e20666f756e640000000000000000000000000000000000600082015250565b7f63616c6c206661696c6564000000000000000000000000000000000000000000600082015250565b7f6164647265737320616c72656164792068617320612053756d6d6f6e00000000600082015250565b6114e0816112fd565b81146114eb57600080fd5b50565b6114f78161130f565b811461150257600080fd5b50565b61150e8161133b565b811461151957600080fd5b5056fea26469706673582212200d9a38f71f22c69cd25059b31275da02a04cab347c46ec212d72de59f45bee5c64736f6c63430008040033",
  "linkReferences": {},
  "deployedLinkReferences": {}
}