{
  "_format": "hh-sol-artifact-1",
  "contractName": "Summon",
  "sourceName": "contracts/SummonMoonBirds/SummonBirds.sol",
  "abi": [
    {
      "anonymous": false,
      "inputs": [
        {
          "indexed": true,
          "internalType": "address",
          "name": "lender",
          "type": "address"
        },
        {
          "indexed": true,
          "internalType": "uint256",
          "name": "tokenId",
          "type": "uint256"
        }
      ],
      "name": "MoonBirdLendedFrom",
      "type": "event"
    },
    {
      "anonymous": false,
      "inputs": [
        {
          "indexed": true,
          "internalType": "address",
          "name": "lender",
          "type": "address"
        },
        {
          "indexed": true,
          "internalType": "uint256",
          "name": "tokenId",
          "type": "uint256"
        }
      ],
      "name": "MoonBirdRetrievedTo",
      "type": "event"
    },
    {
      "inputs": [
        {
          "internalType": "bytes",
          "name": "",
          "type": "bytes"
        }
      ],
      "name": "EncodedMoonbirdToLender",
      "outputs": [
        {
          "internalType": "address",
          "name": "",
          "type": "address"
        }
      ],
      "stateMutability": "view",
      "type": "function"
    },
    {
      "inputs": [],
      "name": "MOONBIRDS_ADDRESS",
      "outputs": [
        {
          "internalType": "address",
          "name": "",
          "type": "address"
        }
      ],
      "stateMutability": "view",
      "type": "function"
    },
    {
      "inputs": [],
      "name": "MoonBirdsAddress",
      "outputs": [
        {
          "internalType": "address",
          "name": "",
          "type": "address"
        }
      ],
      "stateMutability": "view",
      "type": "function"
    },
    {
      "inputs": [],
      "name": "NAME",
      "outputs": [
        {
          "internalType": "string",
          "name": "",
          "type": "string"
        }
      ],
      "stateMutability": "view",
      "type": "function"
    },
    {
      "inputs": [],
      "name": "SummonManager",
      "outputs": [
        {
          "internalType": "address",
          "name": "",
          "type": "address"
        }
      ],
      "stateMutability": "view",
      "type": "function"
    },
    {
      "inputs": [],
      "name": "VERSION",
      "outputs": [
        {
          "internalType": "string",
          "name": "",
          "type": "string"
        }
      ],
      "stateMutability": "view",
      "type": "function"
    },
    {
      "inputs": [
        {
          "internalType": "bytes",
          "name": "_encodedToken",
          "type": "bytes"
        }
      ],
      "name": "getDecodedToken",
      "outputs": [
        {
          "internalType": "address",
          "name": "tokenAddress",
          "type": "address"
        },
        {
          "internalType": "uint256",
          "name": "tokenId",
          "type": "uint256"
        }
      ],
      "stateMutability": "pure",
      "type": "function"
    },
    {
      "inputs": [
        {
          "internalType": "address",
          "name": "tokenAddress",
          "type": "address"
        },
        {
          "internalType": "uint256",
          "name": "tokenId",
          "type": "uint256"
        }
      ],
      "name": "getEncodedToken",
      "outputs": [
        {
          "internalType": "bytes",
          "name": "encodedToken",
          "type": "bytes"
        }
      ],
      "stateMutability": "pure",
      "type": "function"
    },
    {
      "inputs": [
        {
          "internalType": "address",
          "name": "_owner",
          "type": "address"
        },
        {
          "internalType": "address",
          "name": "_moonbirdsAddress",
          "type": "address"
        }
      ],
      "name": "init",
      "outputs": [],
      "stateMutability": "nonpayable",
      "type": "function"
    },
    {
      "inputs": [
        {
          "internalType": "bytes32",
          "name": "_hash",
          "type": "bytes32"
        },
        {
          "internalType": "bytes",
          "name": "_signature",
          "type": "bytes"
        }
      ],
      "name": "isValidSignature",
      "outputs": [
        {
          "internalType": "bytes4",
          "name": "",
          "type": "bytes4"
        }
      ],
      "stateMutability": "view",
      "type": "function"
    },
    {
      "inputs": [
        {
          "internalType": "address",
          "name": "",
          "type": "address"
        },
        {
          "internalType": "address",
          "name": "",
          "type": "address"
        },
        {
          "internalType": "uint256[]",
          "name": "",
          "type": "uint256[]"
        },
        {
          "internalType": "uint256[]",
          "name": "",
          "type": "uint256[]"
        },
        {
          "internalType": "bytes",
          "name": "",
          "type": "bytes"
        }
      ],
      "name": "onERC1155BatchReceived",
      "outputs": [
        {
          "internalType": "bytes4",
          "name": "",
          "type": "bytes4"
        }
      ],
      "stateMutability": "pure",
      "type": "function"
    },
    {
      "inputs": [
        {
          "internalType": "address",
          "name": "",
          "type": "address"
        },
        {
          "internalType": "address",
          "name": "",
          "type": "address"
        },
        {
          "internalType": "uint256",
          "name": "",
          "type": "uint256"
        },
        {
          "internalType": "uint256",
          "name": "",
          "type": "uint256"
        },
        {
          "internalType": "bytes",
          "name": "",
          "type": "bytes"
        }
      ],
      "name": "onERC1155Received",
      "outputs": [
        {
          "internalType": "bytes4",
          "name": "",
          "type": "bytes4"
        }
      ],
      "stateMutability": "pure",
      "type": "function"
    },
    {
      "inputs": [
        {
          "internalType": "address",
          "name": "",
          "type": "address"
        },
        {
          "internalType": "address",
          "name": "_from",
          "type": "address"
        },
        {
          "internalType": "uint256",
          "name": "_tokenId",
          "type": "uint256"
        },
        {
          "internalType": "bytes",
          "name": "",
          "type": "bytes"
        }
      ],
      "name": "onERC721Received",
      "outputs": [
        {
          "internalType": "bytes4",
          "name": "",
          "type": "bytes4"
        }
      ],
      "stateMutability": "nonpayable",
      "type": "function"
    },
    {
      "inputs": [],
      "name": "owner",
      "outputs": [
        {
          "internalType": "address",
          "name": "",
          "type": "address"
        }
      ],
      "stateMutability": "view",
      "type": "function"
    },
    {
      "inputs": [
        {
          "internalType": "bytes32",
          "name": "_ethSignedMessageHash",
          "type": "bytes32"
        },
        {
          "internalType": "bytes",
          "name": "_signature",
          "type": "bytes"
        }
      ],
      "name": "recoverSigner",
      "outputs": [
        {
          "internalType": "address",
          "name": "",
          "type": "address"
        }
      ],
      "stateMutability": "pure",
      "type": "function"
    },
    {
      "inputs": [
        {
          "internalType": "uint256",
          "name": "tokenId",
          "type": "uint256"
        }
      ],
      "name": "safeWithdrawMoonBird",
      "outputs": [
        {
          "internalType": "bool",
          "name": "success",
          "type": "bool"
        },
        {
          "internalType": "bytes",
          "name": "data",
          "type": "bytes"
        }
      ],
      "stateMutability": "nonpayable",
      "type": "function"
    },
    {
      "inputs": [
        {
          "internalType": "bytes",
          "name": "sig",
          "type": "bytes"
        }
      ],
      "name": "splitSignature",
      "outputs": [
        {
          "internalType": "bytes32",
          "name": "r",
          "type": "bytes32"
        },
        {
          "internalType": "bytes32",
          "name": "s",
          "type": "bytes32"
        },
        {
          "internalType": "uint8",
          "name": "v",
          "type": "uint8"
        }
      ],
      "stateMutability": "pure",
      "type": "function"
    },
    {
      "inputs": [
        {
          "internalType": "bytes4",
          "name": "interfaceId",
          "type": "bytes4"
        }
      ],
      "name": "supportsInterface",
      "outputs": [
        {
          "internalType": "bool",
          "name": "",
          "type": "bool"
        }
      ],
      "stateMutability": "view",
      "type": "function"
    },
    {
      "inputs": [
        {
          "internalType": "address",
          "name": "",
          "type": "address"
        },
        {
          "internalType": "address",
          "name": "",
          "type": "address"
        },
        {
          "internalType": "address",
          "name": "",
          "type": "address"
        },
        {
          "internalType": "uint256",
          "name": "",
          "type": "uint256"
        },
        {
          "internalType": "bytes",
          "name": "",
          "type": "bytes"
        },
        {
          "internalType": "bytes",
          "name": "",
          "type": "bytes"
        }
      ],
      "name": "tokensReceived",
      "outputs": [],
      "stateMutability": "pure",
      "type": "function"
    }
  ],
  "bytecode": "0x608060405234801561001057600080fd5b50611c26806100206000396000f3fe608060405234801561001057600080fd5b50600436106101205760003560e01c806397aba7f9116100ad578063cc95b55f11610071578063cc95b55f1461037f578063e6e744981461039d578063f09a4016146103bb578063f23a6e61146103d7578063ffa1ad741461040757610120565b806397aba7f9146102b1578063a3f4df7e146102e1578063a7bb5803146102ff578063bc197c8114610331578063bfede9c21461036157610120565b80632f83ff0c116100f45780632f83ff0c146101d15780634457a39f14610202578063641259b41461023257806383b1a647146102635780638da5cb5b1461029357610120565b806223de291461012557806301ffc9a714610141578063150b7a02146101715780631626ba7e146101a1575b600080fd5b61013f600480360381019061013a9190611114565b610425565b005b61015b6004803603810190610156919061149d565b61042f565b604051610168919061176d565b60405180910390f35b61018b600480360381019061018691906112a3565b610569565b6040516101989190611834565b60405180910390f35b6101bb60048036038101906101b691906113f1565b61069d565b6040516101c89190611834565b60405180910390f35b6101eb60048036038101906101e691906114c6565b610762565b6040516101f9929190611744565b60405180910390f35b61021c600480360381019061021791906113b5565b610783565b604051610229919061184f565b60405180910390f35b61024c6004803603810190610247919061154c565b6107af565b60405161025a929190611788565b60405180910390f35b61027d6004803603810190610278919061150b565b610b0e565b60405161028a91906116f2565b60405180910390f35b61029b610b57565b6040516102a891906116f2565b60405180910390f35b6102cb60048036038101906102c69190611449565b610b7b565b6040516102d891906116f2565b60405180910390f35b6102e9610bea565b6040516102f69190611871565b60405180910390f35b6103196004803603810190610314919061150b565b610c23565b604051610328939291906117b8565b60405180910390f35b61034b600480360381019061034691906111d7565b610c8b565b6040516103589190611834565b60405180910390f35b610369610ca3565b60405161037691906116f2565b60405180910390f35b610387610cc9565b60405161039491906116f2565b60405180910390f35b6103a5610cef565b6040516103b291906116f2565b60405180910390f35b6103d560048036038101906103d091906110d8565b610d15565b005b6103f160048036038101906103ec9190611323565b610ee8565b6040516103fe9190611834565b60405180910390f35b61040f610efe565b60405161041c9190611871565b60405180910390f35b5050505050505050565b60007f4e2312e0000000000000000000000000000000000000000000000000000000007bffffffffffffffffffffffffffffffffffffffffffffffffffffffff1916827bffffffffffffffffffffffffffffffffffffffffffffffffffffffff191614806104fa57507f150b7a02000000000000000000000000000000000000000000000000000000007bffffffffffffffffffffffffffffffffffffffffffffffffffffffff1916827bffffffffffffffffffffffffffffffffffffffffffffffffffffffff1916145b8061056257507f01ffc9a7000000000000000000000000000000000000000000000000000000007bffffffffffffffffffffffffffffffffffffffffffffffffffffffff1916827bffffffffffffffffffffffffffffffffffffffffffffffffffffffff1916145b9050919050565b6000600360009054906101000a900473ffffffffffffffffffffffffffffffffffffffff1673ffffffffffffffffffffffffffffffffffffffff163373ffffffffffffffffffffffffffffffffffffffff16141561068a57600033856040516020016105d6929190611744565b6040516020818303038152906040529050856004826040516105f891906116db565b908152602001604051809103902060006101000a81548173ffffffffffffffffffffffffffffffffffffffff021916908373ffffffffffffffffffffffffffffffffffffffff160217905550848673ffffffffffffffffffffffffffffffffffffffff167f4a2cfb1bdeab8d6bec71e25f25d3cda681b559c71f0311a859c20860852eaa9360405160405180910390a3505b63150b7a0260e01b905095945050505050565b60008060009054906101000a900473ffffffffffffffffffffffffffffffffffffffff1673ffffffffffffffffffffffffffffffffffffffff166107258585858080601f016020809104026020016040519081016040528093929190818152602001838380828437600081840152601f19601f82011690508083019250505050505050610b7b565b73ffffffffffffffffffffffffffffffffffffffff16141561075057631626ba7e60e01b905061075b565b63ffffffff60e01b90505b9392505050565b6000808383810190610774919061109c565b80925081935050509250929050565b60608282604051602001610798929190611744565b604051602081830303815290604052905092915050565b600060606000600360009054906101000a900473ffffffffffffffffffffffffffffffffffffffff16846040516020016107ea929190611744565b6040516020818303038152906040529050600060048260405161080d91906116db565b908152602001604051809103902060009054906101000a900473ffffffffffffffffffffffffffffffffffffffff1690508073ffffffffffffffffffffffffffffffffffffffff163373ffffffffffffffffffffffffffffffffffffffff1614806108c3575060008054906101000a900473ffffffffffffffffffffffffffffffffffffffff1673ffffffffffffffffffffffffffffffffffffffff163373ffffffffffffffffffffffffffffffffffffffff16145b610902576040517f08c379a00000000000000000000000000000000000000000000000000000000081526004016108f990611893565b60405180910390fd5b600060048360405161091491906116db565b908152602001604051809103902060006101000a81548173ffffffffffffffffffffffffffffffffffffffff021916908373ffffffffffffffffffffffffffffffffffffffff160217905550848173ffffffffffffffffffffffffffffffffffffffff167f6ac7eb65de93c0fcde2094ae05cc3907ac639493d5f87b05dc0e02819f67850c60405160405180910390a3600360009054906101000a900473ffffffffffffffffffffffffffffffffffffffff1673ffffffffffffffffffffffffffffffffffffffff163082876040516024016109f29392919061170d565b6040516020818303038152906040527faa967878000000000000000000000000000000000000000000000000000000007bffffffffffffffffffffffffffffffffffffffffffffffffffffffff19166020820180517bffffffffffffffffffffffffffffffffffffffffffffffffffffffff8381831617835250505050604051610a7c91906116db565b6000604051808303816000865af19150503d8060008114610ab9576040519150601f19603f3d011682016040523d82523d6000602084013e610abe565b606091505b50809450819550505083610b07576040517f08c379a0000000000000000000000000000000000000000000000000000000008152600401610afe906118b3565b60405180910390fd5b5050915091565b6004818051602081018201805184825260208301602085012081835280955050505050506000915054906101000a900473ffffffffffffffffffffffffffffffffffffffff1681565b60008054906101000a900473ffffffffffffffffffffffffffffffffffffffff1681565b600080600080610b8a85610c23565b92509250925060018682858560405160008152602001604052604051610bb394939291906117ef565b6020604051602081039080840390855afa158015610bd5573d6000803e3d6000fd5b50505060206040510351935050505092915050565b6040518060400160405280601a81526020017f4d6f6f6e42697264732043616c6c6261636b2048616e646c657200000000000081525081565b60008060006041845114610c6c576040517f08c379a0000000000000000000000000000000000000000000000000000000008152600401610c63906118d3565b60405180910390fd5b6020840151925060408401519150606084015160001a90509193909250565b600063bc197c8160e01b905098975050505050505050565b600260009054906101000a900473ffffffffffffffffffffffffffffffffffffffff1681565b600160009054906101000a900473ffffffffffffffffffffffffffffffffffffffff1681565b600360009054906101000a900473ffffffffffffffffffffffffffffffffffffffff1681565b600073ffffffffffffffffffffffffffffffffffffffff1660008054906101000a900473ffffffffffffffffffffffffffffffffffffffff1673ffffffffffffffffffffffffffffffffffffffff16148015610dbf5750600073ffffffffffffffffffffffffffffffffffffffff16600160009054906101000a900473ffffffffffffffffffffffffffffffffffffffff1673ffffffffffffffffffffffffffffffffffffffff16145b8015610e195750600073ffffffffffffffffffffffffffffffffffffffff16600260009054906101000a900473ffffffffffffffffffffffffffffffffffffffff1673ffffffffffffffffffffffffffffffffffffffff16145b610e2257600080fd5b816000806101000a81548173ffffffffffffffffffffffffffffffffffffffff021916908373ffffffffffffffffffffffffffffffffffffffff16021790555033600160006101000a81548173ffffffffffffffffffffffffffffffffffffffff021916908373ffffffffffffffffffffffffffffffffffffffff16021790555080600360006101000a81548173ffffffffffffffffffffffffffffffffffffffff021916908373ffffffffffffffffffffffffffffffffffffffff1602179055505050565b600063f23a6e6160e01b90509695505050505050565b6040518060400160405280600581526020017f312e302e3000000000000000000000000000000000000000000000000000000081525081565b6000610f4a610f4584611918565b6118f3565b905082815260208101848484011115610f6257600080fd5b610f6d848285611a29565b509392505050565b600081359050610f8481611b7d565b92915050565b600081359050610f9981611b94565b92915050565b60008083601f840112610fb157600080fd5b8235905067ffffffffffffffff811115610fca57600080fd5b602083019150836020820283011115610fe257600080fd5b9250929050565b600081359050610ff881611bab565b92915050565b60008135905061100d81611bc2565b92915050565b60008083601f84011261102557600080fd5b8235905067ffffffffffffffff81111561103e57600080fd5b60208301915083600182028301111561105657600080fd5b9250929050565b600082601f83011261106e57600080fd5b813561107e848260208601610f37565b91505092915050565b60008135905061109681611bd9565b92915050565b600080604083850312156110af57600080fd5b60006110bd85828601610f8a565b92505060206110ce85828601611087565b9150509250929050565b600080604083850312156110eb57600080fd5b60006110f985828601610f75565b925050602061110a85828601610f75565b9150509250929050565b60008060008060008060008060c0898b03121561113057600080fd5b600061113e8b828c01610f75565b985050602061114f8b828c01610f75565b97505060406111608b828c01610f75565b96505060606111718b828c01611087565b955050608089013567ffffffffffffffff81111561118e57600080fd5b61119a8b828c01611013565b945094505060a089013567ffffffffffffffff8111156111b957600080fd5b6111c58b828c01611013565b92509250509295985092959890939650565b60008060008060008060008060a0898b0312156111f357600080fd5b60006112018b828c01610f75565b98505060206112128b828c01610f75565b975050604089013567ffffffffffffffff81111561122f57600080fd5b61123b8b828c01610f9f565b9650965050606089013567ffffffffffffffff81111561125a57600080fd5b6112668b828c01610f9f565b9450945050608089013567ffffffffffffffff81111561128557600080fd5b6112918b828c01611013565b92509250509295985092959890939650565b6000806000806000608086880312156112bb57600080fd5b60006112c988828901610f75565b95505060206112da88828901610f75565b94505060406112eb88828901611087565b935050606086013567ffffffffffffffff81111561130857600080fd5b61131488828901611013565b92509250509295509295909350565b60008060008060008060a0878903121561133c57600080fd5b600061134a89828a01610f75565b965050602061135b89828a01610f75565b955050604061136c89828a01611087565b945050606061137d89828a01611087565b935050608087013567ffffffffffffffff81111561139a57600080fd5b6113a689828a01611013565b92509250509295509295509295565b600080604083850312156113c857600080fd5b60006113d685828601610f75565b92505060206113e785828601611087565b9150509250929050565b60008060006040848603121561140657600080fd5b600061141486828701610fe9565b935050602084013567ffffffffffffffff81111561143157600080fd5b61143d86828701611013565b92509250509250925092565b6000806040838503121561145c57600080fd5b600061146a85828601610fe9565b925050602083013567ffffffffffffffff81111561148757600080fd5b6114938582860161105d565b9150509250929050565b6000602082840312156114af57600080fd5b60006114bd84828501610ffe565b91505092915050565b600080602083850312156114d957600080fd5b600083013567ffffffffffffffff8111156114f357600080fd5b6114ff85828601611013565b92509250509250929050565b60006020828403121561151d57600080fd5b600082013567ffffffffffffffff81111561153757600080fd5b6115438482850161105d565b91505092915050565b60006020828403121561155e57600080fd5b600061156c84828501611087565b91505092915050565b61157e8161198c565b82525050565b61158d816119b0565b82525050565b61159c816119bc565b82525050565b6115ab816119c6565b82525050565b60006115bc82611949565b6115c6818561195f565b93506115d6818560208601611a38565b6115df81611acb565b840191505092915050565b60006115f582611949565b6115ff8185611970565b935061160f818560208601611a38565b80840191505092915050565b600061162682611954565b611630818561197b565b9350611640818560208601611a38565b61164981611acb565b840191505092915050565b600061166160258361197b565b915061166c82611adc565b604082019050919050565b6000611684600b8361197b565b915061168f82611b2b565b602082019050919050565b60006116a760188361197b565b91506116b282611b54565b602082019050919050565b6116c681611a12565b82525050565b6116d581611a1c565b82525050565b60006116e782846115ea565b915081905092915050565b60006020820190506117076000830184611575565b92915050565b60006060820190506117226000830186611575565b61172f6020830185611575565b61173c60408301846116bd565b949350505050565b60006040820190506117596000830185611575565b61176660208301846116bd565b9392505050565b60006020820190506117826000830184611584565b92915050565b600060408201905061179d6000830185611584565b81810360208301526117af81846115b1565b90509392505050565b60006060820190506117cd6000830186611593565b6117da6020830185611593565b6117e760408301846116cc565b949350505050565b60006080820190506118046000830187611593565b61181160208301866116cc565b61181e6040830185611593565b61182b6060830184611593565b95945050505050565b600060208201905061184960008301846115a2565b92915050565b6000602082019050818103600083015261186981846115b1565b905092915050565b6000602082019050818103600083015261188b818461161b565b905092915050565b600060208201905081810360008301526118ac81611654565b9050919050565b600060208201905081810360008301526118cc81611677565b9050919050565b600060208201905081810360008301526118ec8161169a565b9050919050565b60006118fd61190e565b90506119098282611a6b565b919050565b6000604051905090565b600067ffffffffffffffff82111561193357611932611a9c565b5b61193c82611acb565b9050602081019050919050565b600081519050919050565b600081519050919050565b600082825260208201905092915050565b600081905092915050565b600082825260208201905092915050565b6000611997826119f2565b9050919050565b60006119a9826119f2565b9050919050565b60008115159050919050565b6000819050919050565b60007fffffffff0000000000000000000000000000000000000000000000000000000082169050919050565b600073ffffffffffffffffffffffffffffffffffffffff82169050919050565b6000819050919050565b600060ff82169050919050565b82818337600083830152505050565b60005b83811015611a56578082015181840152602081019050611a3b565b83811115611a65576000848401525b50505050565b611a7482611acb565b810181811067ffffffffffffffff82111715611a9357611a92611a9c565b5b80604052505050565b7f4e487b7100000000000000000000000000000000000000000000000000000000600052604160045260246000fd5b6000601f19601f8301169050919050565b7f63616e206f6e6c792062652063616c6c6564206279206c656e646572206f722060008201527f6f776e6572000000000000000000000000000000000000000000000000000000602082015250565b7f63616c6c206661696c6564000000000000000000000000000000000000000000600082015250565b7f696e76616c6964207369676e6174757265206c656e6774680000000000000000600082015250565b611b868161198c565b8114611b9157600080fd5b50565b611b9d8161199e565b8114611ba857600080fd5b50565b611bb4816119bc565b8114611bbf57600080fd5b50565b611bcb816119c6565b8114611bd657600080fd5b50565b611be281611a12565b8114611bed57600080fd5b5056fea2646970667358221220c8bfefb3fa55d8f725adfb6adb48f5da89438caf339e08365436d1360b45a21d64736f6c63430008040033",
  "linkReferences": {},
  "deployedLinkReferences": {}
}