{
  "_format": "hh-sol-artifact-1",
  "contractName": "SummonFactoryV2",
  "sourceName": "contracts/SummonFactoryV2.sol",
  "abi": [
    {
      "anonymous": false,
      "inputs": [
        {
          "indexed": false,
          "internalType": "address",
          "name": "owner",
          "type": "address"
        },
        {
          "indexed": false,
          "internalType": "address",
          "name": "summonAddress",
          "type": "address"
        }
      ],
      "name": "SummonCreated",
      "type": "event"
    },
    {
      "inputs": [
        {
          "internalType": "address",
          "name": "_owner",
          "type": "address"
        }
      ],
      "name": "CreateNewSummon",
      "outputs": [],
      "stateMutability": "nonpayable",
      "type": "function"
    },
    {
      "inputs": [
        {
          "internalType": "bytes",
          "name": "",
          "type": "bytes"
        }
      ],
      "name": "EncodedTokenToLender",
      "outputs": [
        {
          "internalType": "address",
          "name": "",
          "type": "address"
        }
      ],
      "stateMutability": "view",
      "type": "function"
    },
    {
      "inputs": [
        {
          "internalType": "bytes",
          "name": "",
          "type": "bytes"
        }
      ],
      "name": "EncodedTokenToSummon",
      "outputs": [
        {
          "internalType": "address",
          "name": "",
          "type": "address"
        }
      ],
      "stateMutability": "view",
      "type": "function"
    },
    {
      "inputs": [
        {
          "internalType": "address",
          "name": "",
          "type": "address"
        }
      ],
      "name": "OwnerToSummonAddress",
      "outputs": [
        {
          "internalType": "address",
          "name": "",
          "type": "address"
        }
      ],
      "stateMutability": "view",
      "type": "function"
    },
    {
      "inputs": [
        {
          "internalType": "address",
          "name": "",
          "type": "address"
        }
      ],
      "name": "SummonAddressToOwner",
      "outputs": [
        {
          "internalType": "address",
          "name": "",
          "type": "address"
        }
      ],
      "stateMutability": "view",
      "type": "function"
    },
    {
      "inputs": [
        {
          "internalType": "address",
          "name": "_summon",
          "type": "address"
        },
        {
          "internalType": "address",
          "name": "tokenAddress",
          "type": "address"
        },
        {
          "internalType": "uint256",
          "name": "tokenId",
          "type": "uint256"
        }
      ],
      "name": "depositTokenToSummon",
      "outputs": [
        {
          "internalType": "bool",
          "name": "success",
          "type": "bool"
        },
        {
          "internalType": "bytes",
          "name": "data",
          "type": "bytes"
        }
      ],
      "stateMutability": "nonpayable",
      "type": "function"
    },
    {
      "inputs": [
        {
          "internalType": "address",
          "name": "tokenAddress",
          "type": "address"
        },
        {
          "internalType": "uint256",
          "name": "tokenId",
          "type": "uint256"
        }
      ],
      "name": "withdrawTokenFromSummon",
      "outputs": [
        {
          "internalType": "bool",
          "name": "success",
          "type": "bool"
        },
        {
          "internalType": "bytes",
          "name": "data",
          "type": "bytes"
        }
      ],
      "stateMutability": "nonpayable",
      "type": "function"
    }
  ],
  "bytecode": "0x608060405234801561001057600080fd5b5061268e806100206000396000f3fe60806040523480156200001157600080fd5b5060043610620000885760003560e01c806372aea570116200006357806372aea570146200012f5780637409b9ec146200014f5780638a17aec91462000186578063c9ceea7614620001bc5762000088565b80631974f845146200008d5780631e87f20e14620000c35780632c157d1914620000f9575b600080fd5b620000ab6004803603810190620000a5919062000ad1565b620001f3565b604051620000ba919062000dd2565b60405180910390f35b620000e16004803603810190620000db919062000bee565b62000226565b604051620000f0919062000dd2565b60405180910390f35b62000117600480360381019062000111919062000ad1565b6200026f565b60405162000126919062000dd2565b60405180910390f35b6200014d600480360381019062000147919062000ad1565b620002a2565b005b6200016d600480360381019062000167919062000afd565b620004e9565b6040516200017d92919062000e96565b60405180910390f35b620001a460048036038101906200019e919062000bee565b620007f8565b604051620001b3919062000dd2565b60405180910390f35b620001da6004803603810190620001d4919062000b53565b62000841565b604051620001ea92919062000e96565b60405180910390f35b60016020528060005260406000206000915054906101000a900473ffffffffffffffffffffffffffffffffffffffff1681565b6003818051602081018201805184825260208301602085012081835280955050505050506000915054906101000a900473ffffffffffffffffffffffffffffffffffffffff1681565b60006020528060005260406000206000915054906101000a900473ffffffffffffffffffffffffffffffffffffffff1681565b600073ffffffffffffffffffffffffffffffffffffffff166000808373ffffffffffffffffffffffffffffffffffffffff1673ffffffffffffffffffffffffffffffffffffffff16815260200190815260200160002060009054906101000a900473ffffffffffffffffffffffffffffffffffffffff1673ffffffffffffffffffffffffffffffffffffffff161462000372576040517f08c379a0000000000000000000000000000000000000000000000000000000008152600401620003699062000f0e565b60405180910390fd5b60008160405162000383906200099a565b6200038f919062000dd2565b604051809103906000f080158015620003ac573d6000803e3d6000fd5b509050806000808473ffffffffffffffffffffffffffffffffffffffff1673ffffffffffffffffffffffffffffffffffffffff16815260200190815260200160002060006101000a81548173ffffffffffffffffffffffffffffffffffffffff021916908373ffffffffffffffffffffffffffffffffffffffff16021790555081600160008373ffffffffffffffffffffffffffffffffffffffff1673ffffffffffffffffffffffffffffffffffffffff16815260200190815260200160002060006101000a81548173ffffffffffffffffffffffffffffffffffffffff021916908373ffffffffffffffffffffffffffffffffffffffff1602179055507fc9c1da85374d40f21fe6aa2c3d2a15674a15de248a7713deaa981df3452eddcf8282604051620004dd92919062000def565b60405180910390a15050565b60006060600073ffffffffffffffffffffffffffffffffffffffff16600160008773ffffffffffffffffffffffffffffffffffffffff1673ffffffffffffffffffffffffffffffffffffffff16815260200190815260200160002060009054906101000a900473ffffffffffffffffffffffffffffffffffffffff1673ffffffffffffffffffffffffffffffffffffffff161415620005bf576040517f08c379a0000000000000000000000000000000000000000000000000000000008152600401620005b69062000eca565b60405180910390fd5b60008484604051602001620005d692919062000d89565b604051602081830303815290604052905085600282604051620005fa919062000db9565b908152602001604051809103902060006101000a81548173ffffffffffffffffffffffffffffffffffffffff021916908373ffffffffffffffffffffffffffffffffffffffff1602179055503360038260405162000659919062000db9565b908152602001604051809103902060006101000a81548173ffffffffffffffffffffffffffffffffffffffff021916908373ffffffffffffffffffffffffffffffffffffffff1602179055508473ffffffffffffffffffffffffffffffffffffffff16338786604051602401620006d39392919062000e1c565b6040516020818303038152906040527f42842e0e000000000000000000000000000000000000000000000000000000007bffffffffffffffffffffffffffffffffffffffffffffffffffffffff19166020820180517bffffffffffffffffffffffffffffffffffffffffffffffffffffffff83818316178352505050506040516200075f919062000db9565b6000604051808303816000865af19150503d80600081146200079e576040519150601f19603f3d011682016040523d82523d6000602084013e620007a3565b606091505b50809350819450505082620007ef576040517f08c379a0000000000000000000000000000000000000000000000000000000008152600401620007e69062000eec565b60405180910390fd5b50935093915050565b6002818051602081018201805184825260208301602085012081835280955050505050506000915054906101000a900473ffffffffffffffffffffffffffffffffffffffff1681565b60006060600084846040516020016200085c92919062000d89565b60405160208183030381529060405290506002816040516200087f919062000db9565b908152602001604051809103902060009054906101000a900473ffffffffffffffffffffffffffffffffffffffff1673ffffffffffffffffffffffffffffffffffffffff1663aef6e2678686336040518463ffffffff1660e01b8152600401620008ec9392919062000e59565b600060405180830381600087803b1580156200090757600080fd5b505af11580156200091c573d6000803e3d6000fd5b505050506040513d6000823e3d601f19601f8201168201806040525081019062000947919062000b94565b80935081945050508262000992576040517f08c379a0000000000000000000000000000000000000000000000000000000008152600401620009899062000eec565b60405180910390fd5b509250929050565b61148480620011d583390190565b6000620009bf620009b98462000f59565b62000f30565b905082815260208101848484011115620009d857600080fd5b620009e584828562001011565b509392505050565b600062000a04620009fe8462000f59565b62000f30565b90508281526020810184848401111562000a1d57600080fd5b62000a2a84828562001020565b509392505050565b60008135905062000a438162001186565b92915050565b60008151905062000a5a81620011a0565b92915050565b600082601f83011262000a7257600080fd5b813562000a84848260208601620009a8565b91505092915050565b600082601f83011262000a9f57600080fd5b815162000ab1848260208601620009ed565b91505092915050565b60008135905062000acb81620011ba565b92915050565b60006020828403121562000ae457600080fd5b600062000af48482850162000a32565b91505092915050565b60008060006060848603121562000b1357600080fd5b600062000b238682870162000a32565b935050602062000b368682870162000a32565b925050604062000b498682870162000aba565b9150509250925092565b6000806040838503121562000b6757600080fd5b600062000b778582860162000a32565b925050602062000b8a8582860162000aba565b9150509250929050565b6000806040838503121562000ba857600080fd5b600062000bb88582860162000a49565b925050602083015167ffffffffffffffff81111562000bd657600080fd5b62000be48582860162000a8d565b9150509250929050565b60006020828403121562000c0157600080fd5b600082013567ffffffffffffffff81111562000c1c57600080fd5b62000c2a8482850162000a60565b91505092915050565b62000c3e8162000fc7565b82525050565b62000c5962000c538262000fc7565b6200108c565b82525050565b62000c6a8162000fdb565b82525050565b600062000c7d8262000f8f565b62000c89818562000f9a565b935062000c9b81856020860162001020565b62000ca681620010ed565b840191505092915050565b600062000cbe8262000f8f565b62000cca818562000fab565b935062000cdc81856020860162001020565b80840191505092915050565b600062000cf7600f8362000fb6565b915062000d04826200110b565b602082019050919050565b600062000d1e600b8362000fb6565b915062000d2b8262001134565b602082019050919050565b600062000d45601c8362000fb6565b915062000d52826200115d565b602082019050919050565b62000d688162001007565b82525050565b62000d8362000d7d8262001007565b620010b4565b82525050565b600062000d97828562000c44565b60148201915062000da9828462000d6e565b6020820191508190509392505050565b600062000dc7828462000cb1565b915081905092915050565b600060208201905062000de9600083018462000c33565b92915050565b600060408201905062000e06600083018562000c33565b62000e15602083018462000c33565b9392505050565b600060608201905062000e33600083018662000c33565b62000e42602083018562000c33565b62000e51604083018462000d5d565b949350505050565b600060608201905062000e70600083018662000c33565b62000e7f602083018562000d5d565b62000e8e604083018462000c33565b949350505050565b600060408201905062000ead600083018562000c5f565b818103602083015262000ec1818462000c70565b90509392505050565b6000602082019050818103600083015262000ee58162000ce8565b9050919050565b6000602082019050818103600083015262000f078162000d0f565b9050919050565b6000602082019050818103600083015262000f298162000d36565b9050919050565b600062000f3c62000f4f565b905062000f4a828262001056565b919050565b6000604051905090565b600067ffffffffffffffff82111562000f775762000f76620010be565b5b62000f8282620010ed565b9050602081019050919050565b600081519050919050565b600082825260208201905092915050565b600081905092915050565b600082825260208201905092915050565b600062000fd48262000fe7565b9050919050565b60008115159050919050565b600073ffffffffffffffffffffffffffffffffffffffff82169050919050565b6000819050919050565b82818337600083830152505050565b60005b838110156200104057808201518184015260208101905062001023565b8381111562001050576000848401525b50505050565b6200106182620010ed565b810181811067ffffffffffffffff82111715620010835762001082620010be565b5b80604052505050565b60006200109982620010a0565b9050919050565b6000620010ad82620010fe565b9050919050565b6000819050919050565b7f4e487b7100000000000000000000000000000000000000000000000000000000600052604160045260246000fd5b6000601f19601f8301169050919050565b60008160601b9050919050565b7f6e6f2073756d6d6f6e20666f756e640000000000000000000000000000000000600082015250565b7f63616c6c206661696c6564000000000000000000000000000000000000000000600082015250565b7f6164647265737320616c72656164792068617320612053756d6d6f6e00000000600082015250565b620011918162000fc7565b81146200119d57600080fd5b50565b620011ab8162000fdb565b8114620011b757600080fd5b50565b620011c58162001007565b8114620011d157600080fd5b5056fe60c06040523480156200001157600080fd5b5060405162001484380380620014848339818101604052810190620000379190620000c3565b8073ffffffffffffffffffffffffffffffffffffffff1660808173ffffffffffffffffffffffffffffffffffffffff1660601b815250503373ffffffffffffffffffffffffffffffffffffffff1660a08173ffffffffffffffffffffffffffffffffffffffff1660601b81525050506200013d565b600081519050620000bd8162000123565b92915050565b600060208284031215620000d657600080fd5b6000620000e684828501620000ac565b91505092915050565b6000620000fc8262000103565b9050919050565b600073ffffffffffffffffffffffffffffffffffffffff82169050919050565b6200012e81620000ef565b81146200013a57600080fd5b50565b60805160601c60a05160601c6113146200017060003960006107a2015260008181610447015261050901526113146000f3fe608060405234801561001057600080fd5b50600436106100ce5760003560e01c8063a3f4df7e1161008c578063bc197c8111610066578063bc197c811461024e578063dd8741451461027e578063f23a6e611461029c578063ffa1ad74146102cc576100ce565b8063a3f4df7e146101cd578063a7bb5803146101eb578063aef6e2671461021d576100ce565b806223de29146100d357806301ffc9a7146100ef578063150b7a021461011f5780631626ba7e1461014f5780638da5cb5b1461017f57806397aba7f91461019d575b600080fd5b6100ed60048036038101906100e89190610963565b6102ea565b005b61010960048036038101906101049190610cff565b6102f4565b6040516101169190610f15565b60405180910390f35b61013960048036038101906101349190610af2565b61042e565b6040516101469190610fdc565b60405180910390f35b61016960048036038101906101649190610c53565b610443565b6040516101769190610fdc565b60405180910390f35b610187610507565b6040516101949190610ec3565b60405180910390f35b6101b760048036038101906101b29190610cab565b61052b565b6040516101c49190610ec3565b60405180910390f35b6101d561059a565b6040516101e29190610ff7565b60405180910390f35b61020560048036038101906102009190610d28565b6105d3565b60405161021493929190610f60565b60405180910390f35b61023760048036038101906102329190610c04565b61063b565b604051610245929190610f30565b60405180910390f35b61026860048036038101906102639190610a26565b610788565b6040516102759190610fdc565b60405180910390f35b6102866107a0565b6040516102939190610ec3565b60405180910390f35b6102b660048036038101906102b19190610b72565b6107c4565b6040516102c39190610fdc565b60405180910390f35b6102d46107da565b6040516102e19190610ff7565b60405180910390f35b5050505050505050565b60007f4e2312e0000000000000000000000000000000000000000000000000000000007bffffffffffffffffffffffffffffffffffffffffffffffffffffffff1916827bffffffffffffffffffffffffffffffffffffffffffffffffffffffff191614806103bf57507f150b7a02000000000000000000000000000000000000000000000000000000007bffffffffffffffffffffffffffffffffffffffffffffffffffffffff1916827bffffffffffffffffffffffffffffffffffffffffffffffffffffffff1916145b8061042757507f01ffc9a7000000000000000000000000000000000000000000000000000000007bffffffffffffffffffffffffffffffffffffffffffffffffffffffff1916827bffffffffffffffffffffffffffffffffffffffffffffffffffffffff1916145b9050919050565b600063150b7a0260e01b905095945050505050565b60007f000000000000000000000000000000000000000000000000000000000000000073ffffffffffffffffffffffffffffffffffffffff166104ca8585858080601f016020809104026020016040519081016040528093929190818152602001838380828437600081840152601f19601f8201169050808301925050505050505061052b565b73ffffffffffffffffffffffffffffffffffffffff1614156104f557631626ba7e60e01b9050610500565b63ffffffff60e01b90505b9392505050565b7f000000000000000000000000000000000000000000000000000000000000000081565b60008060008061053a856105d3565b925092509250600186828585604051600081526020016040526040516105639493929190610f97565b6020604051602081039080840390855afa158015610585573d6000803e3d6000fd5b50505060206040510351935050505092915050565b6040518060400160405280601881526020017f44656661756c742043616c6c6261636b2048616e646c6572000000000000000081525081565b6000806000604184511461061c576040517f08c379a000000000000000000000000000000000000000000000000000000000815260040161061390611039565b60405180910390fd5b6020840151925060408401519150606084015160001a90509193909250565b600060608473ffffffffffffffffffffffffffffffffffffffff1630848660405160240161066b93929190610ede565b6040516020818303038152906040527f42842e0e000000000000000000000000000000000000000000000000000000007bffffffffffffffffffffffffffffffffffffffffffffffffffffffff19166020820180517bffffffffffffffffffffffffffffffffffffffffffffffffffffffff83818316178352505050506040516106f59190610eac565b6000604051808303816000865af19150503d8060008114610732576040519150601f19603f3d011682016040523d82523d6000602084013e610737565b606091505b50809250819350505081610780576040517f08c379a000000000000000000000000000000000000000000000000000000000815260040161077790611019565b60405180910390fd5b935093915050565b600063bc197c8160e01b905098975050505050505050565b7f000000000000000000000000000000000000000000000000000000000000000081565b600063f23a6e6160e01b90509695505050505050565b6040518060400160405280600581526020017f312e302e3000000000000000000000000000000000000000000000000000000081525081565b60006108266108218461107e565b611059565b90508281526020810184848401111561083e57600080fd5b61084984828561117d565b509392505050565b60008135905061086081611282565b92915050565b60008083601f84011261087857600080fd5b8235905067ffffffffffffffff81111561089157600080fd5b6020830191508360208202830111156108a957600080fd5b9250929050565b6000813590506108bf81611299565b92915050565b6000813590506108d4816112b0565b92915050565b60008083601f8401126108ec57600080fd5b8235905067ffffffffffffffff81111561090557600080fd5b60208301915083600182028301111561091d57600080fd5b9250929050565b600082601f83011261093557600080fd5b8135610945848260208601610813565b91505092915050565b60008135905061095d816112c7565b92915050565b60008060008060008060008060c0898b03121561097f57600080fd5b600061098d8b828c01610851565b985050602061099e8b828c01610851565b97505060406109af8b828c01610851565b96505060606109c08b828c0161094e565b955050608089013567ffffffffffffffff8111156109dd57600080fd5b6109e98b828c016108da565b945094505060a089013567ffffffffffffffff811115610a0857600080fd5b610a148b828c016108da565b92509250509295985092959890939650565b60008060008060008060008060a0898b031215610a4257600080fd5b6000610a508b828c01610851565b9850506020610a618b828c01610851565b975050604089013567ffffffffffffffff811115610a7e57600080fd5b610a8a8b828c01610866565b9650965050606089013567ffffffffffffffff811115610aa957600080fd5b610ab58b828c01610866565b9450945050608089013567ffffffffffffffff811115610ad457600080fd5b610ae08b828c016108da565b92509250509295985092959890939650565b600080600080600060808688031215610b0a57600080fd5b6000610b1888828901610851565b9550506020610b2988828901610851565b9450506040610b3a8882890161094e565b935050606086013567ffffffffffffffff811115610b5757600080fd5b610b63888289016108da565b92509250509295509295909350565b60008060008060008060a08789031215610b8b57600080fd5b6000610b9989828a01610851565b9650506020610baa89828a01610851565b9550506040610bbb89828a0161094e565b9450506060610bcc89828a0161094e565b935050608087013567ffffffffffffffff811115610be957600080fd5b610bf589828a016108da565b92509250509295509295509295565b600080600060608486031215610c1957600080fd5b6000610c2786828701610851565b9350506020610c388682870161094e565b9250506040610c4986828701610851565b9150509250925092565b600080600060408486031215610c6857600080fd5b6000610c76868287016108b0565b935050602084013567ffffffffffffffff811115610c9357600080fd5b610c9f868287016108da565b92509250509250925092565b60008060408385031215610cbe57600080fd5b6000610ccc858286016108b0565b925050602083013567ffffffffffffffff811115610ce957600080fd5b610cf585828601610924565b9150509250929050565b600060208284031215610d1157600080fd5b6000610d1f848285016108c5565b91505092915050565b600060208284031215610d3a57600080fd5b600082013567ffffffffffffffff811115610d5457600080fd5b610d6084828501610924565b91505092915050565b610d72816110f2565b82525050565b610d8181611104565b82525050565b610d9081611110565b82525050565b610d9f8161111a565b82525050565b6000610db0826110af565b610dba81856110c5565b9350610dca81856020860161118c565b610dd38161121f565b840191505092915050565b6000610de9826110af565b610df381856110d6565b9350610e0381856020860161118c565b80840191505092915050565b6000610e1a826110ba565b610e2481856110e1565b9350610e3481856020860161118c565b610e3d8161121f565b840191505092915050565b6000610e55600b836110e1565b9150610e6082611230565b602082019050919050565b6000610e786018836110e1565b9150610e8382611259565b602082019050919050565b610e9781611166565b82525050565b610ea681611170565b82525050565b6000610eb88284610dde565b915081905092915050565b6000602082019050610ed86000830184610d69565b92915050565b6000606082019050610ef36000830186610d69565b610f006020830185610d69565b610f0d6040830184610e8e565b949350505050565b6000602082019050610f2a6000830184610d78565b92915050565b6000604082019050610f456000830185610d78565b8181036020830152610f578184610da5565b90509392505050565b6000606082019050610f756000830186610d87565b610f826020830185610d87565b610f8f6040830184610e9d565b949350505050565b6000608082019050610fac6000830187610d87565b610fb96020830186610e9d565b610fc66040830185610d87565b610fd36060830184610d87565b95945050505050565b6000602082019050610ff16000830184610d96565b92915050565b600060208201905081810360008301526110118184610e0f565b905092915050565b6000602082019050818103600083015261103281610e48565b9050919050565b6000602082019050818103600083015261105281610e6b565b9050919050565b6000611063611074565b905061106f82826111bf565b919050565b6000604051905090565b600067ffffffffffffffff821115611099576110986111f0565b5b6110a28261121f565b9050602081019050919050565b600081519050919050565b600081519050919050565b600082825260208201905092915050565b600081905092915050565b600082825260208201905092915050565b60006110fd82611146565b9050919050565b60008115159050919050565b6000819050919050565b60007fffffffff0000000000000000000000000000000000000000000000000000000082169050919050565b600073ffffffffffffffffffffffffffffffffffffffff82169050919050565b6000819050919050565b600060ff82169050919050565b82818337600083830152505050565b60005b838110156111aa57808201518184015260208101905061118f565b838111156111b9576000848401525b50505050565b6111c88261121f565b810181811067ffffffffffffffff821117156111e7576111e66111f0565b5b80604052505050565b7f4e487b7100000000000000000000000000000000000000000000000000000000600052604160045260246000fd5b6000601f19601f8301169050919050565b7f63616c6c206661696c6564000000000000000000000000000000000000000000600082015250565b7f696e76616c6964207369676e6174757265206c656e6774680000000000000000600082015250565b61128b816110f2565b811461129657600080fd5b50565b6112a281611110565b81146112ad57600080fd5b50565b6112b98161111a565b81146112c457600080fd5b50565b6112d081611166565b81146112db57600080fd5b5056fea2646970667358221220e5471c60c24e9a8f34025125a36edca58f140afc6440566fbca4f4963cf218b864736f6c63430008040033a2646970667358221220b5fc7f67481c85bf987ff563714230035b5b5d81863a14d828cbfb985a49e62664736f6c63430008040033",
  "linkReferences": {},
  "deployedLinkReferences": {}
}