{
  "_format": "hh-sol-artifact-1",
  "contractName": "SummonV2Manager",
  "sourceName": "contracts/SummonV2Manager.sol",
  "abi": [
    {
      "inputs": [
        {
          "internalType": "address",
          "name": "_singleton",
          "type": "address"
        }
      ],
      "stateMutability": "nonpayable",
      "type": "constructor"
    },
    {
      "anonymous": false,
      "inputs": [
        {
          "indexed": true,
          "internalType": "address",
          "name": "owner",
          "type": "address"
        },
        {
          "indexed": true,
          "internalType": "address",
          "name": "summonAddress",
          "type": "address"
        }
      ],
      "name": "SummonCreated",
      "type": "event"
    },
    {
      "anonymous": false,
      "inputs": [
        {
          "indexed": true,
          "internalType": "address",
          "name": "lender",
          "type": "address"
        },
        {
          "indexed": true,
          "internalType": "address",
          "name": "summon",
          "type": "address"
        },
        {
          "indexed": false,
          "internalType": "address",
          "name": "tokenAddress",
          "type": "address"
        },
        {
          "indexed": false,
          "internalType": "uint256",
          "name": "tokenId",
          "type": "uint256"
        }
      ],
      "name": "TokenLendedFrom",
      "type": "event"
    },
    {
      "anonymous": false,
      "inputs": [
        {
          "indexed": true,
          "internalType": "address",
          "name": "lender",
          "type": "address"
        },
        {
          "indexed": true,
          "internalType": "address",
          "name": "summon",
          "type": "address"
        },
        {
          "indexed": false,
          "internalType": "address",
          "name": "tokenAddress",
          "type": "address"
        },
        {
          "indexed": false,
          "internalType": "uint256",
          "name": "tokenId",
          "type": "uint256"
        }
      ],
      "name": "TokenWithdrawnTo",
      "type": "event"
    },
    {
      "inputs": [
        {
          "internalType": "address",
          "name": "_owner",
          "type": "address"
        }
      ],
      "name": "CreateNewSummon",
      "outputs": [
        {
          "internalType": "address",
          "name": "",
          "type": "address"
        }
      ],
      "stateMutability": "nonpayable",
      "type": "function"
    },
    {
      "inputs": [
        {
          "internalType": "bytes",
          "name": "",
          "type": "bytes"
        }
      ],
      "name": "EncodedTokenToLender",
      "outputs": [
        {
          "internalType": "address",
          "name": "",
          "type": "address"
        }
      ],
      "stateMutability": "view",
      "type": "function"
    },
    {
      "inputs": [
        {
          "internalType": "bytes",
          "name": "",
          "type": "bytes"
        }
      ],
      "name": "EncodedTokenToSummon",
      "outputs": [
        {
          "internalType": "address",
          "name": "",
          "type": "address"
        }
      ],
      "stateMutability": "view",
      "type": "function"
    },
    {
      "inputs": [
        {
          "internalType": "address",
          "name": "",
          "type": "address"
        }
      ],
      "name": "OwnerToSummonAddress",
      "outputs": [
        {
          "internalType": "address",
          "name": "",
          "type": "address"
        }
      ],
      "stateMutability": "view",
      "type": "function"
    },
    {
      "inputs": [
        {
          "internalType": "address",
          "name": "",
          "type": "address"
        }
      ],
      "name": "SummonAddressToOwner",
      "outputs": [
        {
          "internalType": "address",
          "name": "",
          "type": "address"
        }
      ],
      "stateMutability": "view",
      "type": "function"
    },
    {
      "inputs": [
        {
          "internalType": "bytes",
          "name": "_encodedToken",
          "type": "bytes"
        }
      ],
      "name": "getDecodedToken",
      "outputs": [
        {
          "internalType": "address",
          "name": "tokenAddress",
          "type": "address"
        },
        {
          "internalType": "uint256",
          "name": "tokenId",
          "type": "uint256"
        }
      ],
      "stateMutability": "pure",
      "type": "function"
    },
    {
      "inputs": [
        {
          "internalType": "address",
          "name": "tokenAddress",
          "type": "address"
        },
        {
          "internalType": "uint256",
          "name": "tokenId",
          "type": "uint256"
        }
      ],
      "name": "getEncodedToken",
      "outputs": [
        {
          "internalType": "bytes",
          "name": "encodedToken",
          "type": "bytes"
        }
      ],
      "stateMutability": "pure",
      "type": "function"
    },
    {
      "inputs": [
        {
          "internalType": "address",
          "name": "borrower",
          "type": "address"
        },
        {
          "internalType": "address",
          "name": "tokenAddress",
          "type": "address"
        },
        {
          "internalType": "uint256",
          "name": "tokenId",
          "type": "uint256"
        }
      ],
      "name": "lendTokenToBorrower",
      "outputs": [
        {
          "internalType": "bool",
          "name": "success",
          "type": "bool"
        },
        {
          "internalType": "bytes",
          "name": "data",
          "type": "bytes"
        }
      ],
      "stateMutability": "nonpayable",
      "type": "function"
    },
    {
      "inputs": [],
      "name": "singleton",
      "outputs": [
        {
          "internalType": "address",
          "name": "",
          "type": "address"
        }
      ],
      "stateMutability": "view",
      "type": "function"
    },
    {
      "inputs": [
        {
          "internalType": "address",
          "name": "tokenAddress",
          "type": "address"
        },
        {
          "internalType": "uint256",
          "name": "tokenId",
          "type": "uint256"
        }
      ],
      "name": "withdrawTokenFromSummon",
      "outputs": [
        {
          "internalType": "bool",
          "name": "success",
          "type": "bool"
        },
        {
          "internalType": "bytes",
          "name": "data",
          "type": "bytes"
        }
      ],
      "stateMutability": "nonpayable",
      "type": "function"
    }
  ],
  "bytecode": "0x60a06040523480156200001157600080fd5b5060405162001b7138038062001b7183398181016040528101906200003791906200008c565b8073ffffffffffffffffffffffffffffffffffffffff1660808173ffffffffffffffffffffffffffffffffffffffff1660601b815250505062000106565b6000815190506200008681620000ec565b92915050565b6000602082840312156200009f57600080fd5b6000620000af8482850162000075565b91505092915050565b6000620000c582620000cc565b9050919050565b600073ffffffffffffffffffffffffffffffffffffffff82169050919050565b620000f781620000b8565b81146200010357600080fd5b50565b60805160601c611a456200012c6000396000818161095b0152610b950152611a456000f3fe608060405234801561001057600080fd5b506004361061009d5760003560e01c80634457a39f116100665780634457a39f1461019457806372aea570146101c45780638a17aec9146101f4578063b62654fb14610224578063c9ceea76146102425761009d565b8062014596146100a25780631974f845146100d35780631e87f20e146101035780632c157d19146101335780632f83ff0c14610163575b600080fd5b6100bc60048036038101906100b79190611253565b610273565b6040516100ca9291906115ea565b60405180910390f35b6100ed60048036038101906100e891906111c5565b61078a565b6040516100fa9190611538565b60405180910390f35b61011d60048036038101906101189190611377565b6107bd565b60405161012a9190611538565b60405180910390f35b61014d600480360381019061014891906111c5565b610806565b60405161015a9190611538565b60405180910390f35b61017d60048036038101906101789190611332565b610839565b60405161018b92919061158a565b60405180910390f35b6101ae60048036038101906101a991906112a2565b61085a565b6040516101bb919061161a565b60405180910390f35b6101de60048036038101906101d991906111c5565b610886565b6040516101eb9190611538565b60405180910390f35b61020e60048036038101906102099190611377565b610b4a565b60405161021b9190611538565b60405180910390f35b61022c610b93565b6040516102399190611538565b60405180910390f35b61025c600480360381019061025791906112a2565b610bb7565b60405161026a9291906115ea565b60405180910390f35b60006060600073ffffffffffffffffffffffffffffffffffffffff166000808773ffffffffffffffffffffffffffffffffffffffff1673ffffffffffffffffffffffffffffffffffffffff16815260200190815260200160002060009054906101000a900473ffffffffffffffffffffffffffffffffffffffff1673ffffffffffffffffffffffffffffffffffffffff1614801561042457503073ffffffffffffffffffffffffffffffffffffffff166372aea570866040518263ffffffff1660e01b81526004016103459190611538565b602060405180830381600087803b15801561035f57600080fd5b505af1158015610373573d6000803e3d6000fd5b505050506040513d601f19601f8201168201806040525081019061039791906111ee565b73ffffffffffffffffffffffffffffffffffffffff166000808773ffffffffffffffffffffffffffffffffffffffff1673ffffffffffffffffffffffffffffffffffffffff16815260200190815260200160002060009054906101000a900473ffffffffffffffffffffffffffffffffffffffff1673ffffffffffffffffffffffffffffffffffffffff16145b5060008060008773ffffffffffffffffffffffffffffffffffffffff1673ffffffffffffffffffffffffffffffffffffffff16815260200190815260200160002060009054906101000a900473ffffffffffffffffffffffffffffffffffffffff169050600073ffffffffffffffffffffffffffffffffffffffff168173ffffffffffffffffffffffffffffffffffffffff1614156104f8576040517f08c379a00000000000000000000000000000000000000000000000000000000081526004016104ef906116dc565b60405180910390fd5b6000858560405160200161050d92919061158a565b60405160208183030381529060405290508160028260405161052f9190611521565b908152602001604051809103902060006101000a81548173ffffffffffffffffffffffffffffffffffffffff021916908373ffffffffffffffffffffffffffffffffffffffff1602179055503360038260405161058c9190611521565b908152602001604051809103902060006101000a81548173ffffffffffffffffffffffffffffffffffffffff021916908373ffffffffffffffffffffffffffffffffffffffff1602179055508573ffffffffffffffffffffffffffffffffffffffff1633838760405160240161060493929190611553565b6040516020818303038152906040527f42842e0e000000000000000000000000000000000000000000000000000000007bffffffffffffffffffffffffffffffffffffffffffffffffffffffff19166020820180517bffffffffffffffffffffffffffffffffffffffffffffffffffffffff838183161783525050505060405161068e9190611521565b6000604051808303816000865af19150503d80600081146106cb576040519150601f19603f3d011682016040523d82523d6000602084013e6106d0565b606091505b5080945081955050508173ffffffffffffffffffffffffffffffffffffffff163373ffffffffffffffffffffffffffffffffffffffff167fa4af90483af2c59d24693408535825150914db88c20221d618cf8ae503326f6f888860405161073892919061158a565b60405180910390a383610780576040517f08c379a00000000000000000000000000000000000000000000000000000000081526004016107779061169c565b60405180910390fd5b5050935093915050565b60016020528060005260406000206000915054906101000a900473ffffffffffffffffffffffffffffffffffffffff1681565b6003818051602081018201805184825260208301602085012081835280955050505050506000915054906101000a900473ffffffffffffffffffffffffffffffffffffffff1681565b60006020528060005260406000206000915054906101000a900473ffffffffffffffffffffffffffffffffffffffff1681565b600080838381019061084b9190611217565b80925081935050509250929050565b6060828260405160200161086f92919061158a565b604051602081830303815290604052905092915050565b60008073ffffffffffffffffffffffffffffffffffffffff166000808473ffffffffffffffffffffffffffffffffffffffff1673ffffffffffffffffffffffffffffffffffffffff16815260200190815260200160002060009054906101000a900473ffffffffffffffffffffffffffffffffffffffff1673ffffffffffffffffffffffffffffffffffffffff1614610954576040517f08c379a000000000000000000000000000000000000000000000000000000000815260040161094b906116bc565b60405180910390fd5b600061097f7f0000000000000000000000000000000000000000000000000000000000000000610f6d565b90508073ffffffffffffffffffffffffffffffffffffffff166319ab453c846040518263ffffffff1660e01b81526004016109ba9190611538565b600060405180830381600087803b1580156109d457600080fd5b505af11580156109e8573d6000803e3d6000fd5b50505050806000808573ffffffffffffffffffffffffffffffffffffffff1673ffffffffffffffffffffffffffffffffffffffff16815260200190815260200160002060006101000a81548173ffffffffffffffffffffffffffffffffffffffff021916908373ffffffffffffffffffffffffffffffffffffffff16021790555082600160008373ffffffffffffffffffffffffffffffffffffffff1673ffffffffffffffffffffffffffffffffffffffff16815260200190815260200160002060006101000a81548173ffffffffffffffffffffffffffffffffffffffff021916908373ffffffffffffffffffffffffffffffffffffffff1602179055508073ffffffffffffffffffffffffffffffffffffffff168373ffffffffffffffffffffffffffffffffffffffff167fc9c1da85374d40f21fe6aa2c3d2a15674a15de248a7713deaa981df3452eddcf60405160405180910390a380915050919050565b6002818051602081018201805184825260208301602085012081835280955050505050506000915054906101000a900473ffffffffffffffffffffffffffffffffffffffff1681565b7f000000000000000000000000000000000000000000000000000000000000000081565b6000606060008484604051602001610bd092919061158a565b60405160208183030381529060405290506000600282604051610bf39190611521565b908152602001604051809103902060009054906101000a900473ffffffffffffffffffffffffffffffffffffffff1690503373ffffffffffffffffffffffffffffffffffffffff16600383604051610c4b9190611521565b908152602001604051809103902060009054906101000a900473ffffffffffffffffffffffffffffffffffffffff1673ffffffffffffffffffffffffffffffffffffffff161480610d2657503373ffffffffffffffffffffffffffffffffffffffff16600160008373ffffffffffffffffffffffffffffffffffffffff1673ffffffffffffffffffffffffffffffffffffffff16815260200190815260200160002060009054906101000a900473ffffffffffffffffffffffffffffffffffffffff1673ffffffffffffffffffffffffffffffffffffffff16145b610d65576040517f08c379a0000000000000000000000000000000000000000000000000000000008152600401610d5c9061167c565b60405180910390fd5b6000600283604051610d779190611521565b908152602001604051809103902060006101000a81548173ffffffffffffffffffffffffffffffffffffffff021916908373ffffffffffffffffffffffffffffffffffffffff1602179055506000600383604051610dd59190611521565b908152602001604051809103902060006101000a81548173ffffffffffffffffffffffffffffffffffffffff021916908373ffffffffffffffffffffffffffffffffffffffff1602179055508073ffffffffffffffffffffffffffffffffffffffff1663aef6e2678787336040518463ffffffff1660e01b8152600401610e5e939291906115b3565b600060405180830381600087803b158015610e7857600080fd5b505af1158015610e8c573d6000803e3d6000fd5b505050506040513d6000823e3d601f19601f82011682018060405250810190610eb591906112de565b80945081955050508073ffffffffffffffffffffffffffffffffffffffff163373ffffffffffffffffffffffffffffffffffffffff167f02984d72263e55f9e6ae5957433f6623d0e094eb8dc7e90621042c089b9b71a48888604051610f1c92919061158a565b60405180910390a383610f64576040517f08c379a0000000000000000000000000000000000000000000000000000000008152600401610f5b9061165c565b60405180910390fd5b50509250929050565b60006040517f3d602d80600a3d3981f3363d3d373d3d3d363d7300000000000000000000000081528260601b60148201527f5af43d82803e903d91602b57fd5bf3000000000000000000000000000000000060288201526037816000f0915050600073ffffffffffffffffffffffffffffffffffffffff168173ffffffffffffffffffffffffffffffffffffffff16141561103d576040517f08c379a00000000000000000000000000000000000000000000000000000000081526004016110349061163c565b60405180910390fd5b919050565b600061105561105084611721565b6116fc565b90508281526020810184848401111561106d57600080fd5b6110788482856117e4565b509392505050565b600061109361108e84611721565b6116fc565b9050828152602081018484840111156110ab57600080fd5b6110b68482856117f3565b509392505050565b6000813590506110cd816119b3565b92915050565b6000815190506110e2816119b3565b92915050565b6000813590506110f7816119ca565b92915050565b60008151905061110c816119e1565b92915050565b60008083601f84011261112457600080fd5b8235905067ffffffffffffffff81111561113d57600080fd5b60208301915083600182028301111561115557600080fd5b9250929050565b600082601f83011261116d57600080fd5b813561117d848260208601611042565b91505092915050565b600082601f83011261119757600080fd5b81516111a7848260208601611080565b91505092915050565b6000813590506111bf816119f8565b92915050565b6000602082840312156111d757600080fd5b60006111e5848285016110be565b91505092915050565b60006020828403121561120057600080fd5b600061120e848285016110d3565b91505092915050565b6000806040838503121561122a57600080fd5b6000611238858286016110e8565b9250506020611249858286016111b0565b9150509250929050565b60008060006060848603121561126857600080fd5b6000611276868287016110be565b9350506020611287868287016110be565b9250506040611298868287016111b0565b9150509250925092565b600080604083850312156112b557600080fd5b60006112c3858286016110be565b92505060206112d4858286016111b0565b9150509250929050565b600080604083850312156112f157600080fd5b60006112ff858286016110fd565b925050602083015167ffffffffffffffff81111561131c57600080fd5b61132885828601611186565b9150509250929050565b6000806020838503121561134557600080fd5b600083013567ffffffffffffffff81111561135f57600080fd5b61136b85828601611112565b92509250509250929050565b60006020828403121561138957600080fd5b600082013567ffffffffffffffff8111156113a357600080fd5b6113af8482850161115c565b91505092915050565b6113c18161178a565b82525050565b6113d0816117ae565b82525050565b60006113e182611752565b6113eb818561175d565b93506113fb8185602086016117f3565b61140481611886565b840191505092915050565b600061141a82611752565b611424818561176e565b93506114348185602086016117f3565b80840191505092915050565b600061144d601683611779565b915061145882611897565b602082019050919050565b6000611470601183611779565b915061147b826118c0565b602082019050919050565b6000611493602583611779565b915061149e826118e9565b604082019050919050565b60006114b6600b83611779565b91506114c182611938565b602082019050919050565b60006114d9601c83611779565b91506114e482611961565b602082019050919050565b60006114fc601483611779565b91506115078261198a565b602082019050919050565b61151b816117da565b82525050565b600061152d828461140f565b915081905092915050565b600060208201905061154d60008301846113b8565b92915050565b600060608201905061156860008301866113b8565b61157560208301856113b8565b6115826040830184611512565b949350505050565b600060408201905061159f60008301856113b8565b6115ac6020830184611512565b9392505050565b60006060820190506115c860008301866113b8565b6115d56020830185611512565b6115e260408301846113b8565b949350505050565b60006040820190506115ff60008301856113c7565b818103602083015261161181846113d6565b90509392505050565b6000602082019050818103600083015261163481846113d6565b905092915050565b6000602082019050818103600083015261165581611440565b9050919050565b6000602082019050818103600083015261167581611463565b9050919050565b6000602082019050818103600083015261169581611486565b9050919050565b600060208201905081810360008301526116b5816114a9565b9050919050565b600060208201905081810360008301526116d5816114cc565b9050919050565b600060208201905081810360008301526116f5816114ef565b9050919050565b6000611706611717565b90506117128282611826565b919050565b6000604051905090565b600067ffffffffffffffff82111561173c5761173b611857565b5b61174582611886565b9050602081019050919050565b600081519050919050565b600082825260208201905092915050565b600081905092915050565b600082825260208201905092915050565b6000611795826117ba565b9050919050565b60006117a7826117ba565b9050919050565b60008115159050919050565b600073ffffffffffffffffffffffffffffffffffffffff82169050919050565b6000819050919050565b82818337600083830152505050565b60005b838110156118115780820151818401526020810190506117f6565b83811115611820576000848401525b50505050565b61182f82611886565b810181811067ffffffffffffffff8211171561184e5761184d611857565b5b80604052505050565b7f4e487b7100000000000000000000000000000000000000000000000000000000600052604160045260246000fd5b6000601f19601f8301169050919050565b7f455243313136373a20637265617465206661696c656400000000000000000000600082015250565b7f63616c6c732063616c6c206661696c6564000000000000000000000000000000600082015250565b7f63616c6c6572206d757374206265206c656e646572206f722073756d6d6f6e2060008201527f6f776e6572000000000000000000000000000000000000000000000000000000602082015250565b7f63616c6c206661696c6564000000000000000000000000000000000000000000600082015250565b7f6164647265737320616c72656164792068617320612053756d6d6f6e00000000600082015250565b7f736f6d657468696e672077656e742077726f6e67000000000000000000000000600082015250565b6119bc8161178a565b81146119c757600080fd5b50565b6119d38161179c565b81146119de57600080fd5b50565b6119ea816117ae565b81146119f557600080fd5b50565b611a01816117da565b8114611a0c57600080fd5b5056fea2646970667358221220f62e23646addbee814a1f9b873e1a5504b42561bca18cf3ca6345393215d229064736f6c63430008040033",
  "linkReferences": {},
  "deployedLinkReferences": {}
}